:0300000002135197
:0C135100787FE4F6D8FD75815A021398ED
:101E4D00E4900090F0F51F90008FF090008EF0223E
:071F0600E51F6002151F2218
:100C2500900090E07003020D2F24FE601C146023D9
:100C350014603314604724046003020D249000837C
:100C4500E06003020D2F020CFCE51F6003020D2F6F
:100C5500020CEA900083E06003020D2F751F2390BC
:100C650000907404F022E51F6003020D2F7F02122D
:100C75001E3C90008FE004F0A37405F02290008FD5
:100C8500E024FE601224FE6022240324FB506260EF
:100C95003814606D020D1B900078E01313543FFF6C
:100CA500E533D39F5003020D2F803A900078E0136F
:100CB50013543F75F002A4FFAD33D3ED9FE5F06407
:100CC50080F87480984063801C900078E01313547A
:100CD5003F75F003A4FFAD33D3ED9FE5F06480F8D5
:100CE50074809840457F0B121E3C9000907403F071
:100CF50022900083E07033751F239000907402F0FA
:100D050022900083E07023751F239000907402F0F9
:100D1500E490008FF0229000907402F0E48005E4E6
:0B0D2500900090F090008FF0F51F226E
:071F4C000A03091303015B06
:101BAD00121C911217441217A412123012002E1289
:101BBD000FF7900094E0FF12044A1213DD1218047F
:081BCD00120C2575E13F80DBDD
:0A1EE800E55AD3940A4002155A226D
:0C1EC4009000947401F0E4F55AD29122D1
:10044A00900094E06F6005EFF0E4F55A900094E0B4
:10045A0014B40F0040030206E790047175F003A478
:10046A00C58325F0C5837302049E0204A40204B85E
:10047A000205C20205DD0205F4020619020650024F
:10048A0006750206A502058A0204DA0204FC0205C0
:10049A002C020569E4F55AD29122E55A600A24F63B
:1004AA0060030206F00205B1755A10C29122E55A9C
:1004BA00601824F6601124FA600A24FA600302061E
:1004CA00F0D29122C291220205B1755A1CC2912220
:1004DA00E55A601824F6601124F6600A24F66003CF
:1004EA000206F0D29122C291220205B1755A82C245
:1004FA009122E55A602624F6601F24F6601824F635
:10050A00601124F6600A24F660030206F0D29122F2
:10051A00C29122D29122C291220205B1755A96C283
:10052A009122E55A603324F6602D24F6602624F6DB
:10053A00601F24F6601824F6601124F6600A24F677
:10054A0060030206F0D29122C29122D29122C29174
:10055A0022D29122C29122804E755AAAC29122E5D4
:10056A005A601724F66011249C600A24F46003027E
:10057A0006F0D29122C29122802D755ADEC29122B2
:10058A00E55A602E24F6601F24FA601824FA6011D6
:10059A0024FA600A24FA60030206F0D29122C29178
:1005AA0022D29122C29122E4F55A90009404F0D208
:1005BA009122755A28C29122E55A601114600E24BC
:1005CA00F7600A24FA60030206F0D29122755A16DD
:1005DA00C29122E55A601114600E24F7600A24477A
:1005EA0060030206F0D291228056E55A601F146019
:1005FA001C24F76018244E601124FC600A24FC6055
:10060A00030206F0D29122C29122D291228031E5D0
:10061A005A602D14602A24F760262456601F24FC91
:10062A00601824FC601124FC600A24FC60030206A2
:10063A00F0D29122C29122D29122C29122D2912247
:10064A00755AC8C29122E55A601F14601C24F760CB
:10065A0018246F601124FB600A24EC60030206F080
:10066A00D29122C29122D29122806CE55A602A1438
:10067A00602724F760232479601C24FB601524FB7F
:10068A00600E24FB600724EC705CD29122C2912296
:10069A00D29122C29122D29122803CE55A120FA510
:1006AA0006E10006E10106E10A06DE8706DB8C06A2
:1006BA00D89106D59606D29B06CFA006CCB40000E8
:1006CA0006F0D29122C29122D29122C29122D291D3
:1006DA0022C29122D29122755AFAC2912290009492
:0706EA007401F0E4F55A224F
:101E5D009000937401F0E4900092F0900091F022C4
:0A1EF200900092E06003E014F0227B
:101DAC00900093E0FEEFC39E400CEFF0900091E0AA
:071DBC0004F0A37432F022D1
:100FF700900093E0120FA510A200104201103E02CC
:10100700104205104606104A07105608105A0910D4
:101017004E0A10520B10661F10732010813D108569
:101027003E108D3F10894010914110954210464364
:10103700104A440000109C7F01801A7F0280167FAF
:101047000380127F0B800E7F0E800A7F0F80067F42
:101057000C80027F0D12044AE4900093F0803C7FDD
:101067000512044A900092E07031800B7F0412044D
:101077004A900092E07024A3801E7F0580127F09AA
:10108700800E7F0A800A7F0680067F0780027F081E
:1010970012044A80069000937402F0900093E0D304
:1010A700943C4012900091E070079000937402F016
:0710B70022E4900091F022F9
:0C1ED000E4F555F556F553F554F5522293
:071F0D00E5556002155522A5
:10000E00E55445536008E554155470021553E556F2
:05001E006002155622EE
:0C1EDC00D295E4F553F554F556F552226A
:1013DD00900058E0640B7027C29020851C9000830C
:1013ED00E06408600EE064096009E0640A6004E0EE
:1013FD00B41006D2B7D2B68013C2B7D2B6800D9054
:10140D000058E0B41F0BD290D2B7C2B675550A8002
:10141D0008E5557004D2B7D2B6E5521460221460B7
:10142D002E24027034900058E075F00A8464046034
:10143D0009E075F00A84FFBF021F7556140552228C
:10144D00E5567015C29575530175542C055222E55C
:0A145D005445537004D29505522245
:08000300E4F51EF51CF51D22B9
:071F1400E51E6002151E220C
:101DC30090008AE0FFA3E090008CCFF0A3EFF0E453
:071DD30090008AF0A3F0224A
:10174400E51E7024751E0AE51C6002151C121EE8B5
:10175400121EAA121F1B121F22121F29121F30123F
:101764001F37121F3E12000EE51C701E751C0AE581
:101774001D6002151D121F06121EF2121F0D121DEE
:10178400C3121F0D121E8C121F45E51D7003751D1B
:101794000A90008BE004F0700690008AE004F022C6
:030023000210BE0A
:1010BE00C0E0C0F0C083C082C0D075D000C000C0F8
:1010CE0001C002C003C004C005C006C00730983975
:1010DE00C298900006E07031900004E0C394144072
:1010EE000EE4F0FE7F14FD7B017A0079088061909A
:1010FE000004E02408F582E43400F583E599F090CD
:10110E000004E004F0A37405F0309947C299D2961A
:10111E00900002E0FF900001E0FE6F601C741C2E38
:10112E00F582E43400F583E0F599900001E004F0D7
:10113E00C39414401EE4F0801A900003E4F0900073
:10114E0001F0A3F0C296FE7F14FD7B017A00791C9C
:10115E00120FCBD007D006D005D004D003D002D0CA
:0E116E0001D000D0D0D082D083D0F0D0E032BB
:101BD500900002E0241CF582E43400F583EFF090D8
:101BE5000002E004F0C394144002E4F0900003E026
:071BF500700404F0D29922F4
:101C48008B0A8A0B890CAB0AAA0BA90C120F256008
:101C580013050CE50C7002050B14F9120F25FF1281
:051C68001BD580E22203
:101B25007E007F087D007B017A007900120FCB7E55
:101B3500007F147D007B017A00791C120FCB7E009B
:101B45007F147D007B017A007908120FCBC29622A3
:040D30008F198D1A70
:100D3400E4F51BFE7F14FD7B017A007944120FCB8E
:100D4400E51924FD6003020E13E51A243F900044C4
:100D5400F0E53375F0648475F00A84E5F02430A37B
:100D6400F0E53375F00A8475F00A84E5F02430A3C5
:100D7400F0E53375F00A84E5F02430A3F0A3742C75
:100D8400F0AE3FAF407C277D10120F507C007D0AEF
:100D9400120F50AF05ED2430A3F0AE3FAF407C03FB
:100DA4007DE8120F507C007D0A120F50AF05ED2430
:100DB40030A3F0AE3FAF407C007D64120F507C0046
:100DC4007D0A120F50AF05ED2430A3F0AE3FAF40C3
:100DD4007C007D0A120F507C007D0A120F50AF0573
:100DE400ED2430A3F0AE3FAF407C007D0A120F50DB
:100DF400AF05ED2430A3F0A3742CF0900079E075D6
:100E0400F00A84E5F0243090004FF0A3742CF0E451
:100E1400F51B7444251BF582E43400F583E0FF12CE
:0B0E24001BD5051BE51BC3940F40E726
:010E2F0022A0
:041B55008F088D095F
:101B59007E007F147D007B017A007930120FCBE57E
:101B69000824D0700A900030E509F0A3F0A3F07BB7
:081B7900017A007930021C48DA
:10180400900005E07047900004E0D39400403E90BF
:1018140000067401F0900009E0FF900008E0B507AD
:101824001190000AE0FF900008E0B50705E0900081
:1018340084F07E007F147D007B017A007908120F0A
:10184400CBE4900004F0900006F0A304F0900007AD
:06185400E06002E4F02256
:101A2000E4F54EF550F54CF54DF54BF551F54F906D
:101A3000007FF0900081F090007BF090007DF090AE
:101A40000082F090007EF090007AF0900080F0909C
:081A5000007CF0900059F02227
:0D1EAA00E54D6002154DE54B6002154B2221
:071F1B00E55160021551229F
:071F2200E54F6002154F229C
:071F2900E54E6002154E2297
:071F3000E54C6002154C2294
:071F3700E550600215502285
:101CB50090007C2086057401F080037402F0208377
:101CC50007900059E04401F0208407900059E04452
:031CD50002F022F8
:101E3C0090007AE0D39F5008EFF0900080E004F01F
:011E4C002273
:10117C0090007EE014603114603F14606814607954
:10118C002404600302121A20B40520A2028030301D
:10119C00B40320A20B90007E7401F0754F0280778F
:1011AC009000727401F0806F30B40320A206E54FFA
:1011BC007065803DE4F54F804720B40B20A2089069
:1011CC00007E7404F0805020B405900072801120D1
:1011DC00A2089000727405F0803D754F1490007E4B
:1011EC007403F0803230B40930A206E54F702880C9
:1011FC000F90007E7402F0801E20B40330A207E42E
:10120C0090007EF080119000727406F08009E490DA
:10121C00007EF0900072F0900072E0B406037F4202
:04122C00227F0022FB
:101A5800900082E01460100470192093289000828E
:101A68007401F075511422309318E55170179000E5
:101A780082F0222093079000827401F022E4900003
:061A880082F0754D1422EE
:0A1EFC0090007DE0B40202E4F02241
:1012C20090007DE0146028146007146055240370B8
:1012D2006B20970D90007D7401F0754D05754B14D0
:1012E20022900089E06067E5577063F0021EFC30CF
:1012F2009717E54B6007E490007DF0800FE54D7095
:101302000B90007D7403F08003754D05900086E01C
:1013120064016004E0B403069000867402F075571D
:101322003C22900089E06003E014F090007D74029A
:10133200F0900086E0B402167403F0222097079022
:0F134200007D7401F022E490007DF0754D0522CE
:1018B00090007FE01460151460252402703B20B373
:1018C0003DE54E703C90007F7402F02230B308E496
:1018D00090007FF0754E0A121EFC7F0E021E3C2007
:1018E000A10DE5587009900089E004F075589690B4
:1018F000007F7401F075573C22E490007FF0754E34
:021900000A22B9
:1015F20030B35E209402805990007BE01460151491
:10160200601C2402705C20A05EE54C705D90007B43
:101612007402F02230A053E490007BF080499000E5
:101622007CE0B40109900084E0B4030780007F01EC
:10163200121E3C90007B7401F0E4900089F0F55892
:10164200F55790007CE0B4010E900084E0640360E2
:1016520006E490007BF022900086E0B4010C740452
:0B166200F022E490007BF0754C0A229F
:10190200900081E014602F1460122402703B209436
:101912003DE550703C9000817402F02220A10DE55B
:10192200587009900089E004F0755896900081740F
:1019320001F075573C22309408E4900081F0755014
:101942000A121EFC7F0D021E3CE4900081F07550CD
:021952000A2267
:101E6D0090008EE0B40108121EFC7F0B121E3C2266
:0D1EB70090008EE0B402057F02121E3C2256
:101D5E00900072E0B40314900083E0C39408400B2B
:0C1D6E00E0D3940E50057F0F121E3C22A3
:101C6D00900072E06405701B900083E06404600EC8
:101C7D00E064036009E064026004E0B401057F05DF
:041C8D00121E3C22C5
:101D1C0090007DE0B40119900072E06405601190B0
:101D2C000077E064046004E0B403057F08121E3CF5
:011D3C002284
:101B8100900072E06403702390007DE06402701B9A
:101B9100900089E0701590007CE0B4010990008408
:0C1BA100E0B4030780007F04121E3C2209
:101D3D00900082E0B40119900072E064056011908A
:101D4D000077E064046004E0B403057F09121E3CD3
:011D5D002263
:101DDA00900083E0B4100C900072E0B403057F1108
:041DEA00121E3C2267
:101DEE00900083E0B4060C900072E0B405057F0706
:041DFE00121E3C2253
:1017A400900083E0F46058E064FE605312117CEF13
:1017B40060057F42121DAC900089E0600830A105ED
:1017C400E4F0121EFC121A581212C21218B01219A6
:1017D40002121E6D121D1C121D3D121EB71215F2AF
:1017E400121B81121D5E121C6D121DDA121DEE9069
:1017F4000080E0700590007AF022E4900080F022EE
:040026004100790319
:1014670090005C7405F09000777401F090005DF0D7
:10147700900072F0E4900058F0F547F548F52FF525
:1014870030F531F532F539F53AF53BF53CF533FEF4
:101497007F0EFDFB7A007921120FCB7E007F037D43
:1014A700007B007A007936120FCB7E007F137D0018
:1014B7007B017A00795F120FCBE4F549F54AF534E1
:1014C700F535900075F0A3F0900078F090005EF08D
:1014D700900073F0A3F090005AF0A3F0C200121E20
:0814E7007D9000797403F022EE
:0F1E7D007E007F0A7D007B007A00793D020FCB4B
:0F1E8C00E53C453B6008E53C153C7002153B22E8
:101D9400E53A45396009E53A153A700B15392205DB
:081DA40048E5487002054722E2
:1019E200BF0A06E535241E8007BF121BE535241405
:1019F200F54AE43534F54990006EE0243CFEE433C8
:101A020090005AF0A3CEF0D390005BE0942C9000AB
:0E1A12005AE0940140077401F0A3742CF022F6
:101BFC00900059E08FF0A4F0E02DF0E075F0038434
:101C0C0025E0FFC3E5339F900078F0900059E0FF8A
:061C1C00C3E5339FF02236
:1006F100E4FBFAEF24FE60441470030208641470F2
:10070100030208A4240360030208B390006FE065AC
:100711003370030208B3E533F0AF30A3E0245FF593
:1007210082E43400F583EFF0900070E004F0E064BF
:100731000C60030208B37406F00208B390006D74F4
:10074100FFF0E4900070F0900070E0245FF582E427
:100751003400F583E02BFBE43AFA900070E0245F6B
:10076100F582E43400F583E0FF90006DE0FEEFC315
:100771009E5012900070E0245FF582E43400F5830E
:10078100E090006DF0900070E004F0E0B406B87CF9
:10079100007D06AF03AE02120F50AA06AB07900010
:1007A1006BEFF0E490006EF09000707406F0900032
:1007B10070E0245FF582E43400F583E02BFBE43A3A
:1007C100FA900070E0245FF582E43400F583E0FFE5
:1007D10090006EE0FEEFD39E4012900070E0245F27
:1007E100F582E43400F583E090006EF0900070E053
:1007F10004F0E0B40CB87C007D06AF03AE02120F2A
:100801005090006CEFF090006BE0D394144005E041
:100811009450400990006CE0D394DC403E90006E0F
:10082100E0D394BE4002803390006EE0D3949640B2
:10083100089000717404F0807990006EE0D3946E9A
:1008410040089000717403F0806890006EE0D394CA
:100851005A90007140087402F08057900071740141
:10086100F0804FE490006EF0900070F0900070E026
:10087100245FF582E43400F583E0FF90006EE0FE32
:10088100EFD39E4012900070E0245FF582E43400C3
:10089100F583E090006EF0900070E004F0E0B40C9D
:1008A100CB800F7E007F137D007B017A00795F1280
:0708B1000FCB900071E0FF86
:0108B800221D
:100E30008F088D098B0AE50864056003020EF9909E
:100E4000005CE065096003020F24900072E0650A0F
:100E50006003020F247F021206F1EF146015146084
:100E60000A14600B1470117F0A800A7F0880067FC5
:100E70000980027F0B121DACE533C39450502690BD
:100E8000005C740AF09000757402F0A37458F0E5E9
:100E90003545347005F5347535327F0A1219E27D17
:100EA0000F7F058051E533C39482502690005C7417
:100EB00012F09000757403F0A37484F0E5354534A6
:100EC0007005F53475351E7F121219E27D237F0AF5
:100ED000802490005C7412F09000757403F0A37489
:100EE00084F0E53545347005F5347535327F1212DE
:100EF00019E27D237F0A021BFC90005CE0C3950988
:100F00005022900072E0B50A0BE508B40706900085
:100F10005C7407F09000757404F0A374B0F0754928
:050F200001754A2C22BE
:101C2200E53A45397017D3E5489FE5479E400E9047
:101C3200005EE06005E014F080097F012290005E02
:061C42007402F07F002295
:1009F400E4FEEF24FE6061147003020AE81470033D
:100A0400020AF624036003020B0FE52D640B702920
:100A1400F531F532FE74212EF8E6D39532E49531A2
:100A2400400A74212EF8E6753100F5320EBE0AE54F
:100A340085322E752D0CAF2E22E52DC3940B501547
:100A4400E52C6533600F85332CAF30AE2D74212E29
:100A5400F8A607052DAF2E22E54AB42D0DE549B4BD
:100A6400010890005CE0FF1219E2E54A642C70046E
:100A7400E54964017003020B0FE538C39402501674
:100A8400E5359414E5349400400CAF35AE38743633
:100A94002EF8A6070538E53864027045AF36D3EF63
:100AA4009535E495344028AF37D3EF9535E4953444
:100AB400401DAF22AD21ED2FF532E433F531E531A0
:100AC400C313F531E53213F5328531348532357E81
:100AD400007F037D007B007A007936120FCB7F0103
:100AE400227F00227E007F0E7D007B007A00792128
:100AF4008016E490005AF0A3F0754901754A2DFE62
:0D0B04007F03FDFB7A007936120FCB7F00D6
:010B110022C1
:10002E00A2B2300001B35011A2B2920085472F85C3
:10003E004830E4F547F5480533900058E0120FA517
:10004E0000910000B001016002021103037B040065
:10005E00DD0B00F60C01260D018115019A1601B576
:10006E001701DD1801EF19024C1F026520028921CC
:10007E0003B42903CD2A03E52B04172C04292D00E4
:10008E00000449900072E0B405069000587404F024
:10009E00900072E0640360030204499000587402F9
:1000AE00F022121E7D754402121EDC7B057D097F37
:1000BE0008120E307F041206F1E4F533F539753A65
:1000CE0002900058740BF090005D7402020244E539
:1000DE003A45396003020449D2A3C287F539753A0D
:1000EE000A900058740CF022E53A45396003020478
:1000FE0049900075E0F53BA3E0F53C753903753A80
:10010E00E8900058740DF0900077E0B40402C2A598
:10011E009000777402020283E53A45397002D2A547
:10012E00E53C453B700A90007704F07F3E020426C2
:10013E00900074E0254AFF900073E03549CF2450BB
:10014E00CF3400FE121C22EF70030204497F2002FE
:10015E0004267B037D087F05120E30D2A5D2A7752B
:10016E003900753A029000587415F09000777403B8
:10017E000203AEE53A45396003020449D2A3C287B1
:10018E00F539753A0A9000587416F022E53A453959
:10019E006003020449D2A7C2A6C2A5F53B753C1E58
:1001AE009000587417F022E53C453B7015D2A5908F
:1001BE000072E0900058B403047419F0227418020F
:1001CE0003FD900072E064037003020449801A90EC
:1001DE000072E0B403069000587419F07F3F0204D9
:1001EE0026900072E06403600B9000777401F07F3C
:1001FE0010020443900077E0640160030204497426
:10020E0003F022121E7D754404121EDC7B037D0951
:10021E007F07120E307F031209F47F041206F1E4F9
:10022E00F533F539753A02900058741FF090007747
:10023E007404F090005DF0D2A7D2A6D2A522E53AC2
:10024E0045396003020449C2A3D287F539753A0ACB
:10025E009000587420F022E53A45396003020449B3
:10026E00900075E0F53BA3E0F53C753903753A2037
:10027E009000587421F0C2A7C2A62290005CE0D371
:10028E0094094058E533941A500C9000737401F0A1
:10029E00A3742CF0803E900078E0FFE533D39F40AE
:1002AE0009C2A57F011206F1802A900059E0FFE5F0
:1002BE0033D39F4018D2A77F011206F190005AE067
:1002CE00FFA3E0900073CFF0A3EFF08007E490005F
:1002DE0073F0A3F0E53A4539703C8030E533C394B2
:1002EE0014500C9000737401F0A3742CF08007E48A
:1002FE00900073F0A3F0E533D394284009D2A7C23F
:10030E00A57F011206F1E53A4539700A7F011209FF
:10031E00F47534008F35E53C453B700E9000770444
:10032E00F0D2A7D2A57F40020426900074E0254AA1
:10033E00FF900073E03549FE121C22EF7003020499
:10034E0049900083E0640670030204497F0A121E7E
:10035E003C7F20121DAC7F041209F4121EFC90008B
:10036E0086E0640160030204497405F0227F0312E3
:10037E0006F17F021209F4EF600890005CE0FF12B4
:10038E0019E27B057D077F05120E30D2A5D2A77527
:10039E003900753A029000587429F0900077740570
:1003AE00F090005DF022E53A45396003020449C23F
:1003BE00A3D287F539753A0A900058742AF022E5CF
:1003CE003A45397076D2A7C2A6C2A5F53B753C1444
:1003DE00900058742BF022E53C453B701AD2A59044
:1003EE000072E0900058B40504742DF022742CF0C5
:1003FE009000777401F022900072E06405603C90EA
:10040E0000777401F07F06802C900072E0B4050630
:10041E00900058742DF07F41021DAC900077E0B42F
:10042E0001037405F0900072E06405600E90007791
:0C043E007401F07F06121E3C121EDC222E
:101574000000000000000000000000000000000067
:10158400000000000000000403000000000001004F
:101594000102010000000000000000000000000043
:1015A4000000000200020003030303000000000027
:1015B400000000000000000000000000000400041F
:1015C400010101010101010000000000000000040C
:1015D4000000000000010101010000000000000003
:0E15E4000004000000000000000000020000F3
:101CD800C2AF759850758921758DFDD28ED2AC75BD
:101CE8008ACD758CF8D28CD2A9C2A8C2AAD2BCD28D
:021CF800AF2219
:101E0200E4F5C9F5C875CC3C75CDB0D2CAD2AFD213
:041E1200ADD2CA2261
:101CFA0090008374FFF0E4900085F0900087F090E4
:101D0A000084F0900088F0900086F0900089F0F549
:021D1A0058224D
:101E2A00EF75F0C8A4FFAEF0EF1F70011E144E70DC
:011E3A00F7B0
:011E3B002284
:0F1E9B00E55960021559900005E0600214F0222D
:071F3E00E55860021558226E
:071F4500E557600215572269
:101C9100121CD8121B25121E02121CFA121EC4128B
:101CA1001E5D121A20120003121467121ED0121E9A
:041CB1004D020B12C3
:10185A0090007AE0FF900083E0C39F504890007A9E
:10186A00E0FF900077E075F012A42474F582E43466
:10187A0015F583E5822FF582E43583F583E49390A9
:10188A000085F0E0601FE0900058F090007AE09048
:10189A000083F020A10FE064086004E0B40A069017
:0618AA000089E004F022B9
:1008B90090007CE06402703D900084E0146027148D
:1008C900600E14600B24FE60030470247F03801102
:1008D900E490007BF0754C0A90007DF0754D057F22
:1008E9000C121E3C800090005DE0FD7F30121B550C
:1008F900E4900084F090007CE0640160030209F355
:10090900900083E0F470030209F3E064FE700302CF
:1009190009F3E55960030209F375591490005DE084
:1009290024FE70030209E91470030209E924FE6038
:10093900060460030209E9900084E024FE6064145F
:10094900602714600D1460030209DCE4900086F04E
:10095900804D900086E0700204F0900086E0B402B9
:10096900047D02806C7D018068900086E07002043D
:10097900F090005DE0B404077D047F30121B5590B0
:100989000086E0B404047D04804B900086E0B40343
:100999000E7D047F30121B55E4900086F0803B7D6C
:1009A900018032900086E064026003121EFC900010
:1009B90086E0700204F090005DE0B404077F0C1239
:1009C9001E3C8016900086E0B403047D0480027DFD
:1009D9000180027D017F30121B55E4900084F022D2
:0B09E90090005DE0FD7F30121B5522E6
:101230001208B9900083E02402606114604314B482
:101240001200507890124BF82828730212B902123B
:10125000B90212B90212B90212B90212B60212B9D7
:101260000212B60212B90212B90212B90212B9027E
:1012700012B90212B90212B90212B60212B902125E
:10128000B6121CB520B30B20A00820A205751F1EA6
:101290008003751F0690008374FEF02220B3112096
:1012A000A00E20A20BE51F700790009004F08006AE
:1012B000E51F700D8007E4800402185AE490008353
:0212C000F0221A
:03000B0002195483
:10195400C0E0C0F0C083C082C0D075D000C000C059
:1019640001C002C003C004C005C006C007C28D7513
:101974008ACD758CF8121F14121D94121E9BD00769
:10198400D006D005D004D003D002D001D000D0D0EE
:09199400D082D083D0F0D0E03203
:10166D00E533C39401406D0540E5407002053FAE82
:10167D003FAF407C007D5A120F50ED4C7056E54443
:10168D0064027035E540645A453F7041E533D394AB
:10169D004A40089000797403F08032E533C3944AD0
:1016AD00500FE533C3944640089000797402F080E2
:1016BD001C9000797401F08014900079E064016051
:1016CD0007E533C3944B40057F08121E3CAD447FA4
:0516DD0003120D302294
:03002B0002199D1A
:10199D00C0E0C0F0C083C082C0D075D000C000C010
:1019AD0001C002C003C004C005C006C007C2CFC23B
:1019BD00CE75CCDC75CD0012166DD007D006D005D6
:1019CD00D004D003D002D001D000D0D0D082D083AB
:0519DD00D0F0D0E03263
:071E1600740129F9E43AFA16
:0D1E1D00E4F5E7F5E5F5E675E380F5E42270
:101AC100AD07AC0675E78175E5018CE3AF058FE4E1
:101AD10075E64675E6B900E5E2120F3E0DBD00015F
:101AE1000C121E16E51815187002151714451770FB
:021AF100D322FE
:101D7A00AD07AC0675E78175E5038CE3AF058FE423
:0A1D8A0075E64675E6B900021E1D5D
:101AF300AD07AC0675E78175E5028CE3AF058FE4AE
:101B0300120F25F5E275E64675E6B9000DBD000135
:101B13000C121E16E51515157002151414451470D4
:021B2300D322CB
:100B1200E4F508F509F5E19000937443F07B017A5E
:100B22000079307517007518087F007E20121AC1EF
:100B3200E4F50874302508F582E43400F583E0FF1B
:100B4200901F4CE493FEEFB5060205090508E5087F
:100B5200B408E0E509B408069000937401F090002F
:100B620093E064436003020C24F5087B027D007C61
:100B7200027F007E20121A8E7F0A121E2A7B027DBD
:100B8200AA7F007E201216E27F0A121E2A7B027DB5
:100B9200AA7F007E201214EF5002C2917F0A121E19
:100BA2002A7B027D007C027F007E20121A8E7F0A41
:100BB200121E2A7B027D557F007E201216E27F0ADA
:100BC200121E2A7B027D557F007E201214EF5002F6
:100BD200C2917F0A121E2A0508E508C39401408BC0
:100BE2003091377F007E20121D7AE4F508901F4C69
:100BF200E493FF74302508F582E43400F583EFF0C6
:100C02000508E508B408E67B017A0079307514001E
:100C12007515087F007E20021AF3D291900093741A
:020C220044F09C
:010C240022AD
:0A1A8E008E0A8F0B8C0C8D0D8B0E51
:101A9800E4F50FE50FC3950E501ED2A4AF0BAE0AA6
:101AA800121D7A7F0A121E2AE50D250BF50BE50C8F
:081AB800350AF50A050F80DB79
:011AC0002203
:0616E2008E0A8F0B8B0C39
:1016E800E4F50D7438250DF582E43400F583EDF04A
:1016F800050DE50DB408ECE4F50DE50DC3950C50AA
:101708003AE4F50E7B017A007938751400751508EE
:10171800AF0BAE0A121AF37408250BF50BE4350A61
:10172800F50A7F0A121E2A050EE50EC3944040D41E
:0B173800B2A47F1E121E2A050D80BF08
:011743002283
:0814EF008E0A8F0B8D0C8B0D92
:1014F700E4F510F511F50EE50EC3950D5056E4F51C
:101507000F7B017A007938751700751808AF0BAE95
:101517000A121AC17408250BF50BE4350AF50AE41B
:10152700FF74382FF582E43400F583E0B50C080525
:1015370011E511700205100FBF08E6B2A47F0A1269
:101547001E2A050FE50FC3944040B67F1E121E2AC0
:10155700050E80A3E50D25E0FEE424FFFFEE34FF32
:0D156700FEC3E5119FE5109E500122C32236
:10135D00021BADE493A3F8E493A34003F68001F2DE
:10136D0008DFF48029E493A3F85407240CC8C33391
:10137D00C4540F4420C8834004F456800146F6DF60
:10138D00E4800B0102040810204080900026E47ECA
:10139D00019360BCA3FF543F30E509541FFEE49355
:1013AD00A360010ECF54C025E060A840B8E493A31C
:1013BD00FAE493A3F8E493A3C8C582C8CAC583CA47
:1013CD00F0A3C8C582C8CAC583CADFE9DEE780BEFF
:01002A0000D5
:100F2500BB010689828A83E0225002E722BBFE02CA
:090F3500E32289828A83E49322FD
:100F3E00BB010689828A83F0225002F722BBFE0192
:020F4E00F3228C
:100F5000BC000BBE0029EF8DF084FFADF022E4CC85
:100F6000F875F008EF2FFFEE33FEEC33FCEE9DEC4E
:100F7000984005FCEE9DFE0FD5F0E9E4CEFD22ED94
:100F8000F8F5F0EE8420D21CFEADF075F008EF2FDE
:100F9000FFED33FD4007985006D5F0F222C398FDCF
:050FA0000FD5F0EA226C
:100FA500D083D082F8E4937012740193700DA3A3DB
:100FB50093F8740193F5828883E4737402936860EF
:060FC500EFA3A3A380DFEF
:100FCB00EF4E6012EF60010EEDBB010B89828A833D
:100FDB00F0A3DFFCDEFA2289F05007F709DFFCA94A
:0C0FEB00F022BBFEFCF309DFFCA9F022A1
:00000001FF
