:0300000002155A8C
:0C155A00787FE4F6D8FD7581560215A1DB
:101EE700E4900078F0F555900077F0900076F022B6
:071FA000E555600215552212
:100E8800900078E07003020F9224FE601C14602327
:100E980014603314604724046003020F8790006FC6
:100EA800E06003020F92020F5FE5556003020F92A4
:100EB800020F4D90006FE06003020F92755523906A
:100EC80000787404F022E5556003020F927F021245
:100ED8001ED6900077E004F0A37405F02290007706
:100EE800E024FE601224FE6022240324FB5062608A
:100EF8003814606D020F7E900050E01313543FFFCA
:100F0800E533D39F5003020F92803A900050E013CC
:100F180013543F75F002A4FFAD33D3ED9FE5F064A1
:100F280080F87480984063801C900050E01313543C
:100F38003F75F003A4FFAD33D3ED9FE5F06480F86F
:100F480074809840457F0B121ED69000787403F089
:100F58002290006FE070337555239000787402F08A
:100F68002290006FE070237555239000787402F08A
:100F7800E4900077F0229000787402F0E48005E4B1
:0B0F8800900078F0900077F0F5552203
:071FF2000A03091303015B60
:101C5D00121DED12195312184712143912002612C3
:101C6D0009F212116C90007CE0FF1204481213A5CA
:0B1C7D001218A7120E8875E13F80D8F6
:0A1F8200E556D3940A4002155622DA
:0C1F5E0090007C7401F0E4F556D2912252
:1004480090007CE06F6005EFF0E4F55690007CE0EA
:1004580014B40F0040030206E590046F75F003A47E
:10046800C58325F0C5837302049C0204A20204B666
:100478000205C00205DB0205F202061702064E025B
:1004880006730206A30205880204D80204FA0205CC
:100498002A020567E4F556D29122E556600A24F649
:1004A80060030206EE0205AF755610C29122E556AA
:1004B800601824F6601124FA600A24FA6003020620
:1004C800EED29122C291220205AF75561CC291222A
:1004D800E556601824F6601124F6600A24F66003D5
:1004E8000206EED29122C291220205AF755682C24F
:1004F8009122E556602624F6601F24F6601824F63B
:10050800601124F6600A24F660030206EED29122F6
:10051800C29122D29122C291220205AF755696C28B
:100528009122E556603324F6602D24F6602624F6E1
:10053800601F24F6601824F6601124F6600A24F679
:1005480060030206EED29122C29122D29122C29178
:1005580022D29122C29122804E7556AAC29122E5DA
:1005680056601724F66011249C600A24F460030284
:1005780006EED29122C29122802D7556DEC29122BA
:10058800E556602E24F6601F24FA601824FA6011DC
:1005980024FA600A24FA60030206EED29122C2917C
:1005A80022D29122C29122E4F55690007C04F0D226
:1005B8009122755628C29122E556601114600E24C6
:1005C800F7600A24FA60030206EED29122755616E5
:1005D800C29122E556601114600E24F7600A244780
:1005E80060030206EED291228056E556601F146021
:1005F8001C24F76018244E601124FC600A24FC6057
:10060800030206EED29122C29122D291228031E5D4
:1006180056602D14602A24F760262456601F24FC97
:10062800601824FC601124FC600A24FC60030206A4
:10063800EED29122C29122D29122C29122D291224B
:100648007556C8C29122E556601F14601C24F760D5
:1006580018246F601124FB600A24EC60030206EE84
:10066800D29122C29122D29122806CE556602A143E
:10067800602724F760232479601C24FB601524FB81
:10068800600E24FB600724EC705CD29122C2912298
:10069800D29122C29122D29122803CE55612111A9F
:1006A80006DF0006DF0106DF0A06DC8706D98C06AE
:1006B800D69106D39606D09B06CDA006CAB40000F4
:1006C80006EED29122C29122D29122C29122D291D7
:1006D80022C29122D291227556FAC2912290007CB0
:0706E8007401F0E4F5562255
:101EF70090007B7401F0E490007AF0900079F02272
:0A1F8C0090007AE06003E014F022F8
:101E5C0090007BE0FEEFC39E400CEFF0900079E029
:071E6C0004F0A37432F02220
:10116C0090007BE012111A12170011B70111B30293
:10117C0011B70511BB0611BF0711CB0811CF09110F
:10118C00C30A11C70B11DB1F11E82011F63D11FA30
:10119C003E12023F11FE40120641120A4211BB439D
:1011AC0011BF44000012117F01801A7F0280167F4C
:1011BC000380127F0B800E7F0E800A7F0F80067FCC
:1011CC000C80027F0D120448E490007BF0803C7F81
:1011DC000512044890007AE07031800B7F041204F1
:1011EC004890007AE07024A3801E7F0580127F094E
:1011FC00800E7F0A800A7F0680067F0780027F08A8
:10120C00120448800690007B7402F090007BE0D3BF
:10121C00943C4012900079E0700790007B7402F0CF
:07122C0022E4900079F0229A
:0C1F6A00E4F54DF54EF54BF54CF54A2220
:071FA700E54D6002154D221B
:10000E00E54C454B6008E54C154C7002154BE54E22
:05001E006002154E22F6
:0C1F7600D295E4F54BF54CF54EF54A22EF
:1013A500900030E0640B7027C29020851C90006F80
:1013B500E06408600EE064096009E0640A6004E026
:1013C500B41006D2B7D2B68013C2B7D2B6800D908C
:1013D5000030E0B41F0BD290D2B7C2B6754D0A806B
:1013E50012E54D700EE5456006C2B7C2B68004D25F
:1013F500B7D2B6E54A14602214602E2402703490E8
:101405000030E075F00A8464046009E075F00A8430
:10141500FFBF021F754E14054A22E54E7015C29591
:10142500754B01754C2C054A22E54C454B7004D291
:0414350095054A22AD
:08000300E4F551F54FF5502220
:071FAE00E55160021551220C
:10195300E551702775510AE54F6002154F121F823A
:10196300121F44121FB5121FBC121FC3121FCA122B
:101973001FD1121FDF12000E121FD8E54F701B7507
:101983004F0AE55060021550121FA0121F8C121F40
:10199300A7121FA7121F26121FE6E55070037550EA
:0219A3000A2216
:0300230002123393
:10123300C0E0C0F0C083C082C0D075D000C000C081
:1012430001C002C003C004C005C006C007309839FE
:10125300C298900006E07031900004E0C3941440FB
:101263000EE4F0FE7F14FD7B017A00790880619023
:101273000004E02408F582E43400F583E599F09056
:101283000004E004F0A37405F0309947C299D296A4
:10129300900002E0FF900001E0FE6F601C741C2EC2
:1012A300F582E43400F583E0F599900001E004F061
:1012B300C39414401EE4F0801A900003E4F09000FD
:1012C30001F0A3F0C296FE7F14FD7B017A00791C26
:1012D300121140D007D006D005D004D003D002D0DD
:0E12E30001D000D0D0D082D083D0F0D0E03245
:101C8800900002E0241CF582E43400F583EFF09024
:101C98000002E004F0C394144002E4F0900003E072
:071CA800700404F0D2992240
:101CFB008B0A8A0B890CAB0AAA0BA90C12108860F1
:101D0B0013050CE50C7002050B14F9121088FF1269
:051D1B001C8880E2229B
:101BD5007E007F087D007B017A0079001211407E2E
:101BE500007F147D007B017A00791C1211407E0074
:101BF5007F147D007B017A007908121140C296227C
:040B28008F088D099C
:100B2C00E4F50AFE7F14FD7B017A00795212114024
:100B3C00E50824FD6003020C29E509243F900052CE
:100B4C00F0E53375F0648475F00A84E5F02430A385
:100B5C00F0E53375F00A8475F00A84E5F02430A3CF
:100B6C00F0E53375F00A84E5F02430A3F0A3742C7F
:100B7C00F0E54475F0648475F00A84E5F02430A344
:100B8C00F0E54475F00A8475F00A84E5F02430A38E
:100B9C00F0E54475F00A84E5F02430A3F0A3742C3E
:100BAC00F0E54375F00A84E5F02430A3F0A3742C2F
:100BBC00F0E53F75F0648475F00A84E5F02430A309
:100BCC00F0E53F75F00A8475F00A84E5F02430A353
:100BDC00F0E53F75F00A84E5F02430A3F0A3742C03
:100BEC00F0E54075F00A8475F00A84E5F02430A332
:100BFC00F0E54075F00A84E5F02430A3F0A3742CE2
:100C0C00F0E53D75F00A8475F00A84E5F02430A314
:100C1C00F0E53D75F00A84E5F02430A3F0E4F50A24
:100C2C007B017A007952121E73C3E50A9FEE648031
:100C3C00F874809850147452250AF582E43400F547
:0A0C4C0083E0FF121C88050A80D621
:010C5600227B
:041C05008F088D09AE
:101C09007E007F147D007B017A007952121140E534
:101C19000824D0700A900052E509F0A3F0A3F07BE4
:081C2900017A007952021CFB54
:1018A700900005E07047900004E0D39400403E901C
:1018B70000067401F0900009E0FF900008E0B5070A
:1018C7001190000AE0FF900008E0B50705E09000DE
:1018D70070F07E007F147D007B017A007908121179
:1018E70040E4900004F0900006F0A304F090000795
:0618F700E06002E4F022B3
:101AD000E4F51CF51EF51AF51BF519F51FF51D901B
:101AE000006BF090006DF0900067F0900069F0904E
:101AF000006EF090006AF0900066F090006CF0903C
:081B00000068F0900031F022B2
:0D1F4400E51B6002151BE51960021519224E
:071FB500E51F6002151F2269
:071FBC00E51D6002151D2266
:071FC300E51C6002151C2261
:071FCA00E51A6002151A225E
:071FD100E51E6002151E224F
:101D44009000682086057401F080037402F02083FB
:101D540007900031E04401F0208407900031E04412
:031D640002F02268
:101ED600900066E0D39F5008EFF090006CE004F0AD
:011EE60022D9
:1012F10090006AE014603114603F146068146079F2
:101301002404600302138F20B40520A20280303030
:10131100B40320A20B90006A7401F0751D0280775E
:1013210090004A7401F0806F30B40320A206E51DDD
:101331007065803DE4F51D804720B40B20A2089024
:10134100006A7404F0805020B40590004A80112096
:10135100A20890004A7405F0803D751D1490006A42
:101361007403F0803230B40930A206E51D70288084
:101371000F90006A7402F0801E20B40330A207E4CB
:1013810090006AF0801190004A7406F08009E490A0
:10139100006AF090004AF090004AE0B406037F42F0
:0413A100227F002285
:101B080090006EE014601004701920932890006E05
:101B18007401F0751F1422309318E51F7017900098
:101B28006EF02220930790006E7401F022E490007A
:061B38006EF0751B142283
:0A1F9600900069E0B40202E4F022BA
:1014CB00900069E0146028146007146055240370C1
:1014DB006B20970D9000697401F0751B057519143D
:1014EB0022900075E06067E5527063F0021F963042
:1014FB009717E5196007E4900069F0800FE51B7002
:10150B000B9000697403F08003751B05900072E06B
:10151B0064016004E0B403069000727402F075522B
:10152B003C22900075E06003E014F09000697402B7
:10153B00F0900072E0B402167403F022209707902B
:0F154B0000697401F022E4900069F0751B05221D
:1019A50090006BE01460151460252402703B20B391
:1019B5003DE51C703C90006B7402F02230B308E4E6
:1019C50090006BF0751C0A121F967F0E021ED62022
:1019D500A10DE5537009900075E004F075539690DC
:1019E500006B7401F075523C22E490006BF0751C9D
:0219F5000A22C4
:10176A0030B35E2094028059900067E0146015142B
:10177A00601C2402705C20A05EE51A705D90006710
:10178A007402F02230A053E4900067F08049900080
:10179A0068E0B40109900070E0B4030780007F019B
:1017AA00121ED69000677401F0E4900075F0F553AC
:1017BA00F552900068E0B4010E900070E064036096
:1017CA0006E4900067F022900072E0B4010C740401
:0B17DA00F022E4900067F0751A0A226C
:1019F70090006DE014602F1460122402703B209455
:101A07003DE51E703C90006D7402F02220A10DE5AB
:101A1700537009900075E004F075539690006D744B
:101A270001F075523C22309408E490006DF0751E69
:101A37000A121F967F0D021ED6E490006DF0751EE8
:021A47000A2271
:101F0700900076E0B40108121F967F0B121ED622AE
:0D1F5100900076E0B402057F02121ED62239
:101E0E0090004AE0B4031490006FE0C39408400BB6
:0C1E1E00E0D3940E50057F0F121ED62258
:101D200090004AE06405701B90006FE06404600E50
:101D3000E064036009E064026004E0B401057F052B
:041D4000121ED62277
:101DAB00900069E0B4011990004AE064056011905D
:101DBB00004FE064046004E0B403057F08121ED6F4
:011DCB0022F5
:101C310090004AE064037023900069E06402701B25
:101C4100900075E07015900068E0B4010990007093
:0C1C5100E0B4030780007F04121ED622BE
:101DCC0090006EE0B4011990004AE0640560119037
:101DDC00004FE064046004E0B403057F09121ED6D2
:011DEC0022D4
:101E880090006FE0B4100C90004AE0B403057F1195
:041E9800121ED6221E
:101E9C0090006FE0B4060C90004AE0B405057F0793
:041EAC00121ED6220A
:1018470090006FE0F46058E064FE60531212F1EF0D
:1018570060057F42121E5C900075E0600830A105AC
:10186700E4F0121F96121B081214CB1219A51219B5
:10187700F7121F07121DAB121DCC121F5112176A48
:10188700121C31121E0E121D20121E88121E9C9051
:10189700006CE07005900066F022E490006CF02286
:041FED00410051035B
:10166B009000347405F090004F7401F0900035F049
:10167B0090004AF0E4900030F0F546F547F52FF571
:10168B0030F531F532F539F53AF53BF53CF533FEEE
:10169B007F0EFDFB7A0079211211407E007F037DC6
:1016AB00007B007A0079361211407E007F137D009B
:1016BB007B017A007937121140E4F548F549F5348E
:1016CB00F53590004DF0A3F0900050F0900036F0FF
:1016DB0090004BF0A3F0900032F0A3F0C200021F79
:0116EB0017E7
:0F1F17007E007F097D007B007A00793D0211403A
:0F1F2600E53C453B6008E53C153C7002153B224D
:101E4400E53A45396009E53A153A700B153922052A
:081E540047E547700205462234
:101A9200BF0A06E535241E8007BF121BE535241454
:101AA200F549E43534F548900046E0243CFEE43341
:101AB200900032F0A3CEF0D3900033E0942C90004B
:0E1AC20032E0940140077401F0A3742CF0226E
:101CAF00900031E08FF0A4F0E02DF0E075F00384A8
:101CBF0025E0FFC3E5339F900050F0900031E0FF27
:061CCF00C3E5339FF02283
:1006EF00E4FBFAEF24FE60441470030208621470F6
:1006FF00030208A2240360030208B1900047E065DB
:10070F003370030208B1E533F0AF30A3E02437F5BF
:10071F0082E43400F583EFF0900048E004F0E064E9
:10072F000C60030208B17406F00208B19000457422
:10073F00FFF0E4900048F0900048E02437F582E4A1
:10074F003400F583E02BFBE43AFA900048E02437BD
:10075F00F582E43400F583E0FF900045E0FEEFC33F
:10076F009E5012900048E02437F582E43400F58360
:10077F00E0900045F0900048E004F0E0B406B87C4B
:10078F00007D06AF03AE021210C5AA06AB0790009C
:10079F0043EFF0E4900046F09000487406F09000AC
:1007AF0048E02437F582E43400F583E02BFBE43A8C
:1007BF00FA900048E02437F582E43400F583E0FF37
:1007CF00900046E0FEEFD39E4012900048E02437A1
:1007DF00F582E43400F583E0900046F0900048E0A5
:1007EF0004F0E0B40CB87C007D06AF03AE0212102B
:1007FF00C5900044EFF0900043E0D394144005E01F
:10080F0094504009900044E0D394DC403E90004661
:10081F00E0D394BE40028033900046E0D3949640DC
:10082F00089000497404F08079900046E0D3946EEC
:10083F0040089000497403F08068900046E0D3941C
:10084F005A90004940087402F08057900049740193
:10085F00F0804FE4900046F0900048F0900048E0A0
:10086F002437F582E43400F583E0FF900046E0FE84
:10087F00EFD39E4012900048E02437F582E4340015
:10088F00F583E0900046F0900048E004F0E0B40CEF
:10089F00CB800F7E007F137D007B017A00793712AA
:0708AF001140900049E0FF39
:0108B600221F
:100F93008F088D098B0AE5086405600302105C90D5
:100FA3000034E06509600302108790004AE0650A97
:100FB30060030210877F021206EFEF1460151460BE
:100FC3000A14600B1470117F0A800A7F0880067F61
:100FD3000980027F0B121E5CE533C39450502690A8
:100FE3000034740AF090004D7402F0A37458F0E5D5
:100FF3003545347005F5347535327F0A121A927D02
:101003000F7F058051E533C39482502690003474DA
:1010130012F090004D7403F0A37484F0E535453469
:101023007005F53475351E7F12121A927D237F0ADF
:1010330080249000347412F090004D7403F0A37474
:1010430084F0E53545347005F5347535327F121279
:101053001A927D237F0A021CAF900034E0C39509E6
:10106300502290004AE0B50A0BE508B40706900049
:10107300347407F090004D7404F0A374B0F0754815
:051083000175492C225B
:101CD500E53A45397017D3E5479FE5469E400E9096
:101CE5000036E06005E014F080097F01229000369F
:061CF5007402F07F0022E2
:100C5700E4FEEF24FE6061147003020D4B14700371
:100C6700020D5924036003020D72E52D640B7029F0
:100C7700F531F532FE74212EF8E6D39532E495313D
:100C8700400A74212EF8E6753100F5320EBE0AE5EA
:100C970085322E752D0CAF2E22E52DC3940B5015E2
:100CA700E52C6533600F85332CAF30AE2D74212EC4
:100CB700F8A607052DAF2E22E549B42D0DE548B45A
:100CC7000108900034E0FF121A92E549642C700481
:100CD700E54864017003020D72E538C394025016AB
:100CE700E5359414E5349400400CAF35AE387436CE
:100CF7002EF8A6070538E53864027045AF36D3EFFE
:100D07009535E495344028AF37D3EF9535E49534DE
:100D1700401DAF22AD21ED2FF532E433F531E5313A
:100D2700C313F531E53213F5328531348532357E1B
:100D3700007F037D007B007A0079361211407F0126
:100D4700227F00227E007F0E7D007B007A007921C2
:100D57008016E4900032F0A3F075480175492DFE26
:0D0D67007F03FDFB7A0079361211407F00FA
:010D7400225C
:10002600A2B2300001B35011A2B2920085462F85CC
:100036004730E4F546F5470533900030E012111AD3
:1000460000890000A801015B02020C030379040089
:10005600D80B00F10C01210D017C1501951601B09C
:100066001701D81801EA19024A1F026320028721E4
:1000760003B22903CB2A03E32B04152C04272D00F6
:1000860000044790004AE0B405069000307404F07E
:1000960090004AE064036003020447900030740253
:1000A600F022121F17754101754202121F767B0559
:1000B6007D097F08120F937F041206EFE4F533F5EE
:1000C60039753A02900030740BF0900035740202D4
:1000D6000242E53A45396003020447D2A3C287F5D6
:1000E60039753A0A900030740CF022E53A453960C9
:1000F6000302044790004DE0F53BA3E0F53C75395B
:1001060003753AE8900030740DF090004FE0B404A7
:1001160002C2A590004F7402020281E53A45397089
:1001260002D2A5E53C453B700A90004F04F07F3EA5
:1001360002042490004CE02549FF90004BE035482E
:10014600CF2450CF3400FE121CD5EF7003020447B3
:100156007F200204247B037D087F05120F93D2A51E
:10016600D2A7753900753A029000307415F09000E8
:100176004F74030203ACE53A45396003020447D2E3
:10018600A3C287F539753A0A9000307416F022E555
:100196003A45396003020447D2A7C2A6C2A5F53B79
:1001A600753C1E9000307417F022E53C453B7015F7
:1001B600D2A590004AE0900030B403047419F022EE
:1001C60074180203FB90004AE064037003020447BC
:1001D600801A90004AE0B403069000307419F07F4C
:1001E6003F02042490004AE06403600B90004F74C1
:1001F60001F07F1002044190004FE06401600302A9
:1002060004477403F022121F17E4F54175420412E5
:100216001F767B037D097F07120F937F03120C570E
:100226007F041206EFE4F533F539753A0290003093
:10023600741FF090004F7404F0900035F0D2A7D2EE
:10024600A6D2A522E53A45396003020447C2A3D2E5
:1002560087F539753A0A9000307420F022E53A4560
:1002660039600302044790004DE0F53BA3E0F53CFE
:10027600753903753A209000307421F0C2A7C2A6E2
:1002860022900034E0D394094058E533941A500C78
:1002960090004B7401F0A3742CF0803E900050E067
:1002A600FFE533D39F4009C2A57F011206EF802ADE
:1002B600900031E0FFE533D39F4018D2A77F0112AB
:1002C60006EF900032E0FFA3E090004BCFF0A3EFE3
:1002D600F08007E490004BF0A3F0E53A4539703C16
:1002E6008030E533C39414500C90004B7401F0A396
:1002F600742CF08007E490004BF0A3F0E533D39420
:10030600284009D2A7C2A57F011206EFE53A453972
:10031600700A7F01120C577534008F35E53C453B5A
:10032600700E90004F04F0D2A7D2A57F400204249D
:1003360090004CE02549FF90004BE03548FE121C2A
:10034600D5EF700302044790006FE0640670030265
:1003560004477F0A121ED67F20121E5C7F04120CF1
:1003660057121F96900072E06401600302044774FE
:1003760005F0227F031206EF7F02120C57EF60088A
:10038600900034E0FF121A927B057D077F05120F5D
:1003960093D2A5D2A7753900753A02900030742918
:1003A600F090004F7405F0900035F022E53A45399B
:1003B6006003020447C2A3D287F539753A0A900052
:1003C60030742AF022E53A45397076D2A7C2A6C221
:1003D600A5F53B753C14900030742BF022E53C45A6
:1003E6003B701AD2A590004AE0900030B405047420
:1003F6002DF022742CF090004F7401F02290004AE8
:10040600E06405603C90004F7401F07F06802C90FC
:10041600004AE0B40506900030742DF07F41021EBC
:100426005C90004FE0B401037405F090004AE0646C
:1004360005600E90004F7401F07F06121ED6121F43
:0204460076221C
:071FD800E53E6002153E2208
:1009F200E53E6003020B27E5416003020B27E54257
:100A020064046003020B27053FE53FC394235003B0
:100A1200020B24E53F75F00584E5F06003020B2428
:100A2200E53FC3944B4003020B24E540700385333A
:100A3200440540AF40EF2401FFE433FE7C007D0615
:100A42001210B3AD44EF2DFFEC3EFEAD33D3ED9F5C
:100A5200EE6480F874809840167545017F08121E76
:100A6200D67D197F03120B287F0B121E5C805CAFB0
:100A720040EF75F006A4AD447C002DFFEC35F0FE8E
:100A8200AD33D3ED9FEE6480F87480984004054343
:100A92008039AF40EF24FFFFE434FFFE7C007D0687
:100AA2001210B3AD44EF2DFFEC3EFEAD33D3ED9FFC
:100AB200EE6480F87480984012E5401475F006A444
:100AC2002544FFC3E5339F253DF53DE543C394022D
:100AD2005006E53D941C40147545017F08121ED650
:100AE2007D057F03120B287F0B121E5CE53DC3942C
:100AF2000B4020E54075F006A4254424FEFFE533B3
:100B0200D39F400F7545017D037F03120B287F0899
:100B1200121E5CE540B40803754101AD427F031229
:060B22000B28753E0522C0
:1016EC0000000000000000000000000000000000EE
:1016FC0000000000000000040300000000000100D6
:10170C0001020100000000000000000000000000C9
:10171C0000000002000200030303030000000000AD
:10172C0000000000000000000000000000040004A5
:10173C000101010101010100000000000000000492
:10174C000000000000010101010000000000000089
:0E175C00000400000000000000000002000079
:101D6700C2AF759850758921758DFDD28ED2AC752D
:101D77008ACD758CF8D28CD2A9C2A8C2AAD2BCD2FD
:021D8700AF2289
:101D890090006F74FFF0E4900071F0900073F09090
:101D99000070F0900074F0900072F0900075F0F50A
:021DA9005322C3
:101EC400EF75F0C8A4FFAEF0EF1F70011E144E7042
:011ED400F716
:011ED50022EA
:0F1F3500E55460021554900005E0600214F0229C
:071FDF00E5536002155322D7
:071FE600E5526002155222D2
:101DED00121D67121BD5121D89121F5E121EF712CE
:101DFD001AD012000312166B121F6A121EE7020D83
:011E0D00755F
:1018FD00900066E0FF90006FE0C39F504890006637
:10190D00E0FF90004FE075F012A424ECF582E43472
:10191D0016F583E5822FF582E43583F583E4939004
:10192D000071F0E0601FE0900030F0900066E090F4
:10193D00006FF020A10FE064086004E0B40A069087
:06194D000075E004F02229
:1008B700900068E06402703D900070E014602714B7
:1008C700600E14600B24FE60030470247F03801104
:1008D700E4900067F0751A0A900069F0751B057FB0
:1008E7000C121ED68000900035E0FD7F30121C05EB
:1008F700E4900070F0900068E0640160030209F181
:1009070090006FE0F470030209F1E064FE700302E7
:1009170009F1E55460030209F1755414900035E0BC
:1009270024FE70030209E71470030209E724FE603E
:10093700060460030209E7900070E024FE60641477
:10094700602714600D1460030209DAE4900072F066
:10095700804D900072E0700204F0900072E0B402E3
:10096700047D02806C7D018068900072E070020453
:10097700F0900035E0B404077D047F30121C059029
:100987000072E0B404047D04804B900072E0B4036D
:100997000E7D047F30121C05E4900072F0803B7DD1
:1009A700018032900072E064026003121F9690008B
:1009B70072E0700204F0900035E0B404077F0C1277
:1009C7001ED68016900072E0B403047D0480027D79
:1009D7000180027D017F30121C05E4900070F02237
:0B09E700900035E0FD7F30121C05225F
:101439001208B790006FE02402606114604314B48D
:1014490012005078901454F82828730214C2021418
:10145900C20214C20214C20214C20214BF0214C28C
:101469000214BF0214C20214C20214C20214C2023C
:1014790014C20214C20214C20214BF0214C202141A
:10148900BF121D4420B30B20A00820A20575551ECC
:10149900800375550690006F74FEF02220B3112069
:1014A900A00E20A20BE555700790007804F0800685
:1014B900E555700D8007E480040218FDE490006F83
:0214C900F0220F
:03000B00021A498D
:101A4900C0E0C0F0C083C082C0D075D000C000C063
:101A590001C002C003C004C005C006C007C28D751D
:101A69008ACD758CF8121FAE121E44121F35D0078D
:101A7900D006D005D004D003D002D001D000D0D0F8
:091A8900D082D083D0F0D0E0320D
:071EB000740129F9E43AFA7C
:0D1EB700E4F5E7F5E5F5E675E380F5E422D6
:101B7100AD07AC0675E78175E5018CE3AF058FE430
:101B810075E64675E6B900E5E21210A10DBD00014A
:101B91000C121EB0E51815187002151714451770B0
:021BA100D3224D
:101E2A00AD07AC0675E78175E5038CE3AF058FE472
:0A1E3A0075E64675E6B900021EB712
:101BA300AD07AC0675E78175E5028CE3AF058FE4FD
:101BB300121088F5E275E64675E6B9000DBD000121
:101BC3000C121EB0E515151570021514144514708A
:021BD300D3221B
:100D7500E4F508F509F5E190007B7443F07B017A11
:100D85000079527517007518087F007E20121B71B7
:100D9500E4F50874522508F582E43400F583E0FF94
:100DA500901FF2E493FEEFB5060205090508E50874
:100DB500B408E0E509B4080690007B7401F09000E2
:100DC5007BE064436003020E87F5087B027D007CAF
:100DD500027F007E20121B3E7F0A121EC47B027D0D
:100DE500AA7F007E201217E57F0A121EC47B027DB2
:100DF500AA7F007E201215E65002C2917F0A121EBC
:100E0500C47B027D007C027F007E20121B3E7F0A90
:100E1500121EC47B027D557F007E201217E57F0AD6
:100E2500121EC47B027D557F007E201215E65002FE
:100E3500C2917F0A121EC40508E508C39401408BC0
:100E45003091377F007E20121E2AE4F508901FF2AC
:100E5500E493FF74522508F582E43400F583EFF03E
:100E65000508E508B408E67B017A00795275140097
:100E75007515087F007E20021BA3D29190007B741C
:020E850044F037
:010E87002248
:0A1B3E008E0A8F0B8C0C8D0D8B0EA0
:101B4800E4F50FE50FC3950E501ED2A4AF0BAE0AF5
:101B5800121E2A7F0A121EC4E50D250BF50BE50C93
:081B6800350AF50A050F80DBC8
:011B70002252
:0617E5008E0A8F0B8B0C35
:1017EB00E4F50D745A250DF582E43400F583EDF024
:1017FB00050DE50DB408ECE4F50DE50DC3950C50A6
:10180B003AE4F50E7B017A00795A751400751508C8
:10181B00AF0BAE0A121BA37408250BF50BE4350AAC
:10182B00F50A7F0A121EC4050EE50EC3944040D480
:0B183B00B2A47F1E121EC4050D80BF6A
:01184600227F
:0815E6008E0A8F0B8D0C8B0D9A
:1015EE00E4F510F511F50EE50EC3950D5056E4F524
:1015FE000F7B017A00795A751700751808AF0BAE7C
:10160E000A121B717408250BF50BE4350AF50AE472
:10161E00FF745A2FF582E43400F583E0B50C08050B
:10162E0011E511700205100FBF08E6B2A47F0A1271
:10163E001EC4050FE50FC3944040B67F1E121EC494
:10164E00050E80A3E50D25E0FEE424FFFFEE34FF3A
:0D165E00FEC3E5119FE5109E500122C3223E
:10156600021C5DE493A3F8E493A34003F68001F222
:1015760008DFF48029E493A3F85407240CC8C33386
:10158600C4540F4420C8834004F456800146F6DF55
:10159600E4800B0102040810204080901FEDE47ED9
:1015A600019360BCA3FF543F30E509541FFEE4934A
:1015B600A360010ECF54C025E060A840B8E493A311
:1015C600FAE493A3F8E493A3C8C582C8CAC583CA3C
:1015D600F0A3C8C582C8CAC583CADFE9DEE780BEF4
:011FF10000EF
:10108800BB010689828A83E0225002E722BBFE0266
:09109800E32289828A83E4932299
:1010A100BB010689828A83F0225002F722BBFE012E
:0210B100F32228
:1010B300EF8DF0A4A8F0CF8CF0A428CE8DF0A42E51
:0210C300FE220B
:1010C500BC000BBE0029EF8DF084FFADF022E4CC0F
:1010D500F875F008EF2FFFEE33FEEC33FCEE9DECD8
:1010E500984005FCEE9DFE0FD5F0E9E4CEFD22ED1E
:1010F500F8F5F0EE8420D21CFEADF075F008EF2F68
:10110500FFED33FD4007985006D5F0F222C398FD58
:051115000FD5F0EA22F5
:10111A00D083D082F8E4937012740193700DA3A364
:10112A0093F8740193F5828883E473740293686078
:06113A00EFA3A3A380DF78
:101E7300E4FFFE121088600C0FEF70010E09E97089
:051E8300F20A80EF22CD
:10114000EF4E6012EF60010EEDBB010B89828A83C6
:10115000F0A3DFFCDEFA2289F05007F709DFFCA9D3
:0C116000F022BBFEFCF309DFFCA9F0222A
:00000001FF
