:03000000021E8D50
:0C1E8D00787FE4F6D8FD758155021ABF7D
:101C1700900050E01313543FA4FFAD33D3ED9FE57D
:101C2700F06480F87480982275542390007B7402C6
:021C3700F02299
:101DFB00E490007BF0F55490007AF0900079F0229B
:071ECF00E5546002155422E6
:100DF50090007BE07003020EC524FE601C14602386
:100E050014603314604724046003020EBA90007224
:100E1500E06003020EC5020EA1E5546003020EC593
:100E2500020E8F900072E06003020EC57554239088
:100E3500007B7404F022E5546003020EC57F0212A4
:100E45001DC890007AE004F0A37405F02290007AA2
:100E5500E024FE601224FE601F240324FB5037604B
:100E65002114603C020EB4900050E01313543FFF70
:100E7500E533D39F404A801275F002121C1740409B
:100E8500800875F003121C1740367F0B121DC890A1
:100E9500007B7403F022900072E07024121C2F2254
:100EA500900072E0701A121C2FE490007AF0221262
:100EB5001C32E48005E490007BF090007AF0F55454
:010EC500220A
:071ED6000A03091303015B7D
:101ABF00121BF31217C0121709121322120026124B
:101ACF000A33120F9490007FE0FF1203C912128F96
:0B1ADF00121812120DF575E13F80D8BF
:0A1EB10090007F7401F0E4F5552263
:0F1E1B00AF55D3EF940A7480948040021555227E
:061F2300121EB1D2912252
:1003C90090007FE06F6005EFF0E4F55590007FE065
:1003D90014B40F0040030206669003F075F003A4FD
:1003E900C58325F0C5837302041D02042302043763
:1003F90002054102055C0205730205980205CF0258
:1004090005F402062402050902045902047B0204C8
:10041900AB0204E8E4F555D29122E555600A24F6C9
:100429006003020669020530755510C29122E5552F
:10043900601824F6601124FA600A24FA600302069F
:1004490069D29122C2912202053075551CC29122AE
:10045900E555601824F6601124F6600A24F6600355
:10046900020669D29122C29122020530755582C2D3
:100479009122E555602624F6601F24F6601824F6BB
:10048900601124F6600A24F66003020669D29122FB
:10049900C29122D29122C29122020530755596C28B
:1004A9009122E555603324F6602D24F6602624F662
:1004B900601F24F6601824F6601124F6600A24F6F9
:1004C9006003020669D29122C29122D29122C2917D
:1004D90022D29122C29122804E7555AAC29122E55B
:1004E90055601724F66011249C600A24F460030205
:1004F9000669D29122C29122802D7555DEC29122C0
:10050900E555602E24F6601F24FA601824FA60115C
:1005190024FA600A24FA6003020669D29122C29180
:1005290022D29122C29122E4F55590007F04F0D2A3
:100539009122755528C29122E555601114600E2447
:10054900F7600A24FA6003020669D29122755516EA
:10055900C29122E555601114600E24F7600A244700
:100569006003020669D291228056E555601F146026
:100579001C24F76018244E601124FC600A24FC60D6
:1005890003020669D29122C29122D291228031E5D9
:1005990055602D14602A24F760262456601F24FC18
:1005A900601824FC601124FC600A24FC6003020624
:1005B90069D29122C29122D29122C29122D2912250
:1005C9007555C8C29122E555601F14601C24F76057
:1005D90018246F601124FB600A24EC600302066989
:1005E900D29122C29122D29122806CE555602A14BF
:1005F900602724F760232479601C24FB601524FB01
:10060900600E24FB600724EC7056D29122C291221D
:10061900D29122C29122D29122803CE555120DA39A
:1006290006600006600106600A065D87065A8C06A8
:10063900579106549606519B064EA0064BB40000EE
:100649000669D29122C29122D29122C29122D291DB
:1006590022C29122D291227555FAC29122121EB15B
:01066900226E
:101E0B0090007E7401F0E490007DF090007CF02255
:0A1EBB0090007DE06003E014F022C7
:101D3A0090007EE0FEEFC39E400CEFF090007CE046
:071D4A0004F0A37432F02243
:100F940090007EE0120DA3103F000FDF010FDB0273
:100FA4000FDF050FE3060FE7070FF3080FF7090F2D
:100FB400EB0A0FEF0B10031F101020101E3D102220
:100FC4003E102A3F102640102E411032420FE343B8
:100FD4000FE744000010397F01801A7F0280167FDA
:100FE4000380127F0B800E7F0E800A7F0F80067FA6
:100FF4000C80027F0D1203C9E490007EF0803C7FD8
:10100400051203C990007DE07031800B7F04120348
:10101400C990007DE07024A3801E7F0580127F09A3
:10102400800E7F0A800A7F0680067F0780027F0881
:101034001203C9800690007E7402F090007EE0D313
:10104400943C74809480401290007CE0700790007F
:0B1054007E7402F022E490007CF02289
:0C1E9900E4F54CF54DF54AF54BF54922F7
:071EDD00E54C6002154C22E8
:10000E00E54B454A6008E54B154B7002154AE54D28
:05001E006002154D22F7
:0C1EA500D295E4F54AF54BF54DF54922C5
:10128F00900030E0640B7025C290900072E064080B
:10129F00600FE06409600AE0640A6005E0641070A2
:1012AF0006D2B7D2B68014C2B7D2B6800E90003035
:1012BF00E0641F700BD290D2B7C2B6754C0A801281
:1012CF00E54C700EE5446006C2B7C2B68004D2B7D3
:1012DF00D2B6E54914602214602E240270349000B7
:1012EF0030E075F00A8464046009E075F00A8464E4
:1012FF0002701F754D14054922E54D7015C2957585
:10130F004A01754B2C054922E54B454A7004D2958D
:03131F000549225B
:08000300E4F550F54EF54F2223
:071EE400E5506002155022D9
:1017C000E550702775500AE54E6002154E121E1B3B
:1017D000121E73121EEB121EF2121EF9121F0012BD
:1017E0001F07121F1512000E121F0EE54E701B75FB
:1017F0004E0AE54F6002154F121ECF121EBB121E7D
:10180000DD121EDD121E39121F1CE54F7003754FCD
:021810000A22AA
:101A300075F00A8475F00A84E5F02430A3F0227A68
:101A40000079087E007F147D007B01020DC9E0044F
:101A5000F0C3941474809480227E007D007B010288
:021A60000DC9AE
:0300230002111FA8
:10111F00C0E0C0F0C083C082C0D075D000C000C096
:10112F0001C002C003C004C005C006C00730983913
:10113F00C298900006E07031900004E0121A5140FE
:10114F000EE4F0FE7F14FD7B017A007908805E903B
:10115F000004E02408F582E43400F583E599F0906B
:10116F000004E004F0A37405F0309944C299D296BC
:10117F00900002E0FF900001E0FE6F6019741C2EDA
:10118F00F582E43400F583E0F599900001121A4ED0
:10119F00401EE4F0801A900003E4F0900001F0A3E9
:1011AF00F0C296FE7F14FD7B017A00791C120DC9E7
:1011BF00D007D006D005D004D003D002D001D00084
:0B11CF00D0D0D082D083D0F0D0E0322E
:101BCF00900002E0241CF582E43400F583EFF090DE
:101BDF000002121A4E4002E4F0900003E070040479
:041BEF00F0D2992275
:101B85008B0A8A0B890CAB0AAA0BA90C120D1160E2
:101B950013050CE50C7002050B14F9120D11FF125B
:051BA5001BCF80E222CD
:101D51007F087A007900121A597A00791C121A4305
:061D6100121A3FC2962297
:04105F008F088D0960
:10106300E4F50AFE7F14FD7B017A007951120DC964
:10107300E50824FD6017240270749000517428F071
:10108300E5092430A3F0A37429F00210F1E5092443
:101093003F900051F0E53375F064121A33E53312D3
:1010A3001A30E533121A34A3742CF0E54075F0645A
:1010B300121A33E540121A30E540121A34A3742C85
:1010C300F0E543121A34A3742CF0E53F75F0641273
:1010D3001A33E53F121A30E53F121A34A3742CF089
:1010E300E53D121A30E53D121A34A3743BF0E4F5E2
:1010F3000A7B017A007951121D67C3E50A9FEE64EA
:1011030080F874809850147451250AF582E43400F1
:0B111300F583E0FF121BCF050A80D619
:01111E0022AE
:041B13008F088D09A1
:101B17007F147A007951121A59E50824D0700A9077
:101B27000051E509F0A3F0A3F07B017A0079510297
:021B37001B850C
:10181200900005E0703F900004E0D394007480943F
:101822008040329000067401F0900009E0FF9000C1
:1018320008E0B5071190000AE0FF900008E0B50744
:1018420005E0900073F0121A3FE4900004F090005B
:0E18520006F0A304F0900007E06002E4F0222C
:101A910090004AE06405229000657456F0A32290FC
:101AA1000078E004F07552962290006BE064012208
:0E1AB100900073E064032290004AE064032278
:10194100E4F51CF51EF51AF51BF519F51FF51D90AB
:10195100006EF0900070F090006AF090006CF090D2
:101961000071F090006DF0900069F090006FF090C0
:10197100006BF0900031F0FE7F04FD7B017A00796D
:0419810065020DC925
:0D1E7300E51B6002151BE519600215192220
:071EEB00E51F6002151F2234
:071EF200E51D6002151D2231
:071EF900E51C6002151C222C
:071F0000E51A6002151A2228
:071F0700E51E6002151E2219
:1015C600E4FEFDFC3083010E3084027D013085028D
:1015D6007C01ED25E0FFEE25E025E02F2C14601BB5
:1015E60024FE602224FE6029240570349000657470
:1015F60055F0A37408F0A37420801F121A98740F74
:10160600F0A374218014121A98740BF0A37423802B
:1016160009121A98740CF0A37423F0A37402F02232
:0C16260090006574FAF0A3F0A3F0A3F0AC
:011632002295
:0E1E570090006B2086047401F0227402F022C9
:101DC800900069E0D39F5008EFF090006FE004F0B6
:011DD80022E8
:1011DA0090006DE014603114603F14606814607907
:1011EA002404600302127820B40520A20280303061
:1011FA00B40320A20B90006D7401F0751D02807774
:10120A0090004A7401F0806F30B40320A206E51DF5
:10121A007065803DE4F51D804720B40B20A208903C
:10122A00006D7404F0805020B40590004A801120AB
:10123A00A20890004A7405F0803D751D1490006D57
:10124A007403F0803230B40930A206E51D7028809C
:10125A000F90006D7402F0801E20B40330A207E4E0
:10126A0090006DF0801190004A7406F08009E490B5
:10127A00006DF090004AF090004AE0640670037F27
:05128A0042227F00225A
:1019C700900071E014601004701920932890007142
:1019D7007401F0751F1422309318E51F70179000DB
:1019E70071F0222093079000717401F022E49000B7
:0619F70071F0751B1422C3
:0A1EC50090006CE064027001F0224E
:1013B40090006CE0146028146007146056240370D5
:1013C4006D20970D90006C7401F0751B0575191450
:1013D40022900078E06069E5517065F0021EC53026
:1013E4009717E5196007E490006CF0800FE51B7017
:1013F4000B90006C7403F08003751B05900075E07E
:1014040064016005E0640370069000757402F07571
:10141400513C22900078E06003E014F090006C747A
:1014240002F0900075E0640270167403F0222097B5
:101434000790006C7401F022E490006CF0751B05B9
:011444002285
:1018600090006EE01460151460252402703520B3DA
:1018700037E51C703690006E7402F02230B308E435
:1018800090006EF0751C0A121EC57F0E021DC82046
:10189000A107E5527003121AA090006E7401F07552
:0C18A000513C22E490006EF0751C0A22FE
:1015530030B355209402805090006AE01460151453
:10156300601C2402705420A056E51A705590006A3E
:101573007402F02230A04BE490006AF08041121A0A
:10158300AA7007121AB1700780007F01121DC8905C
:10159300006A7401F0E4900078F0F552F551121AE4
:1015A300AA700B121AB16006E490006AF022900050
:1015B30075E06401700C7404F022E490006AF07525
:0315C3001A0A22DF
:1018AC00900070E0146029146012240270352094AA
:1018BC0037E51E70369000707402F02220A107E507
:1018CC00527003121AA09000707401F075513C22F2
:1018DC00309408E4900070F0751E0A121EC57F0D3E
:0C18EC00021DC8E4900070F0751E0A2276
:101DD900900079E064017008121EC57F0B121DC8BE
:011DE90022D7
:0E1E6500900079E0640270057F02121DC82211
:101C3900121AB8701C900072E0C3940874809480E2
:101C4900400FE0D3940E7480948050057F0F121DCD
:021C5900C8229F
:101C5B00121A91701C900072E06404600FE0640330
:101C6B00600AE064026005E0640170057F05121DE7
:021C7B00C8227D
:101CE20090006CE064017017121A91601290004F1C
:101CF200E064046005E0640370057F08121DC822D9
:101BAA00121AB8701F90006CE064027017900078E7
:101BBA00E07011121AAA7007121AB1700780007F1A
:051BCA0004121DC822F9
:101D0200900071E064017017121A91601290004FF6
:101D1200E064046005E0640370057F09121DC822B7
:101D9000900072E06410700A121AB870057F111278
:031DA0001DC82239
:101DA300900072E06406700A121A9170057F0712A0
:031DB3001DC82226
:10170900900072E0F46058E064FE60531211DAEF61
:1017190060057F42121D3A900078E0600830A1050B
:10172900E4F0121EC51219C71213B4121860121868
:10173900AC121DD9121CE2121D02121E651215539C
:10174900121BAA121C39121C5B121D90121DA390A8
:10175900006FE07005900069F022E490006FF022BC
:100C2900E02437F582E43400F583E02BFBE43AFA5B
:100C3900900048E02437F582E43400F58322FFE48C
:100C49003EFEAD33D3ED9FEE6480F8748098227F29
:100C5900037B007A0079367E007D00020DC9900081
:100C6900347412F090004D7403F07484A3F0E535E8
:100C7900453422D2A3C287F539753A0A9000302249
:100C8900F090004F7401F0227F0412066AE4F533F4
:100C9900F539753A029000302290004AE064052245
:100CA90090004AE064032290004B7401F0A3742C75
:100CB900F02290004DE0F53BA3E0F53C75390322A5
:100CC900900048E004F022AF407E007C007D0612CF
:100CD9000D3CEF227C007D06AF03AE02020D4E9063
:100CE9000048E0C3940C7480948022E0FF90004691
:100CF900E0FEEFD39E22E490004BF0A3F0227F1296
:080D09001219857D237F0A22E7
:10169F009000347405120C89900035F090004AF0D8
:1016AF00E4900030F0F545F546F52FF530F531F5BE
:1016BF0032F539F53AF53BF53CF533FE7F0EFDFB80
:1016CF007A007921120DC9120C587F137B017A0011
:1016DF007937120C60E4F547F548F534F53590008D
:1016EF004DF0A3F0900050F0900036F0120D0090E6
:0A16FF000032F0A3F0C200021E2A20
:0F1E2A007E007F087D007B007A00793D020DC9A4
:0F1E3900E53C453B6008E53C153C7002153B223B
:101D2200E53A45396009E53A153A700B153922054D
:081D320046E54670020545225A
:10198500EFFD7C00640A7006E535241E800AED64CF
:10199500124C701BE5352414F548E43534F54790B1
:1019A5000046E0243CFEE433900032F0A3CEF0D3B1
:1019B500900033E0942C900032E094014003120C27
:0219C500B3224B
:101B3900900031E08FF0A4F0E02DF0E075F003841F
:101B490025E0FFC3E5339F900050F0900031E0FF9E
:061B5900C3E5339FF022FA
:10066A00E4FBFAEF24FE603A147003020793147055
:10067A00030207B6240360030207C5900047E0653A
:10068A003370030207C5E533F0AF30A3120C3CEF19
:10069A00F0120CC9E0640C60030207C57406F0028C
:1006AA0007C590004574FFF0E4900048F0900048B8
:1006BA00E0C3940674809480501C120C29E0FF90C9
:1006CA000045E0FEEFC39E5008120C39E090004549
:1006DA00F0120CC980D7120CDDAA06AB07900043B2
:1006EA00EFF0E4900046F09000487406F0120CE82F
:1006FA005015120C29120CF44008120C39E0900023
:10070A0046F0120CC980E6120CDD900044EFF0901E
:10071A000043E0D39414748094804009E0945074A8
:10072A00809480400D900044E0D394DC74809480DF
:10073A00404F900046E0D394BE748094804002807B
:10074A0040900046E0D394967480948040099000CB
:10075A00497404F00207C5900046E0D3946E748091
:10076A00948040089000497403F0804F900046E05E
:10077A00D3945A7480948090004940087402F0809F
:10078A003A9000497401F08032E4900046F09000FB
:10079A0048F0120CE85024120C3C120CF4400812D7
:1007AA000C39E0900046F0120CC980E67E007F13F7
:1007BA007D007B017A007937120DC9900049E0FF6C
:0107CA00220C
:100EC6008F088D098B0AEF64056003020F67900097
:100ED60034E065096003020F9390004AE0650A60FA
:100EE60003020F937F0212066AEF14601514600A5C
:100EF60014600B1470117F0A800A7F0880067F0930
:100F060080027F0B121D3AAF33C3EF945074809466
:100F1600805023900034740AF090004D7402F074EF
:100F260058120C757005F5347535327F0A1219851D
:100F36007D0F7F058028AF33C3EF94827480948041
:100F4600500F120C677005F53475351E120D0780AB
:100F56000D120C677005F534753532120D07021B3C
:100F660039900034E0C39509502390004AE0B50A51
:100F76000CE508640770069000347407F090004D85
:0E0F86007404F0A374B0F075470175482C2276
:101B5F00E53A45397017D3E5469FE5459E400E900F
:101B6F000036E06005E014F080097F012290003616
:061B7F007402F07F002259
:10090C00E4FEEF24FE6070147003020A09147003F5
:10091C00020A1724036003020A30AF2DEF640B7038
:10092C0032F531F532FEEEC3940A74809480501A7D
:10093C0074212EF8E6D39532E49531400A74212EB9
:10094C00F8E6753100F5320E80DC85322E752D0CF3
:10095C00AF2E22AF2DC3EF940B748094805015E50D
:10096C002C6533600F85332CAF30AE2D74212EF8EF
:10097C00A607052DAF2E22E548B42D0DE547B40191
:10098C0008900034E0FF121985E548642C7004E5EA
:10099C004764017003020A30AF38C3EF94027480CD
:1009AC0094805016E5359414E5349400400CAF3522
:1009BC00AE3874362EF8A6070538AF38EF640270DF
:1009CC0039AF36D3EF9535E495344028AF37D3EFB4
:1009DC009535E49534401DAF22AD21ED2FF532E471
:1009EC0033F531E531C313F531E53213F532853189
:1009FC0034853235120C587F01227F00227E007F15
:100A0C000E7D007B007A0079218016E4900032F094
:100A1C00A3F075470175482DFE7F03FDFB7A007925
:060A2C0036120DC97F0027
:010A320022A1
:10002600A2B2300001B35011A2B2920085452F85CD
:100036004630E4F545F5460533900030E0120DA351
:1000460000890000A30101370201C3030311040064
:10005600C60B00D60C00FD0D014915015916017499
:100066001701971801A71901F41F0208200222217F
:10007600033B29034C2A03642B038A2C039A2D0085
:100086000003B5120CA270069000307404F0120C36
:10009600A960030203B59000307402F022121E2AF2
:1000A600754101754202121EA57B057D097F081266
:1000B6000EC6120C91740BF090003574020201EC1E
:1000C600E53A453960030203B5120C7C740CF02244
:1000D600E53A453960030203B5120CBB753AE89060
:1000E6000030740DF090004FE064047002C2A590D9
:1000F600004F740202021CE53A45397002D2A5E5AA
:100106003C453B700A90004F04F07F3E02039790F7
:10011600004CE02548FF90004BE03547CF2450CFF8
:100126003400FE121B5FEF70030203B57F2002034B
:10013600977B037D081203B67415F090004F740385
:10014600020335E53A453960030203B5120C7C74A7
:1001560016F022E53A453960030203B5D2A7C2A6D6
:10016600C2A5F53B753C1E9000307417F022E53CA5
:10017600453B7013D2A5120CA99000307004741977
:10018600F022741802037A120CA970030203B580D8
:1001960015120CA970069000307419F07F3F020307
:1001A60097120CA96008120C8A7F100203AF900008
:1001B6004FE0640160030203B57403F022121E2AA5
:1001C600E4F541754204121EA57B037D097F0712E3
:1001D6000EC67F0312090C120C91741FF090004F8B
:1001E6007404F0900035F0D2A7D2A6D2A522E53A43
:1001F600453960030203B5C2A3D287120C8074206E
:10020600F022E53A453960030203B5120CBB753A94
:10021600209000307421F0C2A7C2A622900034E0DC
:10022600D39409748094804052AF33EF941A74804B
:1002360094805005120CB0803A900050E0FFE533F0
:10024600D39F4009C2A57F0112066A80269000311D
:10025600E0FFE533D39F4018D2A77F0112066A90CC
:100266000032E0FFA3E090004BCFF0A3EFF0800355
:10027600120CFFE53A4539703B802FAF33C3EF943C
:1002860014748094805005120CB08003120CFFAFDA
:1002960033D3EF9428748094804009D2A7C2A57FF7
:1002A6000112066AE53A4539700A7F0112090C7592
:1002B60034008F35E53C453B700E90004F04F0D27C
:1002C600A7D2A57F4002039790004CE02548FF90F7
:1002D600004BE03547FE121B5FEF70030203B5903B
:1002E6000072E0640670030203B57F0A121DC87F20
:1002F60020121D3A7F0412090C121EC5900075E0EB
:10030600640160030203B57405F0227F0312066AD6
:100316007F0212090CEF6008900034E0FF12198585
:100326007B057D071203B67429F090004F7405F023
:10033600900035F022E53A45397074C2A3D287128F
:100346000C80742AF022E53A45397063D2A7C2A61A
:10035600C2A5F53B753C14900030742BF022E53CA9
:10036600453B7014D2A5120CA29000307004742D77
:10037600F022742C120C8922120CA26032120C8A02
:100386007F068025120CA27006900030742DF07F37
:1003960041021D3A90004FE0640170037405F012AB
:1003A6000CA2600B120C8A7F06121DC8121EA52213
:1003B6007F05120EC6D2A5D2A7753900753A0290EE
:0303C600003022E2
:071F0E00E53E6002153E22D2
:100A3300AF3EEF6003020B24AF41EF6003020B24D0
:100A4300AF42EF64046003020B24053FAF3FC3EFE3
:100A53009423748094805003020B21E53F75F005C5
:100A630084E5F06003020B21AF3FC3EF944B748026
:100A730094804003020B21900068E064FA70030243
:100A83000B210540120CD0242D120C47400F754446
:100A9300017F08121DC87D19120B258031AF40EF6D
:100AA30075F006A42427FFE435F0120C4A40040530
:100AB30043800A120CD02421120C474011E54075E3
:100AC300F006A42421FFC3E5339F253DF53D9000A7
:100AD30068E0FFE543C39F500A900067E0FFE53DF0
:100AE3009F400D7544017F08121DC87D05120B251B
:100AF300900066E0FFE53DC39F4019900065E0FF6D
:100B0300E5339F400F7544017D037F0312105F7F20
:100B130008121D3AAF40EF64087003754101753E3A
:0D0B230005227F0312105F7F0B121D3A2286
:1014D5000000000000000000000000000000000007
:1014E50000000000000000040300000000000100EF
:1014F50001020100000000000000000000000000E3
:1015050000000002000200030303030000000000C6
:1015150000000000000000000000000000040004BE
:1015250001010101010101000000000000000004AB
:1015350000000000000101010100000000000000A2
:0E154500000400000000000000000002000092
:101C7D00C2AF759850758921758DFDD28ED2AC7518
:101C8D008ACD758CF8D28CD2A9C2A8C2AAD2BCD2E8
:021C9D00AF2274
:101C9F0090007274FFF0E4900074F0900076F09072
:101CAF000073F0900077F0900075F0900078F0F5E9
:021CBF005222AF
:101DB600EF75F0C8A4FFAEF0EF1F70011E144E7051
:011DC600F725
:011DC70022F9
:0F1E4800E55360021553900005E0600214F0228C
:071F1500E5526002155222A3
:071F1C00E55160021551229E
:101BF300121C7D121D51121C9F121F23121E0B1249
:101C0300194112000312169F121E99121DFB120B8B
:041C1300300215C6C0
:10176900900069E0FF900072E0C39F5049900069C2
:10177900E0FF90004FE075F012A424D5F582E4341F
:1017890014F583E5822FF582E43583F583E493909C
:101799000074F0E06020E0900030F0900069E09083
:1017A9000072F020A110E064086005E0640A700688
:0717B900900078E004F0222B
:1007CB0090006BE06402703D900073E0146027149E
:1007DB00600E14600B24FE60030470247F038011F1
:1007EB00E490006AF0751A0A90006CF0751B057F97
:1007FB000C121DC88000900035E0FD7F30121B13DA
:10080B00E4900073F090006BE06401600302090B4D
:10081B00900072E0F4700302090BE064FE700302B7
:10082B00090BE553600302090B755314900035E077
:10083B0024FE700302090114700302090124FE60F7
:10084B0006046003020901900073E024FE60681443
:10085B00602814600D1460030208F4E4900075F036
:10086B008051900075E0700204F0900075E0640216
:10087B0070047D0280717D01806D900075E07002C7
:10088B0004F0900035E0640470077D047F30121B88
:10089B0013900075E0640470047D04804E90007525
:1008AB00E06403700E7D047F30121B13E49000751F
:1008BB00F0803D7D018034900075E064026003128E
:1008CB001EC5900075E0700204F0900035E06404E2
:1008DB0070077F0C121DC88017900075E0640370C1
:1008EB00047D0480027D0180027D017F30121B1389
:1008FB00E4900073F022900035E0FD7F30121B1363
:01090B0022C9
:101322001207CB900072E02402606114604314B48F
:101332001200507890133DF82828730213AB021361
:10134200AB0213AB0213AB0213AB0213A80213AB33
:101352000213A80213AB0213AB0213AB0213AB02CC
:1013620013AB0213AB0213AB0213A80213AB0213AB
:10137200A8121E5720B30B20A00820A20575541EE8
:10138200800375540690007274FEF02220B311207F
:10139200A00E20A20BE554700790007B04F080069B
:1013A200E554700D8007E48004021769E49000722E
:0213B200F02227
:03000B000218F8E0
:1018F800C0E0C0F0C083C082C0D075D000C000C0B6
:1019080001C002C003C004C005C006C007C28D756F
:101918008ACD758CF8121EE4121D22121E48D007BB
:10192800D006D005D004D003D002D001D000D0D04A
:09193800D082D083D0F0D0E0325F
:0D1E80008CE3AF058FE475E64675E6B922E8
:071D7C00740129F9E43AFAB1
:0D1D8300E4F5E7F5E5F5E675E380F5E4220B
:101AEA00AD07AC0675E78175E501121E8000E5E2D7
:101AFA00120D2A0DBD00010C121D7CE51815187077
:091B0A0002151714451770DC22C6
:101DEA00AD07AC0675E78175E503121E8000021D7A
:011DFA008365
:101A6200AD07AC0675E78175E5028CE3AF058FE43F
:101A7200120D11F5E2121E86000DBD00010C121DA1
:0F1A82007CE51515157002151414451470D62245
:101CC100E508C39408748094802274512508F58234
:101CD100E43400F583227B027D007C027F007E20BC
:011CE10022E0
:100B3000E4F508F509F5E190007E7443F07B017A55
:100B40000079517517007518087F007E20121AEA87
:100B5000E4F508121CC15015121CCBE0FF901EDCFE
:100B6000E493FEEFB506020509050880E6E5096491
:100B700008700590007E04F090007EE064436003FE
:100B8000020C12F508C3E508940174809480504665
:100B9000121CD71219FD120C137DAA7F007E2012A1
:100BA0001633120C137DAA7F007E201214455002CA
:100BB000C2917F0A121DB6121CD71219FD120C1B0E
:100BC000121633120C1B1214455002C2917F0A12E6
:100BD0001DB6050880AF3091317F007E20121DEADE
:100BE000E4F508121CC1500F901EDCE493FF121CA8
:100BF000CBEFF0050880EC7B017A00795175140089
:100C00007515087F007E20021A62D29190007E74D2
:020C100044F0AE
:100C1200227F0A121DB67B02227F0A121DB67B02B8
:070C22007D557F007E2022BA
:0A19FD008E0A8F0B8C0C8D0D8B0EE3
:101A0700E4F50FE50FC3950E501ED2A4AF0BAE0A37
:101A1700121DEA7F0A121DB6E50D250BF50BE50C25
:081A2700350AF50A050F80DB0A
:011A2F002294
:061633008E0A8F0B8B0CE8
:10163900E4F50DE50D121CC350117459250DF58201
:10164900E43400F583EDF0050D80E8E4F50DE50DD2
:10165900C3950C5040E4F50EC3E50E944074809494
:101669008050277B017A007959751400751508AFE8
:101679000BAE0A121A627408250BF50BE4350AF54C
:101689000A7F0A121DB6050E80CEB2A47F1E121D56
:05169900B6050D80B94B
:01169E002229
:081445008E0A8F0B8D0C8B0D3C
:10144D00E4F510F511F50EE50EC3950D5061E4F5BB
:10145D000FC3E50F944074809480504A7B017A004D
:10146D007959751700751808AF0BAE0A121AEA7480
:10147D0008250BF50BE4350AF50AE4FFEF121CC342
:10148D00501974592FF582E43400F583E0B50C083A
:10149D000511E511700205100F80E1B2A47F0A124B
:1014AD001DB6050F80AB7F1E121DB6050E8098E58B
:1014BD000D25E0FEE424FFFFEE34FFFEC3E5119F92
:0714CD00E5109E500122C34F
:0114D40022F5
:100D1100BB010689828A83E0225002E722BBFE02E0
:090D2100E32289828A83E4932213
:100D2A00BB010689828A83F0225002F722BBFE01A8
:020D3A00F322A2
:100D3C00EF8DF0A4A8F0CF8CF0A428CE8DF0A42ECB
:020D4C00FE2285
:100D4E00BC000BBE0029EF8DF084FFADF022E4CC89
:100D5E00F875F008EF2FFFEE33FEEC33FCEE9DEC52
:100D6E00984005FCEE9DFE0FD5F0E9E4CEFD22ED98
:100D7E00F8F5F0EE8420D21CFEADF075F008EF2FE2
:100D8E00FFED33FD4007985006D5F0F222C398FDD3
:050D9E000FD5F0EA2270
:100DA300D083D082F8E4937012740193700DA3A3DF
:100DB30093F8740193F5828883E4737402936860F3
:060DC300EFA3A3A380DFF3
:101D6700E4FFFE120D11600C0FEF70010E09E97010
:051D7700F20A80EF22DA
:100DC900EF4E6012EF60010EEDBB010B89828A8341
:100DD900F0A3DFFCDEFA2289F05007F709DFFCA94E
:0C0DE900F022BBFEFCF309DFFCA9F022A5
:00000001FF
