:030000000214598E
:0C145900787FE4F6D8FD7581580214A0DD
:101ED900E4900090F0F51F90008FF090008EF022B2
:071F9200E51F6002151F228C
:100D5100900090E07003020E5B24FE601C1460237F
:100D610014603314604724046003020E5090008322
:100D7100E06003020E5B020E28E51F6003020E5BBA
:100D8100020E16900083E06003020E5B751F239034
:100D910000907404F022E51F6003020E5B7F0212D3
:100DA1001EC890008FE004F0A37405F02290008F1C
:100DB100E024FE601224FE6022240324FB506260C2
:100DC1003814606D020E47900078E01313543FFF12
:100DD100E533D39F5003020E5B803A900078E01315
:100DE10013543F75F002A4FFAD33D3ED9FE5F064DA
:100DF10080F87480984063801C900078E01313544D
:100E01003F75F003A4FFAD33D3ED9FE5F06480F8A7
:100E110074809840457F0B121EC89000907403F0B7
:100E210022900083E07033751F239000907402F0CC
:100E310022900083E07023751F239000907402F0CC
:100E4100E490008FF0229000907402F0E48005E4B9
:0B0E5100900090F090008FF0F51F2241
:071FD8000A03091303015B7A
:101C3A00121D1E1217D712183712133812002E123D
:101C4A0010FF900094E0FF12044A1214E51218974C
:081C5A00120D5175E13F80DB22
:0A1F7400E558D3940A4002155822E4
:0C1F50009000947401F0E4F558D2912246
:10044A00900094E06F6005EFF0E4F558900094E0B6
:10045A0014B40F0040030206E790047175F003A478
:10046A00C58325F0C5837302049E0204A40204B85E
:10047A000205C20205DD0205F4020619020650024F
:10048A0006750206A502058A0204DA0204FC0205C0
:10049A002C020569E4F558D29122E558600A24F63F
:1004AA0060030206F00205B1755810C29122E558A0
:1004BA00601824F6601124FA600A24FA600302061E
:1004CA00F0D29122C291220205B175581CC2912222
:1004DA00E558601824F6601124F6600A24F66003D1
:1004EA000206F0D29122C291220205B1755882C247
:1004FA009122E558602624F6601F24F6601824F637
:10050A00601124F6600A24F660030206F0D29122F2
:10051A00C29122D29122C291220205B1755896C285
:10052A009122E558603324F6602D24F6602624F6DD
:10053A00601F24F6601824F6601124F6600A24F677
:10054A0060030206F0D29122C29122D29122C29174
:10055A0022D29122C29122804E7558AAC29122E5D6
:10056A0058601724F66011249C600A24F460030280
:10057A0006F0D29122C29122802D7558DEC29122B4
:10058A00E558602E24F6601F24FA601824FA6011D8
:10059A0024FA600A24FA60030206F0D29122C29178
:1005AA0022D29122C29122E4F55890009404F0D20A
:1005BA009122755828C29122E558601114600E24C0
:1005CA00F7600A24FA60030206F0D29122755816DF
:1005DA00C29122E558601114600E24F7600A24477C
:1005EA0060030206F0D291228056E558601F14601B
:1005FA001C24F76018244E601124FC600A24FC6055
:10060A00030206F0D29122C29122D291228031E5D0
:10061A0058602D14602A24F760262456601F24FC93
:10062A00601824FC601124FC600A24FC60030206A2
:10063A00F0D29122C29122D29122C29122D2912247
:10064A007558C8C29122E558601F14601C24F760CF
:10065A0018246F601124FB600A24EC60030206F080
:10066A00D29122C29122D29122806CE558602A143A
:10067A00602724F760232479601C24FB601524FB7F
:10068A00600E24FB600724EC705CD29122C2912296
:10069A00D29122C29122D29122803CE5581210AD09
:1006AA0006E10006E10106E10A06DE8706DB8C06A2
:1006BA00D89106D59606D29B06CFA006CCB40000E8
:1006CA0006F0D29122C29122D29122C29122D291D3
:1006DA0022C29122D291227558FAC2912290009494
:0706EA007401F0E4F5582251
:101EE9009000937401F0E4900092F0900091F02238
:0A1F7E00900092E06003E014F022EE
:101E3900900093E0FEEFC39E400CEFF0900091E01C
:071E490004F0A37432F02243
:1010FF00900093E01210AD11AA00114A011146029F
:10110F00114A05114E06115207115E08116209119D
:10111F00560A115A0B116E1F117B2011893D118D2B
:10112F003E11953F119140119941119D42114E432E
:10113F00115244000011A47F01801A7F0280167F94
:10114F000380127F0B800E7F0E800A7F0F80067F39
:10115F000C80027F0D12044AE4900093F0803C7FD4
:10116F000512044A900092E07031800B7F04120444
:10117F004A900092E07024A3801E7F0580127F09A1
:10118F00800E7F0A800A7F0680067F0780027F0815
:10119F0012044A80069000937402F0900093E0D3FB
:1011AF00943C4012900091E070079000937402F00D
:0711BF0022E4900091F022F0
:0C1F5C00E4F553F554F551F552F5502210
:071F9900E55360021553221D
:10000E00E55245516008E552155270021551E554FE
:05001E006002155422F0
:0C1F6800D295E4F551F552F554F55022E5
:1014E500900058E0640B7027C29020851C90008303
:1014F500E06408600EE064096009E0640A6004E0E5
:10150500B41006D2B7D2B68013C2B7D2B6800D904A
:101515000058E0B41F0BD290D2B7C2B675530A80FB
:1015250008E5537004D2B7D2B6E5501460221460B2
:101535002E24027034900058E075F00A846404602B
:1015450009E075F00A84FFBF021F75541405502287
:10155500E5547015C29575510175522C055022E55B
:0A1565005245517004D29505502242
:08000300E4F51EF51CF51D22B9
:071FA000E51E6002151E2280
:101E500090008AE0FFA3E090008CCFF0A3EFF0E4C5
:071E600090008AF0A3F022BC
:1017D700E51E7024751E0AE51C6002151C121F7495
:1017E700121F36121FA7121FAE121FB5121FBC12EF
:1017F7001FC3121FCA12000EE51C701E751C0AE5D6
:101807001D6002151D121F92121F7E121F99121EB4
:1018170050121F99121F18121FD1E51D7003751D55
:101827000A90008BE004F0700690008AE004F02232
:030023000211C601
:1011C600C0E0C0F0C083C082C0D075D000C000C0EF
:1011D60001C002C003C004C005C006C0073098396C
:1011E600C298900006E07031900004E0C394144069
:1011F6000EE4F0FE7F14FD7B017A00790880619091
:101206000004E02408F582E43400F583E599F090C3
:101216000004E004F0A37405F0309947C299D29611
:10122600900002E0FF900001E0FE6F601C741C2E2F
:10123600F582E43400F583E0F599900001E004F0CE
:10124600C39414401EE4F0801A900003E4F090006A
:1012560001F0A3F0C296FE7F14FD7B017A00791C93
:101266001210D3D007D006D005D004D003D002D0B8
:0E12760001D000D0D0D082D083D0F0D0E032B2
:101C6200900002E0241CF582E43400F583EFF0904A
:101C72000002E004F0C394144002E4F0900003E098
:071C8200700404F0D2992266
:101CD5008B0A8A0B890CAB0AAA0BA90C12102D6072
:101CE50013050CE50C7002050B14F912102DFF12EB
:051CF5001C6280E222E8
:101BB2007E007F087D007B017A0079001210D37EBF
:101BC200007F147D007B017A00791C1210D37E0005
:101BD2007F147D007B017A0079081210D3C296220D
:0409F4008F198D1AB0
:1009F800E4F51BFE7F14FD7B017A0079441210D3C5
:100A0800E51924FD6003020B03E51A243F90004416
:100A1800F0E53375F0648475F00A84E5F02430A3BA
:100A2800F0E53375F00A8475F00A84E5F02430A304
:100A3800F0E53375F00A84E5F02430A3F0A3742CB4
:100A4800F0AE41AF427C277D101210587C007D0A21
:100A5800121058AF05ED2430A3F0AE41AF427C032D
:100A68007DE81210587C007D0A121058AF05ED245D
:100A780030A3F0AE41AF427C007D641210587C0078
:100A88007D0A121058AF05ED2430A3F0AE41AF42F5
:100A98007C007D0A1210587C007D0A121058AF05A0
:100AA800ED2430A3F0AE41AF427C007D0A1210580D
:100AB800AF05ED2430A3F0A3742CF0E54475F00ADB
:100AC80084E5F02430A3F0A3742CF0E54075F00A17
:100AD80084E5F02430A3F0A3742CF0E53F75F00A08
:100AE8008475F00A84E5F02430A3F0E53F75F00A38
:100AF80084E5F02430A3F0A3743BF0E4F51B7444C0
:100B0800251BF582E43400F583E0FF121C62051B07
:070B1800E51BC3941240E746
:010B1F0022B3
:041BE2008F088D09D2
:101BE6007E007F147D007B017A0079301210D3E5E8
:101BF6000824D0700A900030E509F0A3F0A3F07B2A
:081C0600017A007930021CD5BF
:10189700900005E07047900004E0D39400403E902C
:1018A70000067401F0900009E0FF900008E0B5071A
:1018B7001190000AE0FF900008E0B50705E09000EE
:1018C70084F07E007F147D007B017A007908121076
:1018D700D3E4900004F0900006F0A304F090000712
:0618E700E06002E4F022C3
:101AAD00E4F54CF54EF54AF54BF549F54FF54D90EE
:101ABD00007FF0900081F090007BF090007DF09021
:101ACD000082F090007EF090007AF0900080F0900F
:081ADD00007CF0900059F0229A
:0D1F3600E54B6002154BE54960021549229C
:071FA700E54F6002154F2217
:071FAE00E54D6002154D2214
:071FB500E54C6002154C220F
:071FBC00E54A6002154A220C
:071FC300E54E6002154E22FD
:101D420090007C2086057401F080037402F02083E9
:101D520007900059E04401F0208407900059E044C4
:031D620002F0226A
:101EC80090007AE0D39F5008EFF0900080E004F093
:011ED80022E7
:1012840090007EE014603114603F1460681460794B
:101294002404600302132220B40520A2028030300B
:1012A400B40320A20B90007E7401F0754D02807788
:1012B4009000727401F0806F30B40320A206E54DF3
:1012C4007065803DE4F54D804720B40B20A2089062
:1012D400007E7404F0805020B405900072801120C8
:1012E400A2089000727405F0803D754D1490007E44
:1012F4007403F0803230B40930A206E54D702880C2
:101304000F90007E7402F0801E20B40330A207E424
:1013140090007EF080119000727406F08009E490D1
:10132400007EF0900072F0900072E0B406037F42F9
:04133400227F0022F2
:101AE500900082E014601004701920932890008201
:101AF5007401F0754F1422309318E54F701790005C
:101B050082F0222093079000827401F022E4900075
:061B150082F0754B142262
:0A1F880090007DE0B40202E4F022B4
:1013CA0090007DE0146028146007146055240370AF
:1013DA006B20970D90007D7401F0754B05754914CB
:1013EA0022900089E06067E5557063F0021F88303B
:1013FA009717E5496007E490007DF0800FE54B7090
:10140A000B90007D7403F08003754B05900086E015
:10141A0064016004E0B403069000867402F0755516
:10142A003C22900089E06003E014F090007D740291
:10143A00F0900086E0B402167403F0222097079019
:0F144A00007D7401F022E490007DF0754B0522C7
:1019430090007FE01460151460252402703B20B3DF
:101953003DE54C703C90007F7402F02230B308E404
:1019630090007FF0754C0A121F887F0E021EC8205C
:10197300A10DE5567009900089E004F07556969024
:10198300007F7401F075553C22E490007FF0754CA4
:021993000A2226
:1016FA0030B35E209402805990007BE01460151488
:10170A00601C2402705C20A05EE54A705D90007B3C
:10171A007402F02230A053E490007BF080499000DC
:10172A007CE0B40109900084E0B4030780007F01E3
:10173A00121EC890007B7401F0E4900089F0F556FF
:10174A00F55590007CE0B4010E900084E0640360DB
:10175A0006E490007BF022900086E0B4010C740449
:0B176A00F022E490007BF0754A0A2298
:10199500900081E014602F1460122402703B2094A3
:1019A5003DE54E703C9000817402F02220A10DE5CA
:1019B500567009900089E004F07556969000817480
:1019C50001F075553C22309408E4900081F0754E85
:1019D5000A121F887F0D021EC8E4900081F0754E23
:0219E5000A22D4
:101EF90090008EE0B40108121F887F0B121EC822C1
:0D1F430090008EE0B402057F02121EC8223D
:101DEB00900072E0B40314900083E0C39408400B9E
:0C1DFB00E0D3940E50057F0F121EC8228A
:101CFA00900072E06405701B900083E06404600E3B
:101D0A00E064036009E064026004E0B401057F0551
:041D1A00121EC822AB
:101DA90090007DE0B40119900072E0640560119023
:101DB9000077E064046004E0B403057F08121EC8DC
:011DC90022F7
:101C0E00900072E06403702390007DE06402701B0C
:101C1E00900089E0701590007CE0B401099000847A
:0C1C2E00E0B4030780007F04121EC822EF
:101DCA00900082E0B40119900072E06405601190FD
:101DDA000077E064046004E0B403057F09121EC8BA
:011DEA0022D6
:101E6700900083E0B4100C900072E0B403057F117A
:041E7700121EC8224D
:101E7B00900083E0B4060C900072E0B405057F0778
:041E8B00121EC82239
:10183700900083E0F46058E064FE6053121284EF76
:1018470060057F42121E39900089E0600830A105CB
:10185700E4F0121F88121AE51213CA12194312195B
:1018670095121EF9121DA9121DCA121F431216FA4C
:10187700121C0E121DEB121CFA121E67121E7B9011
:101887000080E0700590007AF022E4900080F0225A
:040026004100790319
:10156F0090005C7405F09000777401F090005DF0CE
:10157F00900072F0E4900058F0F545F546F52FF520
:10158F0030F531F532F539F53AF53BF53CF533FEEB
:10159F007F0EFDFB7A0079211210D37E007F037D31
:1015AF00007B007A0079361210D37E007F137D0006
:1015BF007B017A00795F1210D3E4F547F548F534D3
:1015CF00F535900075F0A3F0900078F090005EF084
:1015DF00900073F0A3F090005AF0A3F0C200121F16
:0815EF00099000797403F02259
:0F1F09007E007F087D007B007A00793D0210D3B7
:0F1F1800E53C453B6008E53C153C7002153B225B
:101E2100E53A45396009E53A153A700B153922054D
:081E310046E54670020545225A
:101A6F00BF0A06E535241E8007BF121BE535241477
:101A7F00F548E43534F54790006EE0243CFEE4333E
:101A8F0090005AF0A3CEF0D390005BE0942C90001E
:0E1A9F005AE0940140077401F0A3742CF02269
:101C8900900059E08FF0A4F0E02DF0E075F00384A6
:101C990025E0FFC3E5339F900078F0900059E0FFFD
:061CA900C3E5339FF022A9
:1006F100E4FBFAEF24FE60441470030208641470F2
:10070100030208A4240360030208B390006FE065AC
:100711003370030208B3E533F0AF30A3E0245FF593
:1007210082E43400F583EFF0900070E004F0E064BF
:100731000C60030208B37406F00208B390006D74F4
:10074100FFF0E4900070F0900070E0245FF582E427
:100751003400F583E02BFBE43AFA900070E0245F6B
:10076100F582E43400F583E0FF90006DE0FEEFC315
:100771009E5012900070E0245FF582E43400F5830E
:10078100E090006DF0900070E004F0E0B406B87CF9
:10079100007D06AF03AE02121058AA06AB07900007
:1007A1006BEFF0E490006EF09000707406F0900032
:1007B10070E0245FF582E43400F583E02BFBE43A3A
:1007C100FA900070E0245FF582E43400F583E0FFE5
:1007D10090006EE0FEEFD39E4012900070E0245F27
:1007E100F582E43400F583E090006EF0900070E053
:1007F10004F0E0B40CB87C007D06AF03AE02121029
:100801005890006CEFF090006BE0D394144005E039
:100811009450400990006CE0D394DC403E90006E0F
:10082100E0D394BE4002803390006EE0D3949640B2
:10083100089000717404F0807990006EE0D3946E9A
:1008410040089000717403F0806890006EE0D394CA
:100851005A90007140087402F08057900071740141
:10086100F0804FE490006EF0900070F0900070E026
:10087100245FF582E43400F583E0FF90006EE0FE32
:10088100EFD39E4012900070E0245FF582E43400C3
:10089100F583E090006EF0900070E004F0E0B40C9D
:1008A100CB800F7E007F137D007B017A00795F1280
:0708B10010D3900071E0FF7D
:0108B800221D
:100E5C008F088D098B0AE50864056003020F259045
:100E6C00005CE065096003020F50900072E0650AB7
:100E7C006003020F507F021206F1EF14601514602C
:100E8C000A14600B1470117F0A800A7F0880067F99
:100E9C000980027F0B121E39E533C3945050269003
:100EAC00005C740AF09000757402F0A37458F0E5BD
:100EBC003545347005F5347535327F0A121A6F7D5D
:100ECC000F7F058051E533C39482502690005C74EB
:100EDC0012F09000757403F0A37484F0E53545347A
:100EEC007005F53475351E7F12121A6F7D237F0A3B
:100EFC00802490005C7412F09000757403F0A3745D
:100F0C0084F0E53545347005F5347535327F1212B1
:100F1C001A6F7D237F0A021C8990005CE0C395093F
:100F2C005022900072E0B50A0BE508B40706900059
:100F3C005C7407F09000757404F0A374B0F07547FE
:050F4C000175482C2294
:101CAF00E53A45397017D3E5469FE5459E400E90BE
:101CBF00005EE06005E014F080097F012290005E75
:061CCF007402F07F002208
:100B2000E4FEEF24FE6061147003020C14147003E1
:100B3000020C2224036003020C3BE52D640B702998
:100B4000F531F532FE74212EF8E6D39532E4953175
:100B5000400A74212EF8E6753100F5320EBE0AE522
:100B600085322E752D0CAF2E22E52DC3940B50151A
:100B7000E52C6533600F85332CAF30AE2D74212EFC
:100B8000F8A607052DAF2E22E548B42D0DE547B494
:100B9000010890005CE0FF121A6FE548642C7004B5
:100BA000E54764017003020C3BE538C3940250161C
:100BB000E5359414E5349400400CAF35AE38743606
:100BC0002EF8A6070538E53864027045AF36D3EF36
:100BD0009535E495344028AF37D3EF9535E4953417
:100BE000401DAF22AD21ED2FF532E433F531E53173
:100BF000C313F531E53213F5328531348532357E54
:100C0000007F037D007B007A0079361210D37F01CC
:100C1000227F00227E007F0E7D007B007A007921FA
:100C20008016E490005AF0A3F075470175482DFE38
:0D0C30007F03FDFB7A0079361210D37F00A0
:010C3D002294
:10002E00A2B2300001B35011A2B2920085452F85C5
:10003E004630E4F545F5460533900058E01210AD14
:10004E0000910000B001016002021103037B040065
:10005E00DD0B00F60C01260D018115019A1601B576
:10006E001701DD1801EF19024C1F026520028921CC
:10007E0003B42903CD2A03E52B04172C04292D00E4
:10008E00000449900072E0B405069000587404F024
:10009E00900072E0640360030204499000587402F9
:1000AE00F022121F09754302121F687B057D097F1E
:1000BE0008120E5C7F041206F1E4F533F539753A39
:1000CE0002900058740BF090005D7402020244E539
:1000DE003A45396003020449D2A3C287F539753A0D
:1000EE000A900058740CF022E53A45396003020478
:1000FE0049900075E0F53BA3E0F53C753903753A80
:10010E00E8900058740DF0900077E0B40402C2A598
:10011E009000777402020283E53A45397002D2A547
:10012E00E53C453B700A90007704F07F3E020426C2
:10013E00900074E02548FF900073E03547CF2450BF
:10014E00CF3400FE121CAFEF70030204497F200271
:10015E0004267B037D087F05120E5CD2A5D2A775FF
:10016E003900753A029000587415F09000777403B8
:10017E000203AEE53A45396003020449D2A3C287B1
:10018E00F539753A0A9000587416F022E53A453959
:10019E006003020449D2A7C2A6C2A5F53B753C1E58
:1001AE009000587417F022E53C453B7015D2A5908F
:1001BE000072E0900058B403047419F0227418020F
:1001CE0003FD900072E064037003020449801A90EC
:1001DE000072E0B403069000587419F07F3F0204D9
:1001EE0026900072E06403600B9000777401F07F3C
:1001FE0010020443900077E0640160030204497426
:10020E0003F022121F09754304121F687B037D0938
:10021E007F07120E5C7F03120B207F041206F1E49F
:10022E00F533F539753A02900058741FF090007747
:10023E007404F090005DF0D2A7D2A6D2A522E53AC2
:10024E0045396003020449C2A3D287F539753A0ACB
:10025E009000587420F022E53A45396003020449B3
:10026E00900075E0F53BA3E0F53C753903753A2037
:10027E009000587421F0C2A7C2A62290005CE0D371
:10028E0094094058E533941A500C9000737401F0A1
:10029E00A3742CF0803E900078E0FFE533D39F40AE
:1002AE0009C2A57F011206F1802A900059E0FFE5F0
:1002BE0033D39F4018D2A77F011206F190005AE067
:1002CE00FFA3E0900073CFF0A3EFF08007E490005F
:1002DE0073F0A3F0E53A4539703C8030E533C394B2
:1002EE0014500C9000737401F0A3742CF08007E48A
:1002FE00900073F0A3F0E533D394284009D2A7C23F
:10030E00A57F011206F1E53A4539700A7F01120BFD
:10031E00207534008F35E53C453B700E9000770418
:10032E00F0D2A7D2A57F40020426900074E02548A3
:10033E00FF900073E03547FE121CAFEF700302040E
:10034E0049900083E0640670030204497F0A121E7E
:10035E00C87F20121E397F04120B20121F889000B6
:10036E0086E0640160030204497405F0227F0312E3
:10037E0006F17F02120B20EF600890005CE0FF1286
:10038E001A6F7B057D077F05120E5CD2A5D2A7756D
:10039E003900753A029000587429F0900077740570
:1003AE00F090005DF022E53A45396003020449C23F
:1003BE00A3D287F539753A0A900058742AF022E5CF
:1003CE003A45397076D2A7C2A6C2A5F53B753C1444
:1003DE00900058742BF022E53C453B701AD2A59044
:1003EE000072E0900058B40504742DF022742CF0C5
:1003FE009000777401F022900072E06405603C90EA
:10040E0000777401F07F06802C900072E0B4050630
:10041E00900058742DF07F41021E39900077E0B4A1
:10042E0001037405F0900072E06405600E90007791
:0C043E007401F07F06121EC8121F682215
:10167C00000000000000000000000000000000005E
:10168C000000000000000004030000000000010046
:10169C00010201000000000000000000000000003A
:1016AC00000000020002000303030300000000001E
:1016BC000000000000000000000000000004000416
:1016CC000101010101010100000000000000000403
:1016DC0000000000000101010100000000000000FA
:0E16EC000004000000000000000000020000EA
:101D6500C2AF759850758921758DFDD28ED2AC752F
:101D75008ACD758CF8D28CD2A9C2A8C2AAD2BCD2FF
:021D8500AF228B
:101EA300E4F5C9F5C875CD4CF5CCD2CAD2AFD2ADE5
:031EB300D2CA226E
:101D870090008374FFF0E4900085F0900087F09056
:101D97000084F0900088F0900086F0900089F0F5BC
:021DA7005622C2
:101EB600EF75F0C8A4FFAEF0EF1F70011E144E7050
:011EC600F724
:011EC70022F8
:0F1F2700E55760021557900005E0600214F022A4
:071FCA00E5566002155622E6
:071FD100E5556002155522E1
:101D1E00121D65121BB2121EA3121D87121F501226
:101D2E001EE9121AAD12000312156F121F5C121E5D
:041D3E00D9020C3E7C
:1018ED0090007AE0FF900083E0C39F504890007A0B
:1018FD00E0FF900077E075F012A4247CF582E434CB
:10190D0016F583E5822FF582E43583F583E4939014
:10191D000085F0E0601FE0900058F090007AE090B4
:10192D000083F020A10FE064086004E0B40A069083
:06193D000089E004F02225
:1008B90090007CE06402703D900084E0146027148D
:1008C900600E14600B24FE60030470247F03801102
:1008D900E490007BF0754A0A90007DF0754B057F26
:1008E9000C121EC8800090005DE0FD7F30121BE2F3
:1008F900E4900084F090007CE0640160030209F355
:10090900900083E0F470030209F3E064FE700302CF
:1009190009F3E55760030209F375571490005DE088
:1009290024FE70030209E91470030209E924FE6038
:10093900060460030209E9900084E024FE6064145F
:10094900602714600D1460030209DCE4900086F04E
:10095900804D900086E0700204F0900086E0B402B9
:10096900047D02806C7D018068900086E07002043D
:10097900F090005DE0B404077D047F30121BE29023
:100989000086E0B404047D04804B900086E0B40343
:100999000E7D047F30121BE2E4900086F0803B7DDF
:1009A900018032900086E064026003121F88900083
:1009B90086E0700204F090005DE0B404077F0C1239
:1009C9001EC88016900086E0B403047D0480027D71
:1009D9000180027D017F30121BE2E4900084F02245
:0B09E90090005DE0FD7F30121BE22259
:101338001208B9900083E02402606114604314B479
:1013480012005078901353F82828730213C102131F
:10135800C10213C10213C10213C10213BE0213C199
:101368000213BE0213C10213C10213C10213C10248
:1013780013C10213C10213C10213BE0213C1021327
:10138800BE121D4220B30B20A00820A205751F1E07
:101398008003751F0690008374FEF02220B311208D
:1013A800A00E20A20BE51F700790009004F08006A5
:1013B800E51F700D8007E480040218EDE4900083B7
:0213C800F02211
:03000B000219E7F0
:1019E700C0E0C0F0C083C082C0D075D000C000C0C6
:1019F70001C002C003C004C005C006C007C28D7580
:101A07008ACD758CF8121FA0121E21121F27D0072E
:101A1700D006D005D004D003D002D001D000D0D05A
:091A2700D082D083D0F0D0E0326F
:100F5100E533C39401500302102CE543640460039C
:100F610002102C0542E54270020541E5429432E54A
:100F7100419400500302102CAE41AF427C007D052C
:100F8100121058ED4C600302102CD3E5429450E549
:100F9100419400400302102C0540AF40EF75F0046E
:100FA100A42428FFE435F0FEAD33C3ED9FEE648049
:100FB100F87480984002054485333DAF40EF75F0E9
:100FC10004A42424FFE435F0FEAD3DD3ED9FEE648F
:100FD10080F87480984011E54025E025E02424FF45
:100FE100C3E53D9F253FF53FE540D394045011E50E
:100FF1003FC3940C400A7F08121EC87F0B121E3992
:10100100E544C394045007E53FC3941C400A7F089C
:10101100121EC87F0B121E39E53FC3941240057F93
:0C10210008121E39AD437F031209F422AF
:03002B00021A3086
:101A3000C0E0C0F0C083C082C0D075D000C000C07C
:101A400001C002C003C004C005C006C007C2CFC2A7
:101A5000CE120F51D007D006D005D004D003D0024B
:0F1A6000D001D000D0D0D082D083D0F0D0E032EF
:071E8F00740129F9E43AFA9D
:0D1E9600E4F5E7F5E5F5E675E380F5E422F7
:101B4E00AD07AC0675E78175E5018CE3AF058FE453
:101B5E0075E64675E6B900E5E21210460DBD0001C8
:101B6E000C121E8FE51815187002151714451770F4
:021B7E00D32270
:101E0700AD07AC0675E78175E5038CE3AF058FE495
:0A1E170075E64675E6B900021E9656
:101B8000AD07AC0675E78175E5028CE3AF058FE420
:101B900012102DF5E275E64675E6B9000DBD00019F
:101BA0000C121E8FE51515157002151414451470CE
:021BB000D3223E
:100C3E00E4F508F509F5E19000937443F07B017A31
:100C4E000079307517007518087F007E20121B4E34
:100C5E00E4F50874302508F582E43400F583E0FFEE
:100C6E00901FD8E493FEEFB5060205090508E508C6
:100C7E00B408E0E509B408069000937401F0900002
:100C8E0093E064436003020D50F5087B027D007C07
:100C9E00027F007E20121B1B7F0A121EB67B027D76
:100CAE00AA7F007E201217757F0A121EB67B027D68
:100CBE00AA7F007E201215F75002C2917F0A121EE3
:100CCE00B67B027D007C027F007E20121B1B7F0AFA
:100CDE00121EB67B027D557F007E201217757F0A8D
:100CEE00121EB67B027D557F007E201215F7500234
:100CFE00C2917F0A121EB60508E508C39401408B07
:100D0E003091377F007E20121E07E4F508901FD821
:100D1E00E493FF74302508F582E43400F583EFF098
:100D2E000508E508B408E67B017A007930751400F1
:100D3E007515087F007E20021B80D291900093745F
:020D4E0044F06F
:010D50002280
:0A1B1B008E0A8F0B8C0C8D0D8B0EC3
:101B2500E4F50FE50FC3950E501ED2A4AF0BAE0A18
:101B3500121E077F0A121EB6E50D250BF50BE50CE7
:081B4500350AF50A050F80DBEB
:011B4D002275
:061775008E0A8F0B8B0CA5
:10177B00E4F50D7438250DF582E43400F583EDF0B6
:10178B00050DE50DB408ECE4F50DE50DC3950C5016
:10179B003AE4F50E7B017A0079387514007515085B
:1017AB00AF0BAE0A121B807408250BF50BE4350A40
:1017BB00F50A7F0A121EB6050EE50EC3944040D4FF
:0B17CB00B2A47F1E121EB6050D80BFE9
:0117D60022F0
:0815F7008E0A8F0B8D0C8B0D89
:1015FF00E4F510F511F50EE50EC3950D5056E4F513
:10160F000F7B017A007938751700751808AF0BAE8C
:10161F000A121B4E7408250BF50BE4350AF50AE484
:10162F00FF74382FF582E43400F583E0B50C08051C
:10163F0011E511700205100FBF08E6B2A47F0A1260
:10164F001EB6050FE50FC3944040B67F1E121EB69F
:10165F00050E80A3E50D25E0FEE424FFFFEE34FF29
:0D166F00FEC3E5119FE5109E500122C3222D
:10146500021C3AE493A3F8E493A34003F68001F247
:1014750008DFF48029E493A3F85407240CC8C33388
:10148500C4540F4420C8834004F456800146F6DF57
:10149500E4800B0102040810204080900026E47EC1
:1014A500019360BCA3FF543F30E509541FFEE4934C
:1014B500A360010ECF54C025E060A840B8E493A313
:1014C500FAE493A3F8E493A3C8C582C8CAC583CA3E
:1014D500F0A3C8C582C8CAC583CADFE9DEE780BEF6
:01002A0000D5
:10102D00BB010689828A83E0225002E722BBFE02C1
:09103D00E32289828A83E49322F4
:10104600BB010689828A83F0225002F722BBFE0189
:02105600F32283
:10105800BC000BBE0029EF8DF084FFADF022E4CC7C
:10106800F875F008EF2FFFEE33FEEC33FCEE9DEC45
:10107800984005FCEE9DFE0FD5F0E9E4CEFD22ED8B
:10108800F8F5F0EE8420D21CFEADF075F008EF2FD5
:10109800FFED33FD4007985006D5F0F222C398FDC6
:0510A8000FD5F0EA2263
:1010AD00D083D082F8E4937012740193700DA3A3D2
:1010BD0093F8740193F5828883E4737402936860E6
:0610CD00EFA3A3A380DFE6
:1010D300EF4E6012EF60010EEDBB010B89828A8334
:1010E300F0A3DFFCDEFA2289F05007F709DFFCA941
:0C10F300F022BBFEFCF309DFFCA9F02298
:00000001FF
