:0300000002143DAA
:0C143D00787FE4F6D8FD75815502148418
:101E6700E490007CF0F55490007BF090007AF0222B
:071F2000E554600215542294
:100C230090007CE07003020D2D24FE601C146023F1
:100C330014603314604724046003020D2290006F94
:100C4300E06003020D2D020CFAE5546003020D2D42
:100C5300020CE890006FE06003020D2D75542390A1
:100C6300007C7404F022E5546003020D2D7F021210
:100C73001E5690007BE004F0A37405F02290007BE5
:100C8300E024FE601224FE6022240324FB506260F1
:100C93003814606D020D19900050E01313543FFF98
:100CA300E533D39F5003020D2D803A900050E0139B
:100CB30013543F75F002A4FFAD33D3ED9FE5F06409
:100CC30080F87480984063801C900050E0131354A4
:100CD3003F75F003A4FFAD33D3ED9FE5F06480F8D7
:100CE30074809840457F0B121E5690007C7403F06D
:100CF3002290006FE0703375542390007C7402F0EF
:100D03002290006FE0702375542390007C7402F0EE
:100D1300E490007BF02290007C7402F0E48005E410
:0B0D230090007CF090007BF0F5542263
:071F72000A03091303015BE0
:101BDB00121D6B12175212181712131C1200261219
:101BEB0010091210E3900080E0FF1204481214C990
:0B1BFB00121877120C2375E13F80D810
:0A1F0200E555D3940A40021555225C
:0C1EDE009000807401F0E4F555D29122D0
:10044800900080E06F6005EFF0E4F555900080E0E3
:1004580014B40F0040030206E590046F75F003A47E
:10046800C58325F0C5837302049C0204A20204B666
:100478000205C00205DB0205F202061702064E025B
:1004880006730206A30205880204D80204FA0205CC
:100498002A020567E4F555D29122E555600A24F64B
:1004A80060030206EE0205AF755510C29122E555AC
:1004B800601824F6601124FA600A24FA6003020620
:1004C800EED29122C291220205AF75551CC291222B
:1004D800E555601824F6601124F6600A24F66003D6
:1004E8000206EED29122C291220205AF755582C250
:1004F8009122E555602624F6601F24F6601824F63C
:10050800601124F6600A24F660030206EED29122F6
:10051800C29122D29122C291220205AF755596C28C
:100528009122E555603324F6602D24F6602624F6E2
:10053800601F24F6601824F6601124F6600A24F679
:1005480060030206EED29122C29122D29122C29178
:1005580022D29122C29122804E7555AAC29122E5DB
:1005680055601724F66011249C600A24F460030285
:1005780006EED29122C29122802D7555DEC29122BB
:10058800E555602E24F6601F24FA601824FA6011DD
:1005980024FA600A24FA60030206EED29122C2917C
:1005A80022D29122C29122E4F55590008004F0D223
:1005B8009122755528C29122E555601114600E24C8
:1005C800F7600A24FA60030206EED29122755516E6
:1005D800C29122E555601114600E24F7600A244781
:1005E80060030206EED291228056E555601F146022
:1005F8001C24F76018244E601124FC600A24FC6057
:10060800030206EED29122C29122D291228031E5D4
:1006180055602D14602A24F760262456601F24FC98
:10062800601824FC601124FC600A24FC60030206A4
:10063800EED29122C29122D29122C29122D291224B
:100648007555C8C29122E555601F14601C24F760D7
:1006580018246F601124FB600A24EC60030206EE84
:10066800D29122C29122D29122806CE555602A143F
:10067800602724F760232479601C24FB601524FB81
:10068800600E24FB600724EC705CD29122C2912298
:10069800D29122C29122D29122803CE555120FB705
:1006A80006DF0006DF0106DF0A06DC8706D98C06AE
:1006B800D69106D39606D09B06CDA006CAB40000F4
:1006C80006EED29122C29122D29122C29122D291D7
:1006D80022C29122D291227555FAC29122900080AD
:0706E8007401F0E4F5552256
:101E770090007F7401F0E490007EF090007DF022E6
:0A1F0C0090007EE06003E014F02274
:101DDA0090007FE0FEEFC39E400CEFF090007DE0A4
:071DEA0004F0A37432F022A3
:1010E30090007FE0120FB7118E00112E01112A021A
:1010F300112E051132061136071142081146091146
:101103003A0A113E0B11521F115F20116D3D1171EF
:101113003E11793F117540117D41118142113243D6
:10112300113644000011887F01801A7F0280167FE8
:101133000380127F0B800E7F0E800A7F0F80067F55
:101143000C80027F0D120448E490007FF0803C7F06
:101153000512044890007EE07031800B7F04120476
:101163004890007EE07024A3801E7F0580127F09D3
:10117300800E7F0A800A7F0680067F0780027F0831
:10118300120448800690007F7402F090007FE0D341
:10119300943C401290007DE0700790007F7402F051
:0711A30022E490007DF02220
:0C1EEA00E4F54CF54DF54AF54BF54922A6
:071F2700E54C6002154C229D
:10000E00E54B454A6008E54B154B7002154AE54D28
:05001E006002154D22F7
:0C1EF600D295E4F54AF54BF54DF5492274
:1014C900900030E0640B7027C29020851C90006F5B
:1014D900E06408600EE064096009E0640A6004E001
:1014E900B41006D2B7D2B68013C2B7D2B6800D9067
:1014F9000030E0B41F0BD290D2B7C2B6754C0A8047
:1015090008E54C7004D2B7D2B6E5491460221460DC
:101519002E24027034900030E075F00A846404606F
:1015290009E075F00A84FFBF021F754D14054922B1
:10153900E54D7015C295754A01754B2C054922E593
:0A1549004B454A7004D29505492273
:08000300E4F550F54EF54F2223
:071F2E00E55060021550228E
:101DF100900076E0FFA3E0900078CFF0A3EFF0E44D
:071E0100900076F0A3F0222F
:10175200E550702775500AE54E6002154E121F02C1
:10176200121EC4121F35121F3C121F43121F4A12AF
:101772001F51121F5F12000E121F58E54E701E7588
:101782004E0AE54F6002154F121F20121F0C121F46
:1017920027121DF1121F27121EA6121F66E54F7097
:1017A20003754F0A900077E004F07006900076E02F
:0317B20004F0221E
:030023000211AA1D
:1011AA00C0E0C0F0C083C082C0D075D000C000C00B
:1011BA0001C002C003C004C005C006C00730983988
:1011CA00C298900006E07031900004E0C394144085
:1011DA000EE4F0FE7F14FD7B017A007908806190AD
:1011EA000004E02408F582E43400F583E599F090E0
:1011FA000004E004F0A37405F0309947C299D2962E
:10120A00900002E0FF900001E0FE6F601C741C2E4B
:10121A00F582E43400F583E0F599900001E004F0EA
:10122A00C39414401EE4F0801A900003E4F0900086
:10123A0001F0A3F0C296FE7F14FD7B017A00791CAF
:10124A00120FDDD007D006D005D004D003D002D0CB
:0E125A0001D000D0D0D082D083D0F0D0E032CE
:101C0600900002E0241CF582E43400F583EFF090A6
:101C16000002E004F0C394144002E4F0900003E0F4
:071C2600700404F0D29922C2
:101C79008B0A8A0B890CAB0AAA0BA90C120F2560D7
:101C890013050CE50C7002050B14F9120F25FF1250
:051C99001C0680E222A0
:101B53007E007F087D007B017A007900120FDD7E15
:101B6300007F147D007B017A00791C120FDD7E005B
:101B73007F147D007B017A007908120FDDC2962263
:040D2E008F088D0994
:100D3200E4F50AFE7F14FD7B017A007952120FDD81
:100D4200E50824FD6003020E13E509243F900052DA
:100D5200F0E53375F0648475F00A84E5F02430A37D
:100D6200F0E53375F00A8475F00A84E5F02430A3C7
:100D7200F0E53375F00A84E5F02430A3F0A3742C77
:100D8200F0E54175F0648475F00A84E5F02430A33F
:100D9200F0E54175F00A8475F00A84E5F02430A389
:100DA200F0E54175F00A84E5F02430A3F0A3742C39
:100DB200F0E54475F00A84E5F02430A3F0A3742C26
:100DC200F0E54075F0648475F00A84E5F02430A300
:100DD200F0E54075F00A8475F00A84E5F02430A34A
:100DE200F0E54075F00A84E5F02430A3F0A3742CFA
:100DF200F0E53E75F00A8475F00A84E5F02430A32C
:100E0200F0E53E75F00A84E5F02430A3F0A3743BCC
:100E1200F0E4F50A7452250AF582E43400F583E021
:0D0E2200FF121C06050AE50AC3941240E702
:010E2F0022A0
:041B83008F088D0931
:101B87007E007F147D007B017A007952120FDDE51C
:101B97000824D0700A900052E509F0A3F0A3F07B67
:081BA700017A007952021C7959
:10187700900005E07047900004E0D39400403E904C
:1018870000067401F0900009E0FF900008E0B5073A
:101897001190000AE0FF900008E0B50705E090000E
:1018A70070F07E007F147D007B017A007908120FAB
:1018B700DDE4900004F0900006F0A304F090000728
:0618C700E06002E4F022E3
:101A4E00E4F51CF51EF51AF51BF519F51FF51D909D
:101A5E00006BF090006DF0900067F0900069F090D0
:101A6E00006EF090006AF0900066F090006CF090BE
:081A7E000068F0900031F02235
:0D1EC400E51B6002151BE5196002151922CF
:071F3500E51F6002151F22E9
:071F3C00E51D6002151D22E6
:071F4300E51C6002151C22E1
:071F4A00E51A6002151A22DE
:071F5100E51E6002151E22CF
:101CC2009000682086057401F080037402F020837E
:101CD20007900031E04401F0208407900031E04495
:031CE20002F022EB
:101E5600900066E0D39F5008EFF090006CE004F02D
:011E66002259
:1012680090006AE014603114603F1460681460797B
:101278002404600302130620B40520A20280303043
:10128800B40320A20B90006A7401F0751D028077E8
:1012980090004A7401F0806F30B40320A206E51D67
:1012A8007065803DE4F51D804720B40B20A20890AE
:1012B800006A7404F0805020B40590004A80112020
:1012C800A20890004A7405F0803D751D1490006ACC
:1012D8007403F0803230B40930A206E51D7028800E
:1012E8000F90006A7402F0801E20B40330A207E455
:1012F80090006AF0801190004A7406F08009E4902A
:10130800006AF090004AF090004AE0B406037F4279
:04131800227F00220E
:101A860090006EE014601004701920932890006E88
:101A96007401F0751F1422309318E51F701790001B
:101AA6006EF02220930790006E7401F022E49000FD
:061AB6006EF0751B142206
:0A1F1600900069E0B40202E4F0223A
:1013AE00900069E0146028146007146055240370DF
:1013BE006B20970D9000697401F0751B057519145B
:1013CE0022900075E06067E5517063F0021F1630E1
:1013DE009717E5196007E4900069F0800FE51B7020
:1013EE000B9000697403F08003751B05900072E08A
:1013FE0064016004E0B403069000727402F075514B
:10140E003C22900075E06003E014F09000697402D5
:10141E00F0900072E0B402167403F0222097079049
:0F142E0000697401F022E4900069F0751B05223B
:1019230090006BE01460151460252402703B20B313
:101933003DE51C703C90006B7402F02230B308E468
:1019430090006BF0751C0A121F167F0E021E5620A4
:10195300A10DE5527009900075E004F07552969060
:10196300006B7401F075513C22E490006BF0751C20
:021973000A2246
:1016D70030B35E2094028059900067E014601514BF
:1016E700601C2402705C20A05EE51A705D900067A4
:1016F7007402F02230A053E4900067F08049900014
:1017070068E0B40109900070E0B4030780007F012E
:10171700121E569000677401F0E4900075F0F552C0
:10172700F551900068E0B4010E900070E06403602A
:1017370006E4900067F022900072E0B4010C740494
:0B174700F022E4900067F0751A0A22FF
:1019750090006DE014602F1460122402703B2094D7
:101985003DE51E703C90006D7402F02220A10DE52E
:10199500527009900075E004F075529690006D74D0
:1019A50001F075513C22309408E490006DF0751EED
:1019B5000A121F167F0D021E56E490006DF0751E6B
:0219C5000A22F4
:101E870090007AE0B40108121F167F0B121E56222B
:0D1ED10090007AE0B402057F02121E562236
:101D8C0090004AE0B4031490006FE0C39408400B39
:0C1D9C00E0D3940E50057F0F121E56225B
:101C9E0090004AE06405701B90006FE06404600ED3
:101CAE00E064036009E064026004E0B401057F05AE
:041CBE00121E56227A
:101D2900900069E0B4011990004AE06405601190DF
:101D3900004FE064046004E0B403057F08121E56F6
:011D49002277
:101BAF0090004AE064037023900069E06402701BA8
:101BBF00900075E07015900068E0B4010990007016
:0C1BCF00E0B4030780007F04121E5622C1
:101D4A0090006EE0B4011990004AE06405601190B9
:101D5A00004FE064046004E0B403057F09121E56D4
:011D6A002256
:101E080090006FE0B4100C90004AE0B403057F1115
:041E1800121E56221E
:101E1C0090006FE0B4060C90004AE0B405057F0713
:041E2C00121E56220A
:1018170090006FE0F46058E064FE6053121268EFC6
:1018270060057F42121DDA900075E0600830A1055F
:10183700E4F0121F16121A861213AE121923121988
:1018470075121E87121D29121D4A121ED11216D794
:10185700121BAF121D8C121C9E121E08121E1C900A
:10186700006CE07005900066F022E490006CF022B6
:041F6D0041005103DB
:1015D8009000347405F090004F7401F0900035F0DD
:1015E80090004AF0E4900030F0F545F546F52FF507
:1015F80030F531F532F539F53AF53BF53CF533FE82
:101608007F0EFDFB7A007921120FDD7E007F037DBE
:10161800007B007A007936120FDD7E007F137D0093
:101628007B017A007937120FDDE4F547F548F53488
:10163800F53590004DF0A3F0900050F0900036F092
:1016480090004BF0A3F0900032F0A3F0C200021E0D
:0116580097FA
:0F1E97007E007F087D007B007A00793D020FDD21
:0F1EA600E53C453B6008E53C153C7002153B22CE
:101DC200E53A45396009E53A153A700B15392205AD
:081DD20046E5467002054522BA
:101A1000BF0A06E535241E8007BF121BE5352414D6
:101A2000F548E43534F547900046E0243CFEE433C5
:101A3000900032F0A3CEF0D3900033E0942C9000CD
:0E1A400032E0940140077401F0A3742CF022F0
:101C2D00900031E08FF0A4F0E02DF0E075F003842A
:101C3D0025E0FFC3E5339F900050F0900031E0FFA9
:061C4D00C3E5339FF02205
:1006EF00E4FBFAEF24FE60441470030208621470F6
:1006FF00030208A2240360030208B1900047E065DB
:10070F003370030208B1E533F0AF30A3E02437F5BF
:10071F0082E43400F583EFF0900048E004F0E064E9
:10072F000C60030208B17406F00208B19000457422
:10073F00FFF0E4900048F0900048E02437F582E4A1
:10074F003400F583E02BFBE43AFA900048E02437BD
:10075F00F582E43400F583E0FF900045E0FEEFC33F
:10076F009E5012900048E02437F582E43400F58360
:10077F00E0900045F0900048E004F0E0B406B87C4B
:10078F00007D06AF03AE02120F62AA06AB07900000
:10079F0043EFF0E4900046F09000487406F09000AC
:1007AF0048E02437F582E43400F583E02BFBE43A8C
:1007BF00FA900048E02437F582E43400F583E0FF37
:1007CF00900046E0FEEFD39E4012900048E02437A1
:1007DF00F582E43400F583E0900046F0900048E0A5
:1007EF0004F0E0B40CB87C007D06AF03AE02120F2C
:1007FF0062900044EFF0900043E0D394144005E082
:10080F0094504009900044E0D394DC403E90004661
:10081F00E0D394BE40028033900046E0D3949640DC
:10082F00089000497404F08079900046E0D3946EEC
:10083F0040089000497403F08068900046E0D3941C
:10084F005A90004940087402F08057900049740193
:10085F00F0804FE4900046F0900048F0900048E0A0
:10086F002437F582E43400F583E0FF900046E0FE84
:10087F00EFD39E4012900048E02437F582E4340015
:10088F00F583E0900046F0900048E004F0E0B40CEF
:10089F00CB800F7E007F137D007B017A00793712AA
:0708AF000FDD900049E0FF9E
:0108B600221F
:100E30008F088D098B0AE50864056003020EF9909E
:100E40000034E065096003020F2490004AE0650A5F
:100E50006003020F247F021206EFEF146015146086
:100E60000A14600B1470117F0A800A7F0880067FC5
:100E70000980027F0B121DDAE533C394505026908F
:100E80000034740AF090004D7402F0A37458F0E539
:100E90003545347005F5347535327F0A121A107DE8
:100EA0000F7F058051E533C394825026900034743F
:100EB00012F090004D7403F0A37484F0E5354534CE
:100EC0007005F53475351E7F12121A107D237F0AC6
:100ED00080249000347412F090004D7403F0A374D9
:100EE00084F0E53545347005F5347535327F1212DE
:100EF0001A107D237F0A021C2D900034E0C395094F
:100F0000502290004AE0B50A0BE508B407069000AD
:100F1000347407F090004D7404F0A374B0F075477A
:050F20000175482C22C0
:101C5300E53A45397017D3E5469FE5459E400E901A
:101C63000036E06005E014F080097F012290003621
:061C73007402F07F002264
:1009F200E4FEEF24FE6061147003020AE614700341
:100A0200020AF424036003020B0DE52D640B702926
:100A1200F531F532FE74212EF8E6D39532E49531A4
:100A2200400A74212EF8E6753100F5320EBE0AE551
:100A320085322E752D0CAF2E22E52DC3940B501549
:100A4200E52C6533600F85332CAF30AE2D74212E2B
:100A5200F8A607052DAF2E22E548B42D0DE547B4C3
:100A62000108900034E0FF121A10E548642C70046B
:100A7200E54764017003020B0DE538C3940250167A
:100A8200E5359414E5349400400CAF35AE38743635
:100A92002EF8A6070538E53864027045AF36D3EF65
:100AA2009535E495344028AF37D3EF9535E4953446
:100AB200401DAF22AD21ED2FF532E433F531E531A2
:100AC200C313F531E53213F5328531348532357E83
:100AD200007F037D007B007A007936120FDD7F01F3
:100AE200227F00227E007F0E7D007B007A0079212A
:100AF2008016E4900032F0A3F075470175482DFE90
:0D0B02007F03FDFB7A007936120FDD7F00C6
:010B0F0022C3
:10002600A2B2300001B35011A2B2920085452F85CD
:100036004630E4F545F5460533900030E0120FB73B
:1000460000890000A801015B02020C030379040089
:10005600D80B00F10C01210D017C1501951601B09C
:100066001701D81801EA19024A1F026320028721E4
:1000760003B22903CB2A03E32B04152C04272D00F6
:1000860000044790004AE0B405069000307404F07E
:1000960090004AE064036003020447900030740253
:1000A600F022121E97754201754302121EF67B0559
:1000B6007D097F08120E307F041206EFE4F533F552
:1000C60039753A02900030740BF0900035740202D4
:1000D6000242E53A45396003020447D2A3C287F5D6
:1000E60039753A0A900030740CF022E53A453960C9
:1000F6000302044790004DE0F53BA3E0F53C75395B
:1001060003753AE8900030740DF090004FE0B404A7
:1001160002C2A590004F7402020281E53A45397089
:1001260002D2A5E53C453B700A90004F04F07F3EA5
:1001360002042490004CE02548FF90004BE0354730
:10014600CF2450CF3400FE121C53EF700302044735
:100156007F200204247B037D087F05120E30D2A582
:10016600D2A7753900753A029000307415F09000E8
:100176004F74030203ACE53A45396003020447D2E3
:10018600A3C287F539753A0A9000307416F022E555
:100196003A45396003020447D2A7C2A6C2A5F53B79
:1001A600753C1E9000307417F022E53C453B7015F7
:1001B600D2A590004AE0900030B403047419F022EE
:1001C60074180203FB90004AE064037003020447BC
:1001D600801A90004AE0B403069000307419F07F4C
:1001E6003F02042490004AE06403600B90004F74C1
:1001F60001F07F1002044190004FE06401600302A9
:1002060004477403F022121E97E4F5427543041264
:100216001EF67B037D097F07120E307F031209F25B
:100226007F041206EFE4F533F539753A0290003093
:10023600741FF090004F7404F0900035F0D2A7D2EE
:10024600A6D2A522E53A45396003020447C2A3D2E5
:1002560087F539753A0A9000307420F022E53A4560
:1002660039600302044790004DE0F53BA3E0F53CFE
:10027600753903753A209000307421F0C2A7C2A6E2
:1002860022900034E0D394094058E533941A500C78
:1002960090004B7401F0A3742CF0803E900050E067
:1002A600FFE533D39F4009C2A57F011206EF802ADE
:1002B600900031E0FFE533D39F4018D2A77F0112AB
:1002C60006EF900032E0FFA3E090004BCFF0A3EFE3
:1002D600F08007E490004BF0A3F0E53A4539703C16
:1002E6008030E533C39414500C90004B7401F0A396
:1002F600742CF08007E490004BF0A3F0E533D39420
:10030600284009D2A7C2A57F011206EFE53A453972
:10031600700A7F011209F27534008F35E53C453BC2
:10032600700E90004F04F0D2A7D2A57F400204249D
:1003360090004CE02548FF90004BE03547FE121C2C
:1003460053EF700302044790006FE06406700302E7
:1003560004477F0A121E567F20121DDA7F041209F7
:10036600F2121F16900072E06401600302044774E3
:1003760005F0227F031206EF7F021209F2EF6008F2
:10038600900034E0FF121A107B057D077F05120EE0
:1003960030D2A5D2A7753900753A0290003074297B
:1003A600F090004F7405F0900035F022E53A45399B
:1003B6006003020447C2A3D287F539753A0A900052
:1003C60030742AF022E53A45397076D2A7C2A6C221
:1003D600A5F53B753C14900030742BF022E53C45A6
:1003E6003B701AD2A590004AE0900030B405047420
:1003F6002DF022742CF090004F7401F02290004AE8
:10040600E06405603C90004F7401F07F06802C90FC
:10041600004AE0B40506900030742DF07F41021DBD
:10042600DA90004FE0B401037405F090004AE064EE
:1004360005600E90004F7401F07F06121E56121EC4
:02044600F6229C
:071F5800E53F6002153F2286
:10100900E53F60030210E2E54260030210E2E543B6
:10101900640460030210E20540E540C394235003D1
:101029000210DFE54075F00584E5F060030210DF8A
:10103900E540C3944B40030210DF0541AF41EF7512
:10104900F006A42427FFE435F0FEAD33D3ED9FEE7F
:101059006480F87480984002054485333DAF417E31
:10106900007C007D06120F50EF2421FFE43EFEAD07
:101079003DD3ED9FEE6480F87480984011E5417589
:10108900F006A42421FFC3E53D9F253EF53EE54436
:10109900C394025006E53E941C4015C2B7C2B67F00
:1010A90008121E567D197F03120D2E7F0B121DDAB1
:1010B900E53EC3940B40107D157F03120D2E7F086A
:1010C900121DDAC2B7C2B6E541B40803754201ADD3
:0A10D900437F03120D2E753F052220
:101659000000000000000000000000000000000081
:101669000000000000000004030000000000010069
:10167900010201000000000000000000000000005D
:101689000000000200020003030303000000000041
:101699000000000000000000000000000004000439
:1016A9000101010101010100000000000000000426
:1016B900000000000001010101000000000000001D
:0E16C90000040000000000000000000200000D
:101CE500C2AF759850758921758DFDD28ED2AC75B0
:101CF5008ACD758CF8D28CD2A9C2A8C2AAD2BCD280
:021D0500AF220B
:101D070090006F74FFF0E4900071F0900073F09012
:101D17000070F0900074F0900072F0900075F0F58C
:021D2700522246
:101E4400EF75F0C8A4FFAEF0EF1F70011E144E70C2
:011E5400F796
:011E5500226A
:0F1EB500E55360021553900005E0600214F0221F
:071F5F00E552600215522259
:071F6600E551600215512254
:101D6B00121CE5121B53121D07121EDE121E7712D8
:101D7B001A4E1200031215D8121EEA121E67020B1E
:011D8B001047
:1018CD00900066E0FF90006FE0C39F504890006667
:1018DD00E0FF90004FE075F012A42459F582E43436
:1018ED0016F583E5822FF582E43583F583E4939035
:1018FD000071F0E0601FE0900030F0900066E09025
:10190D00006FF020A10FE064086004E0B40A0690B7
:06191D000075E004F02259
:1008B700900068E06402703D900070E014602714B7
:1008C700600E14600B24FE60030470247F03801104
:1008D700E4900067F0751A0A900069F0751B057FB0
:1008E7000C121E568000900035E0FD7F30121B83EE
:1008F700E4900070F0900068E0640160030209F181
:1009070090006FE0F470030209F1E064FE700302E7
:1009170009F1E55360030209F1755314900035E0BE
:1009270024FE70030209E71470030209E724FE603E
:10093700060460030209E7900070E024FE60641477
:10094700602714600D1460030209DAE4900072F066
:10095700804D900072E0700204F0900072E0B402E3
:10096700047D02806C7D018068900072E070020453
:10097700F0900035E0B404077D047F30121B8390AC
:100987000072E0B404047D04804B900072E0B4036D
:100997000E7D047F30121B83E4900072F0803B7D54
:1009A700018032900072E064026003121F1690000B
:1009B70072E0700204F0900035E0B404077F0C1277
:1009C7001E568016900072E0B403047D0480027DF9
:1009D7000180027D017F30121B83E4900070F022BA
:0B09E700900035E0FD7F30121B8322E2
:10131C001208B790006FE02402606114604314B4AB
:10132C0012005078901337F82828730213A5021373
:10133C00A50213A50213A50213A50213A20213A55D
:10134C000213A20213A50213A50213A50213A502F0
:10135C0013A50213A50213A50213A20213A50213CF
:10136C00A2121CC220B30B20A00820A20575541E8B
:10137C00800375540690006F74FEF02220B3112088
:10138C00A00E20A20BE554700790007C04F08006A0
:10139C00E554700D8007E480040218CDE490006FD2
:0213AC00F0222D
:03000B000219C710
:1019C700C0E0C0F0C083C082C0D075D000C000C0E6
:1019D70001C002C003C004C005C006C007C28D75A0
:1019E7008ACD758CF8121F2E121DC2121EB5D00794
:1019F700D006D005D004D003D002D001D000D0D07B
:091A0700D082D083D0F0D0E0328F
:071E3000740129F9E43AFAFC
:0D1E3700E4F5E7F5E5F5E675E380F5E42256
:101AEF00AD07AC0675E78175E5018CE3AF058FE4B3
:101AFF0075E64675E6B900E5E2120F3E0DBD000131
:101B0F000C121E30E51815187002151714451770B2
:021B1F00D322CF
:101DA800AD07AC0675E78175E5038CE3AF058FE4F5
:0A1DB80075E64675E6B900021E3715
:101B2100AD07AC0675E78175E5028CE3AF058FE47F
:101B3100120F25F5E275E64675E6B9000DBD000107
:101B41000C121E30E515151570021514144514708C
:021B5100D3229D
:100B1000E4F508F509F5E190007F7443F07B017A74
:100B20000079527517007518087F007E20121AEFA1
:100B3000E4F50874522508F582E43400F583E0FFFB
:100B4000901F72E493FEEFB5060205090508E5085B
:100B5000B408E0E509B4080690007F7401F0900045
:100B60007FE064436003020C22F5087B027D007C79
:100B7000027F007E20121ABC7F0A121E447B027D77
:100B8000AA7F007E201217B57F0A121E447B027DC9
:100B9000AA7F007E201215535002C2917F0A121EB6
:100BA000447B027D007C027F007E20121ABC7F0AFB
:100BB000121E447B027D557F007E201217B57F0AEE
:100BC000121E447B027D557F007E20121553500279
:100BD000C2917F0A121E440508E508C39401408BA8
:100BE0003091377F007E20121DA8E4F508901F7217
:100BF000E493FF74522508F582E43400F583EFF0A6
:100C00000508E508B408E67B017A007952751400FE
:100C10007515087F007E20021B21D29190007F7401
:020C200044F09E
:010C220022AF
:0A1ABC008E0A8F0B8C0C8D0D8B0E23
:101AC600E4F50FE50FC3950E501ED2A4AF0BAE0A78
:101AD600121DA87F0A121E44E50D250BF50BE50C19
:081AE600350AF50A050F80DB4B
:011AEE0022D5
:0617B5008E0A8F0B8B0C65
:1017BB00E4F50D745A250DF582E43400F583EDF054
:1017CB00050DE50DB408ECE4F50DE50DC3950C50D6
:1017DB003AE4F50E7B017A00795A751400751508F9
:1017EB00AF0BAE0A121B217408250BF50BE4350A5F
:1017FB00F50A7F0A121E44050EE50EC3944040D431
:0B180B00B2A47F1E121E44050D80BF1A
:0118160022AF
:081553008E0A8F0B8D0C8B0D2D
:10155B00E4F510F511F50EE50EC3950D5056E4F5B7
:10156B000F7B017A00795A751700751808AF0BAE0F
:10157B000A121AEF7408250BF50BE4350AF50AE489
:10158B00FF745A2FF582E43400F583E0B50C08059F
:10159B0011E511700205100FBF08E6B2A47F0A1205
:1015AB001E44050FE50FC3944040B67F1E121E4428
:1015BB00050E80A3E50D25E0FEE424FFFFEE34FFCE
:0D15CB00FEC3E5119FE5109E500122C322D2
:10144900021BDBE493A3F8E493A34003F68001F2C3
:1014590008DFF48029E493A3F85407240CC8C333A4
:10146900C4540F4420C8834004F456800146F6DF73
:10147900E4800B0102040810204080901F6DE47E77
:10148900019360BCA3FF543F30E509541FFEE49368
:10149900A360010ECF54C025E060A840B8E493A32F
:1014A900FAE493A3F8E493A3C8C582C8CAC583CA5A
:1014B900F0A3C8C582C8CAC583CADFE9DEE780BE12
:011F7100006F
:100F2500BB010689828A83E0225002E722BBFE02CA
:090F3500E32289828A83E49322FD
:100F3E00BB010689828A83F0225002F722BBFE0192
:020F4E00F3228C
:100F5000EF8DF0A4A8F0CF8CF0A428CE8DF0A42EB5
:020F6000FE226F
:100F6200BC000BBE0029EF8DF084FFADF022E4CC73
:100F7200F875F008EF2FFFEE33FEEC33FCEE9DEC3C
:100F8200984005FCEE9DFE0FD5F0E9E4CEFD22ED82
:100F9200F8F5F0EE8420D21CFEADF075F008EF2FCC
:100FA200FFED33FD4007985006D5F0F222C398FDBD
:050FB2000FD5F0EA225A
:100FB700D083D082F8E4937012740193700DA3A3C9
:100FC70093F8740193F5828883E4737402936860DD
:060FD700EFA3A3A380DFDD
:100FDD00EF4E6012EF60010EEDBB010B89828A832B
:100FED00F0A3DFFCDEFA2289F05007F709DFFCA938
:0C0FFD00F022BBFEFCF309DFFCA9F0228F
:00000001FF
