:0300000002147572
:0C147500787FE4F6D8FD7581580214BCA5
:101EF500E4900090F0F51F90008FF090008EF02296
:071FAE00E51F6002151F2270
:100DB100900090E07003020EBB24FE601C146023BF
:100DC10014603314604724046003020EB090008362
:100DD100E06003020EBB020E88E51F6003020EBB3A
:100DE100020E76900083E06003020EBB751F239014
:100DF10000907404F022E51F6003020EBB7F021213
:100E01001EE490008FE004F0A37405F02290008F9F
:100E1100E024FE601224FE6022240324FB50626061
:100E21003814606D020EA7900078E01313543FFF51
:100E3100E533D39F5003020EBB803A900078E01354
:100E410013543F75F002A4FFAD33D3ED9FE5F06479
:100E510080F87480984063801C900078E0131354EC
:100E61003F75F003A4FFAD33D3ED9FE5F06480F847
:100E710074809840457F0B121EE49000907403F03B
:100E810022900083E07033751F239000907402F06C
:100E910022900083E07023751F239000907402F06C
:100EA100E490008FF0229000907402F0E48005E459
:0B0EB100900090F090008FF0F51F22E1
:071FF4000A03091303015B5E
:101C5600121D3A1217F312185312135412002E12B1
:101C66001083900094E0FF12044A1215011218B373
:081C7600120DB175E13F80DBA6
:0A1F9000E558D3940A4002155822C8
:0C1F6C009000947401F0E4F558D291222A
:10044A00900094E06F6005EFF0E4F558900094E0B6
:10045A0014B40F0040030206E790047175F003A478
:10046A00C58325F0C5837302049E0204A40204B85E
:10047A000205C20205DD0205F4020619020650024F
:10048A0006750206A502058A0204DA0204FC0205C0
:10049A002C020569E4F558D29122E558600A24F63F
:1004AA0060030206F00205B1755810C29122E558A0
:1004BA00601824F6601124FA600A24FA600302061E
:1004CA00F0D29122C291220205B175581CC2912222
:1004DA00E558601824F6601124F6600A24F66003D1
:1004EA000206F0D29122C291220205B1755882C247
:1004FA009122E558602624F6601F24F6601824F637
:10050A00601124F6600A24F660030206F0D29122F2
:10051A00C29122D29122C291220205B1755896C285
:10052A009122E558603324F6602D24F6602624F6DD
:10053A00601F24F6601824F6601124F6600A24F677
:10054A0060030206F0D29122C29122D29122C29174
:10055A0022D29122C29122804E7558AAC29122E5D6
:10056A0058601724F66011249C600A24F460030280
:10057A0006F0D29122C29122802D7558DEC29122B4
:10058A00E558602E24F6601F24FA601824FA6011D8
:10059A0024FA600A24FA60030206F0D29122C29178
:1005AA0022D29122C29122E4F55890009404F0D20A
:1005BA009122755828C29122E558601114600E24C0
:1005CA00F7600A24FA60030206F0D29122755816DF
:1005DA00C29122E558601114600E24F7600A24477C
:1005EA0060030206F0D291228056E558601F14601B
:1005FA001C24F76018244E601124FC600A24FC6055
:10060A00030206F0D29122C29122D291228031E5D0
:10061A0058602D14602A24F760262456601F24FC93
:10062A00601824FC601124FC600A24FC60030206A2
:10063A00F0D29122C29122D29122C29122D2912247
:10064A007558C8C29122E558601F14601C24F760CF
:10065A0018246F601124FB600A24EC60030206F080
:10066A00D29122C29122D29122806CE558602A143A
:10067A00602724F760232479601C24FB601524FB7F
:10068A00600E24FB600724EC705CD29122C2912296
:10069A00D29122C29122D29122803CE55812103185
:1006AA0006E10006E10106E10A06DE8706DB8C06A2
:1006BA00D89106D59606D29B06CFA006CCB40000E8
:1006CA0006F0D29122C29122D29122C29122D291D3
:1006DA0022C29122D291227558FAC2912290009494
:0706EA007401F0E4F5582251
:101F05009000937401F0E4900092F0900091F0221B
:0A1F9A00900092E06003E014F022D2
:101E5500900093E0FEEFC39E400CEFF0900091E000
:071E650004F0A37432F02227
:10108300900093E0121031112E0010CE0110CA020D
:1010930010CE0510D20610D60710E20810E609108C
:1010A300DA0A10DE0B10F21F10FF20110D3D111193
:1010B3003E11193F111540111D4111214210D24318
:1010C30010D644000011287F01801A7F0280167F0A
:1010D3000380127F0B800E7F0E800A7F0F80067FB6
:1010E3000C80027F0D12044AE4900093F0803C7F51
:1010F3000512044A900092E07031800B7F041204C1
:101103004A900092E07024A3801E7F0580127F091D
:10111300800E7F0A800A7F0680067F0780027F0891
:1011230012044A80069000937402F0900093E0D377
:10113300943C4012900091E070079000937402F089
:0711430022E4900091F0226C
:0C1F7800E4F553F554F551F552F55022F4
:071FB500E553600215532201
:10000E00E55245516008E552155270021551E554FE
:05001E006002155422F0
:0C1F8400D295E4F551F552F554F55022C9
:10150100900058E0640B7027C29020851C900083E6
:10151100E06408600EE064096009E0640A6004E0C8
:10152100B41006D2B7D2B68013C2B7D2B6800D902E
:101531000058E0B41F0BD290D2B7C2B675530A80DF
:1015410008E5537004D2B7D2B6E550146022146096
:101551002E24027034900058E075F00A846404600F
:1015610009E075F00A84FFBF021F7554140550226B
:10157100E5547015C29575510175522C055022E53F
:0A1581005245517004D29505502226
:08000300E4F51EF51CF51D22B9
:071FBC00E51E6002151E2264
:101E6C0090008AE0FFA3E090008CCFF0A3EFF0E4A9
:071E7C0090008AF0A3F022A0
:1017F300E51E7024751E0AE51C6002151C121F905D
:10180300121F52121FC3121FCA121FD1121FD81246
:101813001FDF121FE612000EE51C701E751C0AE581
:101823001D6002151D121FAE121F9A121FB5121E44
:101833006C121FB5121F34121FEDE51D7003751DC9
:101843000A90008BE004F0700690008AE004F02216
:0300230002114A7D
:10114A00C0E0C0F0C083C082C0D075D000C000C06B
:10115A0001C002C003C004C005C006C007309839E8
:10116A00C298900006E07031900004E0C3941440E5
:10117A000EE4F0FE7F14FD7B017A0079088061900D
:10118A000004E02408F582E43400F583E599F09040
:10119A000004E004F0A37405F0309947C299D2968E
:1011AA00900002E0FF900001E0FE6F601C741C2EAC
:1011BA00F582E43400F583E0F599900001E004F04B
:1011CA00C39414401EE4F0801A900003E4F09000E7
:1011DA0001F0A3F0C296FE7F14FD7B017A00791C10
:1011EA00121057D007D006D005D004D003D002D0B1
:0E11FA0001D000D0D0D082D083D0F0D0E0322F
:101C7E00900002E0241CF582E43400F583EFF0902E
:101C8E000002E004F0C394144002E4F0900003E07C
:071C9E00700404F0D299224A
:101CF1008B0A8A0B890CAB0AAA0BA90C120FB160D3
:101D010013050CE50C7002050B14F9120FB1FF124B
:051D11001C7E80E222AF
:101BCE007E007F087D007B017A0079001210577E1F
:101BDE00007F147D007B017A00791C1210577E0065
:101BEE007F147D007B017A007908121057C296226D
:0408B9008F198D1AEC
:1008BD00E4F51BFE7F14FD7B017A0079441210577D
:1008CD00E51924FD700302096224026003020A285F
:1008DD00900044E51AF0AE41AF427C277D10120F17
:1008ED00DC7C007D0A120FDCAF05ED2430A3F0AEE9
:1008FD0041AF427C037DE8120FDC7C007D0A120FB4
:10090D00DCAF05ED2430A3F0AE41AF427C007D6439
:10091D00120FDC7C007D0A120FDCAF05ED2430A335
:10092D00F0AE41AF427C007D0A120FDC7C007D0AE7
:10093D00120FDCAF05ED2430A3F0AE41AF427C00C9
:10094D007D0A120FDCAF05ED2430A3F0E51A240269
:10095D00A3F0020A28E51A243F900044F0E5337510
:10096D00F0648475F00A84E5F02430A3F0E5337566
:10097D00F00A8475F00A84E5F02430A3F0E53375B0
:10098D00F00A84E5F02430A3F0A3742CF0AE41AF4F
:10099D00427C277D10120FDC7C007D0A120FDCAF2C
:1009AD0005ED2430A3F0AE41AF427C037DE8120F7C
:1009BD00DC7C007D0A120FDCAF05ED2430A3F0AE18
:1009CD0041AF427C007D64120FDC7C007D0A120F6A
:1009DD00DCAF05ED2430A3F0AE41AF427C007D0AC3
:1009ED00120FDC7C007D0A120FDCAF05ED2430A365
:1009FD00F0AE41AF427C007D0A120FDCAF05ED2455
:100A0D0030A3F0A3742CF0900079E075F00A84E522
:100A1D00F0243090004FF0A3743BF0E4F51B7444C8
:100A2D00251BF582E43400F583E0FF121C7E051BC7
:070A3D00E51BC3940D40E727
:010A4400228F
:041BFE008F088D09B6
:101C02007E007F147D007B017A007930121057E547
:101C12000824D0700A900030E509F0A3F0A3F07B0D
:081C2200017A007930021CF187
:1018B300900005E07047900004E0D39400403E9010
:1018C30000067401F0900009E0FF900008E0B507FE
:1018D3001190000AE0FF900008E0B50705E09000D2
:1018E30084F07E007F147D007B017A00790812105A
:1018F30057E4900004F0900006F0A304F090000772
:06190300E06002E4F022A6
:101AC900E4F54CF54EF54AF54BF549F54FF54D90D2
:101AD900007FF0900081F090007BF090007DF09005
:101AE9000082F090007EF090007AF0900080F090F3
:081AF900007CF0900059F0227E
:0D1F5200E54B6002154BE549600215492280
:071FC300E54F6002154F22FB
:071FCA00E54D6002154D22F8
:071FD100E54C6002154C22F3
:071FD800E54A6002154A22F0
:071FDF00E54E6002154E22E1
:101D5E0090007C2086057401F080037402F02083CD
:101D6E0007900059E04401F0208407900059E044A8
:031D7E0002F0224E
:101EE40090007AE0D39F5008EFF0900080E004F077
:011EF40022CB
:1012080090007EE014603114603F146068146079C7
:10121800240460030212A620B40520A20280303004
:10122800B40320A20B90007E7401F0754D02807704
:101238009000727401F0806F30B40320A206E54D6F
:101248007065803DE4F54D804720B40B20A20890DE
:10125800007E7404F0805020B40590007280112044
:10126800A2089000727405F0803D754D1490007EC0
:101278007403F0803230B40930A206E54D7028803E
:101288000F90007E7402F0801E20B40330A207E4A1
:1012980090007EF080119000727406F08009E4904E
:1012A800007EF0900072F0900072E0B406037F4276
:0412B800227F00226F
:101B0100900082E0146010047019209328900082E4
:101B11007401F0754F1422309318E54F701790003F
:101B210082F0222093079000827401F022E4900059
:061B310082F0754B142246
:0A1FA40090007DE0B40202E4F02298
:1013E60090007DE014602814600714605524037093
:1013F6006B20970D90007D7401F0754B05754914AF
:1014060022900089E06067E5557063F0021FA43002
:101416009717E5496007E490007DF0800FE54B7073
:101426000B90007D7403F08003754B05900086E0F9
:1014360064016004E0B403069000867402F07555FA
:101446003C22900089E06003E014F090007D740275
:10145600F0900086E0B402167403F02220970790FD
:0F146600007D7401F022E490007DF0754B0522AB
:10195F0090007FE01460151460252402703B20B3C3
:10196F003DE54C703C90007F7402F02230B308E4E8
:10197F0090007FF0754C0A121FA47F0E021EE42008
:10198F00A10DE5567009900089E004F07556969008
:10199F00007F7401F075553C22E490007FF0754C88
:0219AF000A220A
:1017160030B35E209402805990007BE0146015146B
:10172600601C2402705C20A05EE54A705D90007B20
:101736007402F02230A053E490007BF080499000C0
:101746007CE0B40109900084E0B4030780007F01C7
:10175600121EE490007B7401F0E4900089F0F556C7
:10176600F55590007CE0B4010E900084E0640360BF
:1017760006E490007BF022900086E0B4010C74042D
:0B178600F022E490007BF0754A0A227C
:1019B100900081E014602F1460122402703B209487
:1019C1003DE54E703C9000817402F02220A10DE5AE
:1019D100567009900089E004F07556969000817464
:1019E10001F075553C22309408E4900081F0754E69
:1019F1000A121FA47F0D021EE4E4900081F0754ECF
:021A01000A22B7
:101F150090008EE0B40108121FA47F0B121EE4226C
:0D1F5F0090008EE0B402057F02121EE42205
:101E0700900072E0B40314900083E0C39408400B81
:0C1E1700E0D3940E50057F0F121EE42251
:101D1600900072E06405701B900083E06404600E1E
:101D2600E064036009E064026004E0B401057F0535
:041D3600121EE42273
:101DC50090007DE0B40119900072E0640560119007
:101DD5000077E064046004E0B403057F08121EE4A4
:011DE50022DB
:101C2A00900072E06403702390007DE06402701BF0
:101C3A00900089E0701590007CE0B401099000845E
:0C1C4A00E0B4030780007F04121EE422B7
:101DE600900082E0B40119900072E06405601190E1
:101DF6000077E064046004E0B403057F09121EE482
:011E060022B9
:101E8300900083E0B4100C900072E0B403057F115E
:041E9300121EE42215
:101E9700900083E0B4060C900072E0B405057F075C
:041EA700121EE42201
:10185300900083E0F46058E064FE6053121208EFD6
:1018630060057F42121E55900089E0600830A10593
:10187300E4F0121FA4121B011213E612195F1219CE
:10188300B1121F15121DC5121DE6121F5F12171686
:10189300121C2A121E07121D16121E83121E979067
:1018A3000080E0700590007AF022E4900080F0223E
:040026004100790319
:10158B0090005C7405F09000777401F090005DF0B2
:10159B00900072F0E4900058F0F545F546F52FF504
:1015AB0030F531F532F539F53AF53BF53CF533FECF
:1015BB007F0EFDFB7A0079211210577E007F037D91
:1015CB00007B007A0079361210577E007F137D0066
:1015DB007B017A00795F121057E4F547F548F53433
:1015EB00F535900075F0A3F0900078F090005EF068
:1015FB00900073F0A3F090005AF0A3F0C200121FFA
:08160B00259000797403F02220
:0F1F25007E007F087D007B007A00793D02105717
:0F1F3400E53C453B6008E53C153C7002153B223F
:101E3D00E53A45396009E53A153A700B1539220531
:081E4D0046E54670020545223E
:101A8B00BF0A06E535241E8007BF121BE53524145B
:101A9B00F548E43534F54790006EE0243CFEE43322
:101AAB0090005AF0A3CEF0D390005BE0942C900002
:0E1ABB005AE0940140077401F0A3742CF0224D
:101CA500900059E08FF0A4F0E02DF0E075F003848A
:101CB50025E0FFC3E5339F900078F0900059E0FFE1
:061CC500C3E5339FF0228D
:1006F100E4FBFAEF24FE60441470030208641470F2
:10070100030208A4240360030208B390006FE065AC
:100711003370030208B3E533F0AF30A3E0245FF593
:1007210082E43400F583EFF0900070E004F0E064BF
:100731000C60030208B37406F00208B390006D74F4
:10074100FFF0E4900070F0900070E0245FF582E427
:100751003400F583E02BFBE43AFA900070E0245F6B
:10076100F582E43400F583E0FF90006DE0FEEFC315
:100771009E5012900070E0245FF582E43400F5830E
:10078100E090006DF0900070E004F0E0B406B87CF9
:10079100007D06AF03AE02120FDCAA06AB07900084
:1007A1006BEFF0E490006EF09000707406F0900032
:1007B10070E0245FF582E43400F583E02BFBE43A3A
:1007C100FA900070E0245FF582E43400F583E0FFE5
:1007D10090006EE0FEEFD39E4012900070E0245F27
:1007E100F582E43400F583E090006EF0900070E053
:1007F10004F0E0B40CB87C007D06AF03AE02120F2A
:10080100DC90006CEFF090006BE0D394144005E0B5
:100811009450400990006CE0D394DC403E90006E0F
:10082100E0D394BE4002803390006EE0D3949640B2
:10083100089000717404F0807990006EE0D3946E9A
:1008410040089000717403F0806890006EE0D394CA
:100851005A90007140087402F08057900071740141
:10086100F0804FE490006EF0900070F0900070E026
:10087100245FF582E43400F583E0FF90006EE0FE32
:10088100EFD39E4012900070E0245FF582E43400C3
:10089100F583E090006EF0900070E004F0E0B40C9D
:1008A100CB800F7E007F137D007B017A00795F1280
:0708B1001057900071E0FFF9
:0108B800221D
:100EBC008F088D098B0AE50864056003020F859085
:100ECC00005CE065096003020FB0900072E0650AF7
:100EDC006003020FB07F021206F1EF14601514606C
:100EEC000A14600B1470117F0A800A7F0880067F39
:100EFC000980027F0B121E55E533C3945050269087
:100F0C00005C740AF09000757402F0A37458F0E55C
:100F1C003545347005F5347535327F0A121A8B7DE0
:100F2C000F7F058051E533C39482502690005C748A
:100F3C0012F09000757403F0A37484F0E535453419
:100F4C007005F53475351E7F12121A8B7D237F0ABE
:100F5C00802490005C7412F09000757403F0A374FC
:100F6C0084F0E53545347005F5347535327F121251
:100F7C001A8B7D237F0A021CA590005CE0C39509A7
:100F8C005022900072E0B50A0BE508B407069000F9
:100F9C005C7407F09000757404F0A374B0F075479E
:050FAC000175482C2234
:101CCB00E53A45397017D3E5469FE5459E400E90A2
:101CDB00005EE06005E014F080097F012290005E59
:061CEB007402F07F0022EC
:100B8000E4FEEF24FE6061147003020C7414700321
:100B9000020C8224036003020C9BE52D640B702978
:100BA000F531F532FE74212EF8E6D39532E4953115
:100BB000400A74212EF8E6753100F5320EBE0AE5C2
:100BC00085322E752D0CAF2E22E52DC3940B5015BA
:100BD000E52C6533600F85332CAF30AE2D74212E9C
:100BE000F8A607052DAF2E22E548B42D0DE547B434
:100BF000010890005CE0FF121A8BE548642C700439
:100C0000E54764017003020C9BE538C3940250165B
:100C1000E5359414E5349400400CAF35AE387436A5
:100C20002EF8A6070538E53864027045AF36D3EFD5
:100C30009535E495344028AF37D3EF9535E49534B6
:100C4000401DAF22AD21ED2FF532E433F531E53112
:100C5000C313F531E53213F5328531348532357EF3
:100C6000007F037D007B007A0079361210577F01E8
:100C7000227F00227E007F0E7D007B007A0079219A
:100C80008016E490005AF0A3F075470175482DFED8
:0D0C90007F03FDFB7A0079361210577F00BC
:010C9D002234
:10002E00A2B2300001B35011A2B2920085452F85C5
:10003E004630E4F545F5460533900058E012103190
:10004E0000910000B001016002021103037B040065
:10005E00DD0B00F60C01260D018115019A1601B576
:10006E001701DD1801EF19024C1F026520028921CC
:10007E0003B42903CD2A03E52B04172C04292D00E4
:10008E00000449900072E0B405069000587404F024
:10009E00900072E0640360030204499000587402F9
:1000AE00F022121F25754302121F847B057D097FE6
:1000BE0008120EBC7F041206F1E4F533F539753AD9
:1000CE0002900058740BF090005D7402020244E539
:1000DE003A45396003020449D2A3C287F539753A0D
:1000EE000A900058740CF022E53A45396003020478
:1000FE0049900075E0F53BA3E0F53C753903753A80
:10010E00E8900058740DF0900077E0B40402C2A598
:10011E009000777402020283E53A45397002D2A547
:10012E00E53C453B700A90007704F07F3E020426C2
:10013E00900074E02548FF900073E03547CF2450BF
:10014E00CF3400FE121CCBEF70030204497F200255
:10015E0004267B037D087F05120EBCD2A5D2A7759F
:10016E003900753A029000587415F09000777403B8
:10017E000203AEE53A45396003020449D2A3C287B1
:10018E00F539753A0A9000587416F022E53A453959
:10019E006003020449D2A7C2A6C2A5F53B753C1E58
:1001AE009000587417F022E53C453B7015D2A5908F
:1001BE000072E0900058B403047419F0227418020F
:1001CE0003FD900072E064037003020449801A90EC
:1001DE000072E0B403069000587419F07F3F0204D9
:1001EE0026900072E06403600B9000777401F07F3C
:1001FE0010020443900077E0640160030204497426
:10020E0003F022121F25754304121F847B037D0900
:10021E007F07120EBC7F03120B807F041206F1E4DF
:10022E00F533F539753A02900058741FF090007747
:10023E007404F090005DF0D2A7D2A6D2A522E53AC2
:10024E0045396003020449C2A3D287F539753A0ACB
:10025E009000587420F022E53A45396003020449B3
:10026E00900075E0F53BA3E0F53C753903753A2037
:10027E009000587421F0C2A7C2A62290005CE0D371
:10028E0094094058E533941A500C9000737401F0A1
:10029E00A3742CF0803E900078E0FFE533D39F40AE
:1002AE0009C2A57F011206F1802A900059E0FFE5F0
:1002BE0033D39F4018D2A77F011206F190005AE067
:1002CE00FFA3E0900073CFF0A3EFF08007E490005F
:1002DE0073F0A3F0E53A4539703C8030E533C394B2
:1002EE0014500C9000737401F0A3742CF08007E48A
:1002FE00900073F0A3F0E533D394284009D2A7C23F
:10030E00A57F011206F1E53A4539700A7F01120BFD
:10031E00807534008F35E53C453B700E90007704B8
:10032E00F0D2A7D2A57F40020426900074E02548A3
:10033E00FF900073E03547FE121CCBEF70030204F2
:10034E0049900083E0640670030204497F0A121E7E
:10035E00E47F20121E557F04120B80121FA4900002
:10036E0086E0640160030204497405F0227F0312E3
:10037E0006F17F02120B80EF600890005CE0FF1226
:10038E001A8B7B057D077F05120EBCD2A5D2A775F1
:10039E003900753A029000587429F0900077740570
:1003AE00F090005DF022E53A45396003020449C23F
:1003BE00A3D287F539753A0A900058742AF022E5CF
:1003CE003A45397076D2A7C2A6C2A5F53B753C1444
:1003DE00900058742BF022E53C453B701AD2A59044
:1003EE000072E0900058B40504742DF022742CF0C5
:1003FE009000777401F022900072E06405603C90EA
:10040E0000777401F07F06802C900072E0B4050630
:10041E00900058742DF07F41021E55900077E0B485
:10042E0001037405F0900072E06405600E90007791
:0C043E007401F07F06121EE4121F8422DD
:101698000000000000000000000000000000000042
:1016A800000000000000000403000000000001002A
:1016B800010201000000000000000000000000001E
:1016C8000000000200020003030303000000000002
:1016D80000000000000000000000000000040004FA
:1016E80001010101010101000000000000000004E7
:1016F80000000000000101010100000000000000DE
:0E1708000004000000000000000000020000CD
:101D8100C2AF759850758921758DFDD28ED2AC7513
:101D91008ACD758CF8D28CD2A9C2A8C2AAD2BCD2E3
:021DA100AF226F
:101EBF00E4F5C9F5C875CD4CF5CCD2CAD2AFD2ADC9
:031ECF00D2CA2252
:101DA30090008374FFF0E4900085F0900087F0903A
:101DB3000084F0900088F0900086F0900089F0F5A0
:021DC3005622A6
:101ED200EF75F0C8A4FFAEF0EF1F70011E144E7034
:011EE200F708
:011EE30022DC
:0F1F4300E55760021557900005E0600214F02288
:071FE600E5566002155622CA
:071FED00E5556002155522C5
:101D3A00121D81121BCE121EBF121DA3121F6C127E
:101D4A001F05121AC912000312158B121F78121ED0
:041D5A00F5020C9EE4
:1019090090007AE0FF900083E0C39F504890007AEE
:10191900E0FF900077E075F012A42498F582E43492
:1019290016F583E5822FF582E43583F583E49390F8
:101939000085F0E0601FE0900058F090007AE09098
:101949000083F020A10FE064086004E0B40A069067
:061959000089E004F02209
:100A450090007CE06402703D900084E014602714FF
:100A5500600E14600B24FE60030470247F03801174
:100A6500E490007BF0754A0A90007DF0754B057F98
:100A75000C121EE4800090005DE0FD7F30121BFE2D
:100A8500E4900084F090007CE064016003020B7F39
:100A9500900083E0F47003020B7FE064FE700302B4
:100AA5000B7FE5576003020B7F75571490005DE0DF
:100AB50024FE7003020B75147003020B7524FE608F
:100AC50006046003020B75900084E024FE60641444
:100AD500602714600D146003020B68E4900086F033
:100AE500804D900086E0700204F0900086E0B4022C
:100AF500047D02806C7D018068900086E0700204B0
:100B0500F090005DE0B404077D047F30121BFE9079
:100B15000086E0B404047D04804B900086E0B403B5
:100B25000E7D047F30121BFEE4900086F0803B7D35
:100B3500018032900086E064026003121FA49000D9
:100B450086E0700204F090005DE0B404077F0C12AB
:100B55001EE48016900086E0B403047D0480027DC7
:100B65000180027D017F30121BFEE4900084F0229B
:0B0B750090005DE0FD7F30121BFE22AF
:10135400120A45900083E02402606114604314B4CF
:101364001200507890136FF82828730213DD0213CB
:10137400DD0213DD0213DD0213DD0213DA0213DDD5
:101384000213DA0213DD0213DD0213DD0213DD02A0
:1013940013DD0213DD0213DD0213DA0213DD02137F
:1013A400DA121D5E20B30B20A00820A205751F1EB3
:1013B4008003751F0690008374FEF02220B3112071
:1013C400A00E20A20BE51F700790009004F0800689
:1013D400E51F700D8007E48004021909E49000837E
:0213E400F022F5
:03000B00021A03D3
:101A0300C0E0C0F0C083C082C0D075D000C000C0A9
:101A130001C002C003C004C005C006C007C28D7563
:101A23008ACD758CF8121FBC121E3D121F43D007BE
:101A3300D006D005D004D003D002D001D000D0D03E
:091A4300D082D083D0F0D0E03253
:1012BC00E533C3940150030213530542E542700217
:1012CC000541E5429432E5419400407BAE41AF428A
:1012DC007C007D05120FDCED4C706CD3E542945014
:1012EC00E541940050610540AF40EF75F004A42433
:1012FC0026FFE435F0FEAD33C3ED9FEE6480F87449
:10130C00809840020544E540D394014008E53395AC
:10131C003D253FF53F85333DE544C3940440057FAF
:10132C0008121EE4E540B40617E53FC3941A4007C3
:10133C007F08121EE48009E53FC394104002B2A45A
:08134C00AD437F031208B92232
:03002B00021A4C6A
:101A4C00C0E0C0F0C083C082C0D075D000C000C060
:101A5C0001C002C003C004C005C006C007C2CFC28B
:101A6C00CE1212BCD007D006D005D004D003D002C1
:0F1A7C00D001D000D0D0D082D083D0F0D0E032D3
:071EAB00740129F9E43AFA81
:0D1EB200E4F5E7F5E5F5E675E380F5E422DB
:101B6A00AD07AC0675E78175E5018CE3AF058FE437
:101B7A0075E64675E6B900E5E2120FCA0DBD000129
:101B8A000C121EABE51815187002151714451770BC
:021B9A00D32254
:101E2300AD07AC0675E78175E5038CE3AF058FE479
:0A1E330075E64675E6B900021EB21E
:101B9C00AD07AC0675E78175E5028CE3AF058FE404
:101BAC00120FB1F5E275E64675E6B9000DBD000100
:101BBC000C121EABE5151515700215141445147096
:021BCC00D32222
:100C9E00E4F508F509F5E19000937443F07B017AD1
:100CAE000079307517007518087F007E20121B6AB8
:100CBE00E4F50874302508F582E43400F583E0FF8E
:100CCE00901FF4E493FEEFB5060205090508E5084A
:100CDE00B408E0E509B408069000937401F09000A2
:100CEE0093E064436003020DB0F5087B027D007C47
:100CFE00027F007E20121B377F0A121ED27B027DDE
:100D0E00AA7F007E201217917F0A121ED27B027DCF
:100D1E00AA7F007E201216135002C2917F0A121E65
:100D2E00D27B027D007C027F007E20121B377F0A61
:100D3E00121ED27B027D557F007E201217917F0AF4
:100D4E00121ED27B027D557F007E2012161350029A
:100D5E00C2917F0A121ED20508E508C39401408B8A
:100D6E003091377F007E20121E23E4F508901FF489
:100D7E00E493FF74302508F582E43400F583EFF038
:100D8E000508E508B408E67B017A00793075140091
:100D9E007515087F007E20021B9CD29190009374E3
:020DAE0044F00F
:010DB0002220
:0A1B37008E0A8F0B8C0C8D0D8B0EA7
:101B4100E4F50FE50FC3950E501ED2A4AF0BAE0AFC
:101B5100121E237F0A121ED2E50D250BF50BE50C93
:081B6100350AF50A050F80DBCF
:011B69002259
:061791008E0A8F0B8B0C89
:10179700E4F50D7438250DF582E43400F583EDF09A
:1017A700050DE50DB408ECE4F50DE50DC3950C50FA
:1017B7003AE4F50E7B017A0079387514007515083F
:1017C700AF0BAE0A121B9C7408250BF50BE4350A08
:1017D700F50A7F0A121ED2050EE50EC3944040D4C7
:0B17E700B2A47F1E121ED2050D80BFB1
:0117F20022D4
:081613008E0A8F0B8D0C8B0D6C
:10161B00E4F510F511F50EE50EC3950D5056E4F5F6
:10162B000F7B017A007938751700751808AF0BAE70
:10163B000A121B6A7408250BF50BE4350AF50AE44C
:10164B00FF74382FF582E43400F583E0B50C080500
:10165B0011E511700205100FBF08E6B2A47F0A1244
:10166B001ED2050FE50FC3944040B67F1E121ED24B
:10167B00050E80A3E50D25E0FEE424FFFFEE34FF0D
:0D168B00FEC3E5119FE5109E500122C32211
:10148100021C56E493A3F8E493A34003F68001F20F
:1014910008DFF48029E493A3F85407240CC8C3336C
:1014A100C4540F4420C8834004F456800146F6DF3B
:1014B100E4800B0102040810204080900026E47EA5
:1014C100019360BCA3FF543F30E509541FFEE49330
:1014D100A360010ECF54C025E060A840B8E493A3F7
:1014E100FAE493A3F8E493A3C8C582C8CAC583CA22
:1014F100F0A3C8C582C8CAC583CADFE9DEE780BEDA
:01002A0000D5
:100FB100BB010689828A83E0225002E722BBFE023E
:090FC100E32289828A83E4932271
:100FCA00BB010689828A83F0225002F722BBFE0106
:020FDA00F32200
:100FDC00BC000BBE0029EF8DF084FFADF022E4CCF9
:100FEC00F875F008EF2FFFEE33FEEC33FCEE9DECC2
:100FFC00984005FCEE9DFE0FD5F0E9E4CEFD22ED08
:10100C00F8F5F0EE8420D21CFEADF075F008EF2F51
:10101C00FFED33FD4007985006D5F0F222C398FD42
:05102C000FD5F0EA22DF
:10103100D083D082F8E4937012740193700DA3A34E
:1010410093F8740193F5828883E473740293686062
:06105100EFA3A3A380DF62
:10105700EF4E6012EF60010EEDBB010B89828A83B0
:10106700F0A3DFFCDEFA2289F05007F709DFFCA9BD
:0C107700F022BBFEFCF309DFFCA9F02214
:00000001FF
