:03000000021DBE20
:0C1DBE00787FE4F6D8FD75814D021ADF35
:101D5600E490007BF0F54C90007AF0900079F02248
:071E0C00E54C6002154C22B9
:100DD00090007BE07003020EDA24FE601C14602396
:100DE00014603314604724046003020ECF90006E39
:100DF000E06003020EDA020EA7E54C6003020EDA91
:100E0000020E9590006EE06003020EDA754C23909E
:100E1000007B7404F022E54C6003020EDA7F0212BC
:100E20001D4590007AE004F0A37405F02290007A4A
:100E3000E024FE601224FE6022240324FB50626042
:100E40003814606D020EC6900050E01313543FFF3B
:100E5000E533D39F5003020EDA803A900050E0133E
:100E600013543F75F002A4FFAD33D3ED9FE5F0645A
:100E700080F87480984063801C900050E0131354F5
:100E80003F75F003A4FFAD33D3ED9FE5F06480F828
:100E900074809840457F0B121D4590007B7403F0D1
:100EA0002290006EE07033754C2390007B7402F04A
:100EB0002290006EE07023754C2390007B7402F04A
:100EC000E490007AF02290007B7402F0E48005E464
:0B0ED00090007BF090007AF0F54C22BF
:071E13000A03091303015B40
:101ADF00121C471216831217471212DB120026121E
:101AEF0010A290007FE0FF1204361213FC1217A70A
:081AFF00120DD075E13F80DB00
:0A1DEE00E54DD3940A4002154D2282
:0C1DCA0090007F7401F0E4F54DD29122EE
:1004360090007FE06F6005EFF0E4F54D90007FE0FF
:1004460014B40F0040030206D390045D75F003A4B4
:10045600C58325F0C5837302048A0204900204A4AE
:100466000205AE0205C90205E002060502063C02C7
:1004760006610206910205760204C60204E8020538
:1004860018020555E4F54DD29122E54D600A24F691
:1004960060030206DC02059D754D10C29122E54DF2
:1004A600601824F6601124FA600A24FA6003020632
:1004B600DCD29122C2912202059D754D1CC2912269
:1004C600E54D601824F6601124F6600A24F66003F0
:1004D6000206DCD29122C2912202059D754D82C28E
:1004E6009122E54D602624F6601F24F6601824F656
:1004F600601124F6600A24F660030206DCD291221B
:10050600C29122D29122C2912202059D754D96C2B8
:100516009122E54D603324F6602D24F6602624F6FC
:10052600601F24F6601824F6601124F6600A24F68B
:1005360060030206DCD29122C29122D29122C2919C
:1005460022D29122C29122804E754DAAC29122E5F5
:100556004D601724F66011249C600A24F46003029F
:1005660006DCD29122C29122802D754DDEC29122E7
:10057600E54D602E24F6601F24FA601824FA6011F7
:1005860024FA600A24FA60030206DCD29122C291A0
:1005960022D29122C29122E4F54D90007F04F0D23E
:1005A6009122754D28C29122E54D601114600E24EA
:1005B600F7600A24FA60030206DCD29122754D1612
:1005C600C29122E54D601114600E24F7600A24479B
:1005D60060030206DCD291228056E54D601F14604E
:1005E6001C24F76018244E601124FC600A24FC6069
:1005F600030206DCD29122C29122D291228031E5F9
:100606004D602D14602A24F760262456601F24FCB2
:10061600601824FC601124FC600A24FC60030206B6
:10062600DCD29122C29122D29122C29122D291226F
:10063600754DC8C29122E54D601F14601C24F760F9
:1006460018246F601124FB600A24EC60030206DCA8
:10065600D29122C29122D29122806CE54D602A1459
:10066600602724F760232479601C24FB601524FB93
:10067600600E24FB600724EC705CD29122C29122AA
:10068600D29122C29122D29122803CE54D12105085
:1006960006CD0006CD0106CD0A06CA8706C78C061A
:1006A600C49106C19606BE9B06BBA006B8B4000060
:1006B60006DCD29122C29122D29122C29122D291FB
:1006C60022C29122D29122754DFAC2912290007FC8
:0706D6007401F0E4F54D2270
:101D660090007E7401F0E490007DF090007CF022FB
:0A1DF80090007DE06003E014F0228B
:101CB60090007EE0FEEFC39E400CEFF090007CE0CB
:071CC60004F0A37432F022C8
:1010A20090007EE0121050114D0010ED0110E90287
:1010B20010ED0510F10610F50711010811050910D0
:1010C200F90A10FD0B11111F111E20112C3D1130B8
:1010D2003E11383F113440113C4111404210F1435E
:1010E20010F544000011477F01801A7F0280167FAD
:1010F2000380127F0B800E7F0E800A7F0F80067F97
:101102000C80027F0D120436E490007EF0803C7F5A
:101112000512043690007DE07031800B7F041204CA
:101122003690007DE07024A3801E7F0580127F0927
:10113200800E7F0A800A7F0680067F0780027F0872
:10114200120436800690007E7402F090007EE0D396
:10115200943C401290007CE0700790007E7402F094
:0711620022E490007CF02262
:0C1DD600E4F544F545F542F543F54122E3
:071E1A00E5446002154422BB
:10000E00E54345426008E543154370021542E54558
:05001E006002154522FF
:0C1DE200D295E4F542F543F545F54122A9
:1013FC00900030E0640B7027C29020851C90006E2A
:10140C00E06408600EE064096009E0640A6004E0CE
:10141C00B41006D2B7D2B68013C2B7D2B6800D9034
:10142C000030E0B41F0BD290D2B7C2B675440A801C
:10143C0008E5447004D2B7D2B6E5411460221460BA
:10144C002E24027034900030E075F00A846404603D
:10145C0009E075F00A84FFBF021F7545140541228F
:10146C00E5457015C29575420175432C054122E581
:0A147C004345427004D29505412259
:08000300E4F548F546F547223B
:071E2100E5486002154822AC
:101CCD00900075E0FFA3E0900077CFF0A3EFF0E474
:071CDD00900075F0A3F02256
:10168300E548702475480AE54660021546121DEECA
:10169300121DA4121E28121E2F121E36121E3D12D8
:1016A3001E44121E4B12000EE546702075460AE5D5
:1016B3004760021547B2A4121E0C121DF8121E1A1F
:1016C300121CCD121E1A121D86121E52E5477003FC
:1016D30075470A900076E004F07006900075E00408
:0216E300F022F3
:030023000211695E
:10116900C0E0C0F0C083C082C0D075D000C000C04C
:1011790001C002C003C004C005C006C007309839C9
:10118900C298900006E07031900004E0C3941440C6
:101199000EE4F0FE7F14FD7B017A007908806190EE
:1011A9000004E02408F582E43400F583E599F09021
:1011B9000004E004F0A37405F0309947C299D2966F
:1011C900900002E0FF900001E0FE6F601C741C2E8D
:1011D900F582E43400F583E0F599900001E004F02C
:1011E900C39414401EE4F0801A900003E4F09000C8
:1011F90001F0A3F0C296FE7F14FD7B017A00791CF1
:10120900121076D007D006D005D004D003D002D072
:0E12190001D000D0D0D082D083D0F0D0E0320F
:101B0700900002E0241CF582E43400F583EFF090A6
:101B17000002E004F0C394144002E4F0900003E0F4
:071B2700700404F0D29922C2
:101D2000120FD0FF600C121B07740129F9E43AFA74
:031D300080EE2220
:101A83007E007F087D007B017A0079001210767E4C
:101A9300007F147D007B017A00791C1210767E0092
:101AA3007F147D007B017A007908121076C296229A
:0408A5008F088D0922
:1008A9007E007F147D007B017A007951121076E574
:1008B9000824FE605F14601424D36003020A5B906D
:1008C9000051E509F0A3F0A3F0020A5BAE2FAF30A7
:1008D9007C007D64120FFB7C007D0A120FFBAF05C3
:1008E900ED2430900051F0AE2FAF307C007D0A121C
:1008F9000FFB7C007D0A120FFBAF05ED2430A3F03E
:10090900AE2FAF307C007D0A120FFBAF05ED24300E
:10091900A3020A52AE3FAF407C007D64120FFB7CFC
:10092900007D0A120FFBAF05ED2430900051F0AEA7
:100939003FAF407C007D0A120FFB7C007D0A120F3D
:10094900FBAF05ED2430A3F0AE3FAF407C007D0A3C
:10095900120FFBAF05ED2430A3F0AE34AF357C00A8
:100969007D64120FFB7C007D0A120FFBAF05ED249D
:1009790030A3F0AE34AF357C007D0A120FFB7C004A
:100989007D0A120FFBAF05ED2430A3F0AE34AF356D
:100999007C007D0A120FFBAF05ED2430A3F0900017
:1009A9004BE0FEA3E0FF7C007D64120FFB7C007D21
:1009B9000A120FFBAF05ED2430900057F090004B61
:1009C900E0FEA3E0FF7C007D0A120FFB7C007D0A9C
:1009D900120FFBAF05ED2430900058F090004BE06A
:1009E900FEA3E0FF7C007D0A120FFBAF05ED24306A
:1009F900900059F0900032E0FEA3E0FF7C007D6496
:100A0900120FFB7C007D0A120FFBAF05ED2430901D
:100A1900005AF0900032E0FEA3E0FF7C007D0A124C
:100A29000FFB7C007D0A120FFBAF05ED243090000F
:100A39005BF0900032E0FEA3E0FF7C007D0A120F1C
:100A4900FBAF05ED243090005CF0A3743BF0A37478
:0B0A59000AF07B017A007951021D2099
:1017A700900005E07047900004E0D39400403E901D
:1017B70000067401F0900009E0FF900008E0B5070B
:1017C7001190000AE0FF900008E0B50705E09000DF
:1017D7006FF07E007F147D007B017A00790812107C
:1017E70076E4900004F0900006F0A304F090000760
:0617F700E06002E4F022B4
:10197E00E4F51CF51EF51AF51BF519F51FF51D906E
:10198E00006AF090006CF0900066F0900068F090A5
:10199E00006DF0900069F0900065F090006BF09093
:0819AE000067F0900031F02207
:0D1DA400E51B6002151BE5196002151922F0
:071E2800E51F6002151F22F7
:071E2F00E51D6002151D22F4
:071E3600E51C6002151C22EF
:071E3D00E51A6002151A22EC
:071E4400E51E6002151E22DD
:101B9E009000672086057401F080037402F02083A4
:101BAE0007900031E04401F0208407900031E044BA
:031BBE0002F02210
:101D4500900065E0D39F5008EFF090006BE004F041
:011D5500226B
:10122700900069E014603114603F146068146079BD
:10123700240460030212C520B40520A202803030C6
:10124700B40320A20B9000697401F0751D0280772A
:1012570090004A7401F0806F30B40320A206E51DA8
:101267007065803DE4F51D804720B40B20A20890EF
:1012770000697404F0805020B40590004A80112062
:10128700A20890004A7405F0803D751D149000690E
:101297007403F0803230B40930A206E51D7028804F
:1012A7000F9000697402F0801E20B40330A207E497
:1012B700900069F0801190004A7406F08009E4906C
:1012C7000069F090004AF090004AE0B406037F42BC
:0412D700227F002250
:1019B60090006DE014601004701920932890006D5B
:1019C6007401F0751F1422309318E51F70179000EC
:1019D6006DF02220930790006D7401F022E49000D0
:0619E6006DF0751B1422D8
:0A1E0200900068E0B40202E4F02250
:10136D00900068E014602814600714605524037021
:10137D006B20970D9000687401F0751B057519149D
:10138D0022900074E06067E5497063F0021E023040
:10139D009717E5196007E4900068F0800FE51B7062
:1013AD000B9000687403F08003751B05900071E0CD
:1013BD0064016004E0B403069000717402F0754995
:1013CD003C22900074E06003E014F0900068740219
:1013DD00F0900071E0B402167403F022209707908C
:0F13ED0000687401F022E4900068F0751B05227F
:1018530090006AE01460151460252402703B20B3E5
:101863003DE51C703C90006A7402F02230B308E43A
:1018730090006AF0751C0A121E027F0E021D45209D
:10188300A10DE54A7009900074E004F0754A969042
:10189300006A7401F075493C22E490006AF0751CFB
:0218A3000A2217
:1016080030B35E2094028059900066E0146015148F
:10161800601C2402705C20A05EE51A705D90006674
:101628007402F02230A053E4900066F080499000E4
:1016380067E0B4010990006FE0B4030780007F0100
:10164800121D459000667401F0E4900074F0F54AAC
:10165800F549900067E0B4010E90006FE064036004
:1016680006E4900066F022900071E0B4010C740466
:0B167800F022E4900066F0751A0A22D0
:1018A50090006CE014602F1460122402703B2094A9
:1018B5003DE51E703C90006C7402F02220A10DE500
:1018C5004A7009900074E004F0754A9690006C74B3
:1018D50001F075493C22309408E490006CF0751EC7
:1018E5000A121E027F0D021D45E490006CF0751E64
:0218F5000A22C5
:101D7600900079E0B40108121E027F0B121D452265
:0D1DB100900079E0B402057F02121D45226A
:101C680090004AE0B4031490006EE0C39408400B5F
:0C1C7800E0D3940E50057F0F121D452292
:101B7A0090004AE06405701B90006EE06404600EF9
:101B8A00E064036009E064026004E0B401057F05D3
:041B9A00121D4522B1
:101C0500900068E0B4011990004AE0640560119005
:101C1500004FE064046004E0B403057F08121D452D
:011C2500229C
:101AB30090004AE064037023900068E06402701BA6
:101AC300900074E07015900067E0B4010990006F16
:0C1AD300E0B4030780007F04121D4522D0
:101C260090006DE0B4011990004AE06405601190DF
:101C3600004FE064046004E0B403057F09121D450B
:011C4600227B
:101CE40090006EE0B4100C90004AE0B403057F113C
:041CF400121D452256
:101CF80090006EE0B4060C90004AE0B405057F073A
:041D0800121D452241
:1017470090006EE0F46058E064FE6053121227EFD9
:1017570060057F42121CB6900074E0600830A10556
:10176700E4F0121E021219B612136D121853121852
:10177700A5121D76121C05121C26121DB112160881
:10178700121AB3121C68121B7A121CE4121CF8906E
:10179700006BE07005900065F022E490006BF0228A
:10150B009000347405F090004F7401F0900035F0AA
:10151B0090004AF0E4900030F0F53DF53EF52FF5E4
:10152B0030F531F532F539F53AF53BF53CF533FE4F
:10153B007F0EFDFB7A0079211210767E007F037DF2
:10154B00007B007A0079361210767E007F137D00C7
:10155B007B017A007937121076E4F53FF540F534CC
:10156B00F53590004DF0A3F0900050F0900036F060
:0F157B0090004BF0A3F0900032F0A3F0C20022DA
:0F1D8600E53C453B6008E53C153C7002153B22EF
:101C9E00E53A45396009E53A153A700B15392205D2
:081CAE003EE53E7002053D22F7
:10194000BF0A06E535241E8007BF121BE5352414A7
:10195000F540E43534F53F900046E0243CFEE433A6
:10196000900032F0A3CEF0D3900033E0942C90009E
:0E19700032E0940140077401F0A3742CF022C1
:101B2E00900031E08FF0A4F0E02DF0E075F003842A
:101B3E0025E0FFC3E5339F900050F0900031E0FFA9
:061B4E00C3E5339FF02205
:1006DD00E4FBFAEF24FE604414700302085014701A
:1006ED00030208902403600302089F900047E06511
:1006FD0033700302089FE533F0AF30A3E02437F5E4
:10070D0082E43400F583EFF0900048E004F0E064FB
:10071D000C600302089F7406F002089F9000457458
:10072D00FFF0E4900048F0900048E02437F582E4B3
:10073D003400F583E02BFBE43AFA900048E02437CF
:10074D00F582E43400F583E0FF900045E0FEEFC351
:10075D009E5012900048E02437F582E43400F58372
:10076D00E0900045F0900048E004F0E0B406B87C5D
:10077D00007D06AF03AE02120FFBAA06AB07900079
:10078D0043EFF0E4900046F09000487406F09000BE
:10079D0048E02437F582E43400F583E02BFBE43A9E
:1007AD00FA900048E02437F582E43400F583E0FF49
:1007BD00900046E0FEEFD39E4012900048E02437B3
:1007CD00F582E43400F583E0900046F0900048E0B7
:1007DD0004F0E0B40CB87C007D06AF03AE02120F3E
:1007ED00FB900044EFF0900043E0D394144005E0FB
:1007FD0094504009900044E0D394DC403E90004674
:10080D00E0D394BE40028033900046E0D3949640EE
:10081D00089000497404F08079900046E0D3946EFE
:10082D0040089000497403F08068900046E0D3942E
:10083D005A90004940087402F080579000497401A5
:10084D00F0804FE4900046F0900048F0900048E0B2
:10085D002437F582E43400F583E0FF900046E0FE96
:10086D00EFD39E4012900048E02437F582E4340027
:10087D00F583E0900046F0900048E004F0E0B40C01
:10088D00CB800F7E007F137D007B017A00793712BC
:07089D001076900049E0FF16
:0108A4002231
:100EDB008F088D098B0AE50864056003020FA49047
:100EEB000034E065096003020FCF90004AE0650A09
:100EFB006003020FCF7F021206DDEF146015146042
:100F0B000A14600B1470117F0A800A7F0880067F19
:100F1B000980027F0B121CB6E533C3945050269008
:100F2B000034740AF090004D7402F0A37458F0E58D
:100F3B003545347005F5347535327F0A1219407D0D
:100F4B000F7F058051E533C3948250269000347493
:100F5B0012F090004D7403F0A37484F0E535453422
:100F6B007005F53475351E7F121219407D237F0AEB
:100F7B0080249000347412F090004D7403F0A3742D
:100F8B0084F0E53545347005F5347535327F121232
:100F9B0019407D237F0A021B2E900034E0C3950974
:100FAB00502290004AE0B50A0BE508B40706900002
:100FBB00347407F090004D7404F0A374B0F0753FD7
:050FCB000175402C221D
:101B5400E53A45397017D3E53E9FE53D9E400E902A
:101B64000036E06005E014F080097F012290003621
:061B74007402F07F002264
:100B9F00E4FEEF24FE6061147003020C93147003E3
:100BAF00020CA124036003020CBAE52D640B70291B
:100BBF00F531F532FE74212EF8E6D39532E49531F6
:100BCF00400A74212EF8E6753100F5320EBE0AE5A3
:100BDF0085322E752D0CAF2E22E52DC3940B50159B
:100BEF00E52C6533600F85332CAF30AE2D74212E7D
:100BFF00F8A607052DAF2E22E540B42D0DE53FB425
:100C0F000108900034E0FF121940E540642C700495
:100C1F00E53F64017003020CBAE538C39402501625
:100C2F00E5359414E5349400400CAF35AE38743686
:100C3F002EF8A6070538E53864027045AF36D3EFB6
:100C4F009535E495344028AF37D3EF9535E4953497
:100C5F00401DAF22AD21ED2FF532E433F531E531F3
:100C6F00C313F531E53213F5328531348532357ED4
:100C7F00007F037D007B007A0079361210767F01AA
:100C8F00227F00227E007F0E7D007B007A0079217B
:100C9F008016E4900032F0A3F0753F0175402DFEF1
:0D0CAF007F03FDFB7A0079361210767F007E
:010CBC002215
:10002600A2B2300001B35011A2B29200853D2F85D5
:100036003E30E4F53DF53E0533900030E0121050B9
:1000460000890000A80101520202030303670400AD
:10005600CF0B00E80C01180D017315018C1601A7D2
:100066001701CF1801E11902381F0251200275212C
:1000760003A02903B92A03D12B04032C04152D0050
:1000860000043590004AE0B405069000307404F090
:1000960090004AE064036003020435900030740265
:1000A600F022121DE27B057D097F08120EDB7F041C
:1000B6001206DDE4F533F539753A02900030740B1B
:1000C600F09000357402020230E53A4539600302C9
:1000D6000435D2A3C287F539753A0A900030740CFC
:1000E600F022E53A4539600302043590004DE0F50B
:1000F6003BA3E0F53C753903753AE8900030740D82
:10010600F090004FE0B40402C2A590004F740202C2
:10011600026FE53A45397002D2A5E53C453B700AC7
:1001260090004F04F07F3E02041290004CE0254000
:10013600FF90004BE0353FCF2450CF3400FE121B1A
:1001460054EF70030204357F200204127B037D08FE
:100156007F05120EDBD2A5D2A7753900753A02903B
:1001660000307415F090004F740302039AE53A4587
:10017600396003020435D2A3C287F539753A0A906D
:1001860000307416F022E53A45396003020435D290
:10019600A7C2A6C2A5F53B753C1E9000307417F0A9
:1001A60022E53C453B7015D2A590004AE090003010
:1001B600B403047419F02274180203E990004AE0AB
:1001C60064037003020435801A90004AE0B4030603
:1001D6009000307419F07F3F02041290004AE064E8
:1001E60003600B90004F7401F07F1002042F900003
:1001F6004FE0640160030204357403F022121DE22D
:100206007B037D097F07120EDB7F03120B9F7F04A2
:100216001206DDE4F533F539753A02900030741FA5
:10022600F090004F7404F0900035F0D2A7D2A6D219
:10023600A522E53A45396003020435C2A3D287F503
:1002460039753A0A9000307420F022E53A45396053
:100256000302043590004DE0F53BA3E0F53C75390B
:1002660003753A209000307421F0C2A7C2A62290EE
:100276000034E0D394094058E533941A500C9000AA
:100286004B7401F0A3742CF0803E900050E0FFE523
:1002960033D39F4009C2A57F011206DD802A900054
:1002A60031E0FFE533D39F4018D2A77F011206DD68
:1002B600900032E0FFA3E090004BCFF0A3EFF08078
:1002C60007E490004BF0A3F0E53A4539703C8030E6
:1002D600E533C39414500C90004B7401F0A3742CB6
:1002E600F08007E490004BF0A3F0E533D394284068
:1002F60009D2A7C2A57F011206DDE53A4539700A83
:100306007F01120B9F7534008F35E53C453B700E1F
:1003160090004F04F0D2A7D2A57F400204129000AD
:100326004CE02540FF90004BE0353FFE121B54EF9A
:10033600700302043590006EE06406700302043513
:100346007F0A121D457F20121CB67F04120B9F12D6
:100356001E02900071E0640160030204357405F02A
:10036600227F031206DD7F02120B9FEF60089000CA
:1003760034E0FF1219407B057D077F05120EDBD2A4
:10038600A5D2A7753900753A029000307429F0900D
:10039600004F7405F0900035F022E53A45396003C8
:1003A600020435C2A3D287F539753A0A9000307433
:1003B6002AF022E53A45397076D2A7C2A6C2A5F53B
:1003C6003B753C14900030742BF022E53C453B70A5
:1003D6001AD2A590004AE0900030B40504742DF0BE
:1003E60022742CF090004F7401F02290004AE064D1
:1003F60005603C90004F7401F07F06802C90004A07
:10040600E0B40506900030742DF07F41021CB690D2
:10041600004FE0B401037405F090004AE064056003
:100426000E90004F7401F07F06121D45121DE22248
:10158A000000000000000000000000000000000051
:10159A000000000000000004030000000000010039
:1015AA00010201000000000000000000000000002D
:1015BA000000000200020003030303000000000011
:1015CA000000000000000000000000000004000409
:1015DA0001010101010101000000000000000004F6
:1015EA0000000000000101010100000000000000ED
:0E15FA000004000000000000000000020000DD
:101BC100C2AF759850758921758DFDD28ED2AC75D5
:101BD1008ACD758CF8D28CD2A9C2A8C2AAD2BCD2A5
:021BE100AF2231
:101BE30090006E74FFF0E4900070F0900072F0903B
:101BF300006FF0900073F0900071F0900074F0F5B6
:021C03004A2273
:101D3300EF75F0C8A4FFAEF0EF1F70011E144E70D4
:011D4300F7A8
:011D4400227C
:0F1D9500E54B6002154B900005E0600214F02250
:071E4B00E54A6002154A227E
:071E5200E549600215492279
:101C4700121BC1121A83121BE3121DCA121D661240
:101C5700197E12000312150B121DD6121D56020C07
:011C6700BDBF
:1017FD00900065E0FF90006EE0C39F50489000653B
:10180D00E0FF90004FE075F012A4248AF582E434D5
:10181D0015F583E5822FF582E43583F583E4939006
:10182D000070F0E0601FE0900030F0900065E090F7
:10183D00006EF020A10FE064086004E0B40A069089
:06184D000074E004F0222B
:100A6400900067E06402703D90006FE0146027140A
:100A7400600E14600B24FE60030470247F03801155
:100A8400E4900066F0751A0A900068F0751B057F03
:100A94000C121D458000900035E0FD7F301208A542
:100AA400E490006FF0900067E064016003020B9E25
:100AB40090006EE0F47003020B9EE064FE7003028B
:100AC4000B9EE54B6003020B9E754B14900035E0C2
:100AD40024FE7003020B94147003020B9424FE6032
:100AE40006046003020B9490006FE024FE6064141B
:100AF400602714600D146003020B87E4900071F00A
:100B0400804D900071E0700204F0900071E0B40236
:100B1400047D02806C7D018068900071E0700204A5
:100B2400F0900035E0B404077D047F301208A590EE
:100B34000071E0B404047D04804B900071E0B403C0
:100B44000E7D047F301208A5E4900071F0803B7D97
:100B5400018032900071E064026003121E02900072
:100B640071E0700204F0900035E0B404077F0C12C9
:100B74001D458016900071E0B403047D0480027D5D
:100B84000180027D017F301208A5E490006FF022FD
:0B0B9400900035E0FD7F301208A52224
:1012DB00120A6490006EE02402606114604314B43F
:1012EB00120050789012F6F8282873021364021338
:1012FB006402136402136402136402136102136425
:10130B000213610213640213640213640213640276
:10131B001364021364021364021361021364021355
:10132B0061121B9E20B30B20A00820A205754C1E3A
:10133B008003754C0690006E74FEF02220B31120D2
:10134B00A00E20A20BE54C700790007B04F08006EA
:10135B00E54C700D8007E480040217FDE490006EED
:02136B00F0226E
:03000B000218F7E1
:1018F700C0E0C0F0C083C082C0D075D000C000C0B7
:1019070001C002C003C004C005C006C007C28D7570
:101917008ACD758CF8121E21121C9E121D95D007B8
:10192700D006D005D004D003D002D001D000D0D04B
:09193700D082D083D0F0D0E03260
:071D0C00740129F9E43AFA21
:0D1D1300E4F5E7F5E5F5E675E380F5E4227B
:101A1F00AD07AC0675E78175E5018CE3AF058FE483
:101A2F0075E64675E6B900E5E2120FE90DBD000156
:101A3F000C121D0CE51815187002151714451770A8
:021A4F00D322A0
:101C8400AD07AC0675E78175E5038CE3AF058FE41A
:0A1C940075E64675E6B900021D135F
:101A5100AD07AC0675E78175E5028CE3AF058FE450
:101A6100120FD0F5E275E64675E6B9000DBD00012D
:101A71000C121D0CE5151515700215141445147082
:021A8100D3226E
:100CBD00E4F508F509F5E190007E7443F07B017AC7
:100CCD000079517517007518087F007E20121A1FC4
:100CDD00E4F50874512508F582E43400F583E0FF4E
:100CED00901E19E493FEEFB5060205090508E50807
:100CFD00B408E0E509B4080690007E7401F0900098
:100D0D007EE064436003020DCFF5087B027D007C1D
:100D1D00027F007E201219EC7F0A121D337B027DAB
:100D2D00AA7F007E201216E57F0A121D337B027DFD
:100D3D00AA7F007E201214865002C2917F0A121DD6
:100D4D00337B027D007C027F007E201219EC7F0A2E
:100D5D00121D337B027D557F007E201216E57F0A22
:100D6D00121D337B027D557F007E201214865002AA
:100D7D00C2917F0A121D330508E508C39401408B0B
:100D8D003091377F007E20121C84E4F508901E19E7
:100D9D00E493FF74512508F582E43400F583EFF0F8
:100DAD000508E508B408E67B017A00795175140051
:100DBD007515087F007E20021A51D29190007E7425
:020DCD0044F0F0
:010DCF002201
:0A19EC008E0A8F0B8C0C8D0D8B0EF4
:1019F600E4F50FE50FC3950E501ED2A4AF0BAE0A49
:101A0600121C847F0A121D33E50D250BF50BE50C20
:081A1600350AF50A050F80DB1B
:011A1E0022A5
:0616E5008E0A8F0B8B0C36
:1016EB00E4F50D7459250DF582E43400F583EDF026
:1016FB00050DE50DB408ECE4F50DE50DC3950C50A7
:10170B003AE4F50E7B017A007959751400751508CA
:10171B00AF0BAE0A121A517408250BF50BE4350A00
:10172B00F50A7F0A121D33050EE50EC3944040D413
:0B173B00B2A47F1E121D33050D80BFFD
:011746002280
:081486008E0A8F0B8D0C8B0DFB
:10148E00E4F510F511F50EE50EC3950D5056E4F585
:10149E000F7B017A007959751700751808AF0BAEDE
:1014AE000A121A1F7408250BF50BE4350AF50AE427
:1014BE00FF74592FF582E43400F583E0B50C08056E
:1014CE0011E511700205100FBF08E6B2A47F0A12D3
:1014DE001D33050FE50FC3944040B67F1E121D331A
:1014EE00050E80A3E50D25E0FEE424FFFFEE34FF9C
:0C14FE00FEC3E5119FE5109E500122C3C3
:01150A0022BE
:100FD000BB010689828A83E0225002E722BBFE021F
:090FE000E32289828A83E4932252
:100FE900BB010689828A83F0225002F722BBFE01E7
:020FF900F322E1
:100FFB00BC000BBE0029EF8DF084FFADF022E4CCDA
:10100B00F875F008EF2FFFEE33FEEC33FCEE9DECA2
:10101B00984005FCEE9DFE0FD5F0E9E4CEFD22EDE8
:10102B00F8F5F0EE8420D21CFEADF075F008EF2F32
:10103B00FFED33FD4007985006D5F0F222C398FD23
:05104B000FD5F0EA22C0
:10105000D083D082F8E4937012740193700DA3A32F
:1010600093F8740193F5828883E473740293686043
:06107000EFA3A3A380DF43
:10107600EF4E6012EF60010EEDBB010B89828A8391
:10108600F0A3DFFCDEFA2289F05007F709DFFCA99E
:0C109600F022BBFEFCF309DFFCA9F022F5
:00000001FF
